:020000040800F2
:100000000000032021E20008B9AC0008BBAC0008E6
:10001000BDAC0008BFAC0008C1AC00080000000087
:1000200000000000000000000000000091A900088E
:10003000C3AC00080000000021AA0008C5AC0008FD
:1000400071E2000871E2000871E2000871E2000844
:1000500071E2000871E2000871E2000871E2000834
:1000600071E2000871E2000871E2000871E2000824
:1000700071E2000871E2000871E2000871E2000814
:1000800071E2000871E2000871E2000871E2000804
:1000900071E2000871E2000871E2000871E20008F4
:1000A00071E2000871E2000871E2000871E20008E4
:1000B00071E2000871E2000871E2000871E20008D4
:1000C00071E2000871E2000871E2000871E20008C4
:1000D00071E2000871E2000871E2000871E20008B4
:1000E00071E2000871E2000871E2000871E20008A4
:1000F00071E2000871E2000871E2000871E2000894
:1001000071E2000871E2000871E2000871E2000883
:1001100071E2000871E20008ADAC000871E200086D
:1001200071E2000871E2000871E2000871E2000863
:1001300071E2000871E2000871E2000871E2000853
:1001400071E2000871E2000871E2000871E2000843
:1001500071E2000871E2000871E2000871E2000833
:1001600071E2000871E2000871E2000871E2000823
:1001700071E2000871E2000871E20008000000006E
:1001800071E2000871E2000871E2000871E2000803
:1001900071E2000871E2000871E2000871E20008F3
:0C01A000F1930008E1AC0008D5AC0008A9
:1040000010B5054C237833B9044B13B10448AFF312
:1040100000800123237010BD040B0020000000006D
:104020005C7D01080C4B43B10C480D4910B5AFF352
:1040300000800C48036823B910BD0A48036833B9EF
:104040007047094B002BF7D0BDE810401847064BCE
:10405000002BF5D0184700BF000000005C7D010870
:10406000080B0020040B00200000000081F000413C
:1040700002E000BF83F0004330B54FEA41044FEA4D
:10408000430594EA050F08BF90EA020F1FBF54EAE8
:10409000000C55EA020C7FEA645C7FEA655C00F084
:1040A000E2804FEA5454D4EB5555B8BF6D420CDD55
:1040B0002C4480EA020281EA030382EA000083EAD8
:1040C000010180EA020281EA0303362D88BF30BD78
:1040D00011F0004F4FEA01314FF4801C4CEA1131CE
:1040E00002D0404261EB410113F0004F4FEA03332D
:1040F0004CEA133302D0524263EB430394EA050FB8
:1041000000F0A780A4F10104D5F1200E0DDB02FA26
:104110000EFC22FA05F2801841F1000103FA0EF2BA
:10412000801843FA05F359410EE0A5F120050EF180
:10413000200E012A03FA0EFC28BF4CF0020C43FAB1
:1041400005F3C01851EBE37101F0004507D54FF0BE
:10415000000EDCF1000C7EEB00006EEB0101B1F50E
:10416000801F1BD3B1F5001F0CD349085FEA300054
:104170004FEA3C0C04F101044FEA445212F5800F5F
:1041800080F09A80BCF1004F08BF5FEA500C50F1FC
:10419000000041EB045141EA050130BD5FEA4C0CDF
:1041A000404141EB010111F4801FA4F10104E9D168
:1041B00091F0000F04BF01460020B1FA81F308BF5F
:1041C0002033A3F10B03B3F120020CDA0C3208DD2B
:1041D00002F1140CC2F10C0201FA0CF021FA02F106
:1041E0000CE002F11402D8BFC2F1200C01FA02F176
:1041F00020FA0CFCDCBF41EA0C019040E41AA2BF9B
:1042000001EB0451294330BD6FEA04041F3C1CDA62
:104210000C340EDC04F11404C4F1200220FA04F082
:1042200001FA02F340EA030021FA04F345EA03012C
:1042300030BDC4F10C04C4F1200220FA02F001FAEE
:1042400004F340EA0300294630BD21FA04F0294670
:1042500030BD94F0000F83F4801306BF81F4801109
:104260000134013D4EE77FEA645C18BF7FEA655C7C
:1042700029D094EA050F08BF90EA020F05D054EA4E
:10428000000C04BF1946104630BD91EA030F1EBF53
:104290000021002030BD5FEA545C05D14000494157
:1042A00028BF41F0004130BD14F580043CBF01F54A
:1042B000801130BD01F0004545F0FE4141F4700130
:1042C0004FF0000030BD7FEA645C1ABF194610460B
:1042D0007FEA655C1CBF0B46024650EA013406BF0C
:1042E00052EA033591EA030F41F4002130BD00BFCB
:1042F00090F0000F04BF0021704730B54FF4806488
:1043000004F132044FF000054FF0000150E700BF08
:1043100090F0000F04BF0021704730B54FF4806467
:1043200004F1320410F0004548BF40424FF0000154
:104330003EE700BF42004FEAE2014FEA31014FEA97
:1043400002701FBF12F07F4393F07F4F81F06051E6
:10435000704792F0000F14BF93F07F4F704730B555
:104360004FF4607401F0004521F0004120E700BFE8
:1043700050EA010208BF704730B54FF000050AE06F
:1043800050EA010208BF704730B511F0004502D570
:10439000404261EB41014FF4806404F132045FEA72
:1043A000915C3FF4DCAE4FF003025FEADC0C18BF17
:1043B00003325FEADC0C18BF033202EBDC02C2F10D
:1043C000200300FA03FC20FA02F001FA03FE40EA9F
:1043D0000E0021FA02F11444C1E600BF70B54FF09F
:1043E000FF0C4CF4E06C1CEA11541DBF1CEA135581
:1043F00094EA0C0F95EA0C0F00F0DEF82C4481EAE9
:10440000030621EA4C5123EA4C5350EA013518BF08
:1044100052EA033541F4801143F4801338D0A0FBF5
:1044200002CE4FF00005E1FB02E506F00042E0FBA2
:1044300003E54FF00006E1FB03569CF0000F18BFA8
:104440004EF0010EA4F1FF04B6F5007F64F5407450
:1044500004D25FEA4E0E6D4146EB060642EAC621E3
:1044600041EA55514FEAC52040EA5E504FEACE2E50
:10447000B4F1FD0C88BFBCF5E06F1ED8BEF1004F53
:1044800008BF5FEA500E50F1000041EB045170BDCF
:1044900006F0004646EA010140EA020081EA030113
:1044A000B4EB5C04C2BFD4EB0C0541EA045170BD0F
:1044B00041F480114FF0000E013C00F3AB8014F189
:1044C000360FDEBF002001F0004170BDC4F10004D2
:1044D000203C35DA0C341BDC04F11404C4F1200553
:1044E00000FA05F320FA04F001FA05F240EA0200AE
:1044F00001F0004221F0004110EBD37021FA04F6E4
:1045000042EB06015EEA430E08BF20EAD37070BD9D
:10451000C4F10C04C4F1200500FA04F320FA05F0FC
:1045200001FA04F240EA020001F0004110EBD370FE
:1045300041F100015EEA430E08BF20EAD37070BD6E
:10454000C4F1200500FA05F24EEA020E20FA04F347
:1045500001FA05F243EA020321FA04F001F00041F6
:1045600021FA04F220EA020000EBD3705EEA430E67
:1045700008BF20EAD37070BD94F0000F0FD101F096
:104580000046400041EB010111F4801F08BF013CCF
:10459000F7D041EA060195F0000F18BF704703F00D
:1045A0000046520043EB030313F4801F08BF013D94
:1045B000F7D043EA0603704794EA0C0F0CEA135550
:1045C00018BF95EA0C0F0CD050EA410618BF52EA0A
:1045D0004306D1D181EA030101F000414FF0000010
:1045E00070BD50EA410606BF1046194652EA43061E
:1045F00019D094EA0C0F02D150EA013613D195EA92
:104600000C0F05D152EA03361CBF104619460AD1D9
:1046100081EA030101F0004141F0FE4141F47001E3
:104620004FF0000070BD41F0FE4141F4780170BDD3
:1046300070B54FF0FF0C4CF4E06C1CEA11541DBF38
:104640001CEA135594EA0C0F95EA0C0F00F0A7F83A
:10465000A4EB050481EA030E52EA03354FEA013167
:1046600000F088804FEA03334FF0805545EA13137A
:1046700043EA12634FEA022245EA111545EA106542
:104680004FEA00260EF000419D4208BF964244F1D9
:10469000FD0404F5407402D25B084FEA3202B61AF8
:1046A00065EB03055B084FEA32024FF480104FF4CC
:1046B000002CB6EB020E75EB030E22BFB61A754640
:1046C00040EA0C005B084FEA3202B6EB020E75EBD3
:1046D000030E22BFB61A754640EA5C005B084FEA3B
:1046E0003202B6EB020E75EB030E22BFB61A754608
:1046F00040EA9C005B084FEA3202B6EB020E75EB13
:10470000030E22BFB61A754640EADC0055EA060ED3
:1047100018D04FEA051545EA16754FEA06164FEA16
:10472000C30343EA52734FEAC2025FEA1C1CC0D1C2
:1047300011F4801F0BD141EA00014FF000004FF04F
:10474000004CB6E711F4801F04BF01430020B4F110
:10475000FD0C88BFBCF5E06F3FF6AFAEB5EB030CC8
:1047600004BFB6EB020C5FEA500C50F1000041EBC5
:10477000045170BD0EF0004E4EEA113114EB5C0492
:10478000C2BFD4EB0C0541EA045170BD41F4801165
:104790004FF0000E013C90E645EA060E8DE60CEA6D
:1047A000135594EA0C0F08BF95EA0C0F3FF43BAF8A
:1047B00094EA0C0F0AD150EA01347FF434AF95EA41
:1047C0000C0F7FF425AF104619462CE795EA0C0F25
:1047D00006D152EA03353FF4FDAE1046194622E7F2
:1047E00050EA410618BF52EA43067FF4C5AE50EACC
:1047F00041047FF40DAF52EA43057FF4EBAE12E7BC
:104800004FF0FF3C06E000BF4FF0010C02E000BF9C
:104810004FF0010C4DF804CD4FEA410C7FEA6C5C7F
:104820004FEA430C18BF7FEA6C5C1BD001B050EA22
:10483000410C0CBF52EA430C91EA030F02BF90EA0D
:10484000020F0020704710F1000F91EA030F58BFCC
:10485000994208BF90422CBFD8176FEAE37040F02E
:10486000010070474FEA410C7FEA6C5C02D150EACC
:10487000013C07D14FEA430C7FEA6C5CD6D152EA87
:10488000033CD3D05DF8040B704700BF844610464C
:1048900062468C461946634600E000BF01B5FFF74B
:1048A000B7FF002848BF10F1000F01BD4DF808ED1B
:1048B000FFF7F4FF0CBF012000205DF808FB00BFEC
:1048C0004DF808EDFFF7EAFF34BF012000205DF846
:1048D00008FB00BF4DF808EDFFF7E0FF94BF012093
:1048E00000205DF808FB00BF4DF808EDFFF7CEFF94
:1048F00094BF012000205DF808FB00BF4DF808EDD3
:10490000FFF7C4FF34BF012000205DF808FB00BFA3
:104910004FEA4102B2F1E04324BFB3F5001CDCF1E1
:10492000FE5C0DD901F0004C4FEAC0024CEA507019
:10493000B2F1004F40EB830008BF20F00100704748
:1049400011F0804F21D113F13872BCBF01F000404B
:10495000704741F480114FEA5252C2F11802C2F17D
:10496000200C10FA0CF320FA02F018BF40F00100FE
:104970004FEAC1234FEAD32303FA0CFC40EA0C00B0
:1049800023FA02F34FEA4303CCE77FEA625307D1ED
:1049900050EA01331EBF4FF0FE4040F44000704724
:1049A00001F0004040F0FE4040F40000704700BFBE
:1049B00053B94AB9002908BF00281CBF4FF0FF3186
:1049C0004FF0FF3000F07AB9ADF1080C6DE904CE7C
:1049D00000F006F8DDF804E0DDE9022304B07047DA
:1049E0002DE9F0478C460D460446089E002B51D118
:1049F0008A4217466DD9B2FA82FEBEF1000F0BD083
:104A0000CEF1200C01FA0EF520FA0CFC02FA0EF79A
:104A10004CEA050C00FA0EF44FEA174A250CBCFBD1
:104A2000FAF81FFA87F90AFB18CC45EA0C4508FB8F
:104A300009F3AB420AD9ED1908F1FF3280F0238166
:104A4000AB4240F22081A8F102083D44ED1AA4B225
:104A5000B5FBFAF00AFB105544EA054400FB09F9DE
:104A6000A14509D9E41900F1FF3380F00A81A1457D
:104A700040F2078102383C44A4EB090440EA0840B4
:104A80000021002E61D024FA0EF4002334607360FC
:104A9000BDE8F0878B4207D9002E54D0002186E86C
:104AA00021000846BDE8F087B3FA83F1002940F001
:104AB0008E80AB4202D3824200F2FA80841A65EB08
:104AC00003050120AC46002E3FD086E81010BDE85B
:104AD000F08712B90127B7FBF2F7B7FA87FEBEF1EC
:104AE000000F34D1EB1B3A0C1FFA87FC0121B3FBFA
:104AF000F2F8250C02FB183345EA03450CFB08F3DA
:104B0000AB4207D9ED1908F1FF3002D2AB4200F2F7
:104B1000D1808046ED1AA3B2B5FBF2F002FB10552E
:104B200043EA05440CFB00FCA44507D9E41900F155
:104B3000FF3302D2A44500F2B8801846A4EB0C045F
:104B400040EA08409DE731463046BDE8F087CEF1A7
:104B5000200405FA0EF307FA0EF720FA04F83A0CCF
:104B600025FA04F448EA0308B4FBF2F14FEA1845C9
:104B700002FB11441FFA87FC45EA044501FB0CF3D4
:104B8000AB4200FA0EF409D9ED1901F1FF3080F0C3
:104B90008A80AB4240F2878002393D44EB1A1FFA0B
:104BA00088F5B3FBF2F002FB103345EA034500FB46
:104BB0000CF3AB4207D9ED1900F1FF386FD2AB42CD
:104BC0006DD902383D44EB1A40EA01418FE7C1F14B
:104BD000200722FA07F88B4005FA01F448EA03039C
:104BE00020FA07FE4FEA134CFD404EEA040EB5FBD7
:104BF000FCF94FEA1E440CFB19551FFA83F844EAEE
:104C0000054509FB08F4AC4202FA01F200FA01FA88
:104C100008D9ED1809F1FF3043D2AC4241D9A9F1CE
:104C200002091D442D1B1FFA8EFEB5FBFCF00CFB88
:104C300010554EEA054400FB08F8A04507D9E418D2
:104C400000F1FF3529D2A04527D902381C4440EA9B
:104C50000940A4EB0804A0FB02894C45C6464D461A
:104C600015D312D056B1BAEB0E0364EB050404FA67
:104C700007F7CB401F43CC40376074600021BDE88C
:104C8000F0871846F8E69046E0E6C245EAD2B8EB6F
:104C9000020E69EB03050138E4E72846D7E74046F2
:104CA00091E78146BEE7014678E702383C4445E794
:104CB000084608E7A8F102083D442BE7704700BF0B
:104CC00001F0FF01102A2BDB10F0070F08D010F8BD
:104CD000013B013A8B422DD010F0070F42B3F6D1C1
:104CE000F0B441EA012141EA014122F007047FF0DA
:104CF00000070023F0E80256083C85EA010586EA31
:104D0000010685FA47F5A3FA87F586FA47F6A5FA6C
:104D100087F68EB9EED1F0BC01F0FF0102F0070278
:104D200032B110F8013B013A83EA010313B1F8D123
:104D30000020704701387047002D06BF3546033804
:104D4000073815F0010F07D1013015F4807F02BF3D
:104D5000013015F4C03F0130F0BC0138704700BF8E
:104D600070477047704703683121DB6F184703684D
:104D70003221DB6F184703683321DB6F1847036864
:104D80003421DB6F184703683521DB6F1847036850
:104D90003621DB6F184703683721DB6F184703683C
:104DA0003821DB6F184703683921DB6F1847036828
:104DB0004121DB6F184703684221DB6F1847036806
:104DC0004321DB6F184703684421DB6F18470368F2
:104DD0004521DB6F184703684621DB6F1847704792
:104DE00080F82212704780F8181E704790F8180E4D
:104DF000704700F054BD000010B50B46044662BB7E
:104E0000484A052100F6C8500EF038FF04F50A7034
:104E10000DF0C6FC5823434A052104F6D4500EF089
:104E20002DFF04F518700DF0BBFC58233D4A0521F9
:104E300004F55E600EF022FF04F526700DF0B0FC64
:104E40005823384A052104F6EC500EF017FF04F5FC
:104E50003470BDE810400DF0A3BC012A13D1314AD3
:104E6000052100F6D4500EF009FF04F518700DF07E
:104E700097FC58232B4A052104F6C8500EF0FEFE7D
:104E800004F50A70CFE7022A1ED1264A052100F553
:104E90005E600EF0F3FE04F526700DF081FC5823E1
:104EA000204A052104F6C8500EF0E8FE04F50A7009
:104EB0000DF076FC58231B4A052104F6D4500EF061
:104EC000DDFE04F51870B9E7032A29D1154A05213A
:104ED00000F6EC500EF0D2FE04F534700DF060FCDC
:104EE0005823104A052104F6C8500EF0C7FE04F5F9
:104EF0000A700DF055FC58230A4A052104F6D450D7
:104F00000EF0BCFE04F518700DF04AFC5823054A5B
:104F1000052104F55E600EF0B1FE04F5267098E7F9
:104F200010BD00BFC07D010810B5044600F050FF61
:104F3000034B2360582384F8183E204610BD00BF61
:104F4000CC7D0108D43009F093BA10B50446084668
:104F500011461A460EF0A0FE014604F1D40009F0F5
:104F600017FA10BD10B5044B044640F8D43B09F0C5
:104F70001BFA204610BD00BF3482010810B504465C
:104F8000FFF7F0FF204640F61C6111F007F92046BC
:104F900010BD7047A0F10400FBE7C36881681A6880
:104FA0000969926E18461047A0F10400FFF7F5BF9B
:104FB00010B4C36881681A68D46E0A69497D1846BE
:104FC00023465DF8044B1847A0F10400FFF7F0BF3B
:104FD0007047A0F10400FFF7FBBF10B40346C068A0
:104FE0009968036891F824205C6F91F8283091F853
:104FF0002010A4465DF8044B6047A0F10400FFF7C1
:10500000ECBFC36881681A688968126F1846104738
:10501000A0F10400FFF7F5BF10B58468C06803680D
:105020009B6F984784F8310010BDA0F10400FFF792
:10503000F3BFC06803685821DB6F1847A0F1040074
:10504000FFF7F7BF10B51021044611F0A7F820466E
:1050500010BDA0F10400F5E710B500228260044AFB
:10506000C16002F108043C320460426010BD00BF20
:105070004C7E0108704701F056BE000010B5044692
:1050800001F082FE014B2360204610BDB47E010872
:1050900010B5044B044640F8D03B09F053FD2046C0
:1050A00010BD00BFEC82010810B50446FFF7F0FF09
:1050B00020464FF4687111F071F8204610BD70471A
:1050C0007047704770477047704770477047A0F14E
:1050D0000400FBE7704710B51021044611F05EF89C
:1050E000204610BDA0F10400F5E7000010B5002235
:1050F0008260044AC16002F1080420320460426008
:1051000010BD00BFE47E01087047A0F10400FBE77A
:10511000704710B51021044611F040F8204610BD2C
:10512000A0F10400F5E78368C068596800F02AB868
:10513000A0F10400FFF7F7BF10B500228260044A17
:10514000C16002F1080424320460426010BD00BF57
:10515000287F010870477047704701F0F3BF10B512
:105160004FF40171044611F019F8204610BD0000FB
:1051700010B5044602F05AF8014B2360204610BDDA
:105180007C7F010810B50B460446064A052100F550
:10519000F4700EF073FD04F59E70BDE810400DF044
:1051A000FFBA00BF707F010810B5002202604260A4
:1051B0008260C2600261027502624262826280F8AD
:1051C0002C2080F82D2080F82E2080F82F2080F8C9
:1051D0003020582145241C4A41758175C1750176DE
:1051E000417680F831108476C47604774477136B67
:1051F00043F04C031363154B1A6822F040621A60A7
:105200001A6822F040721A6003F580531A6822F07F
:1052100030021A601A6822F0C0021A601A6822F47A
:1052200040221A600A4A116821F440611160116835
:1052300021F4407111601A6822F040621A601A6805
:1052400042F080621A6010BD00380240000802403F
:10525000000C024010B5C28A438B9A42044618D112
:10526000028B838B9A4214D190F82D30EBB90362F4
:1052700083629622FF2342628360006803689B6911
:105280009847206803685B699847012384F82D30AC
:1052900010BD96232362206800236362A362036823
:1052A0005B699847012384F82C3010BD002303620A
:1052B000436296238362006803685B69184738B5C8
:1052C00000259623044603624562856200680368F0
:1052D0005B699847206825610368DB689847582315
:1052E000A375E3752376637638BD000010B5C368F7
:1052F00001330446C36010219E4807F083F818B1BB
:10530000E368192B00F3E08120680368DB699847A4
:105310000023237594F83130582B06D0964A5369F0
:1053200043F40053536101232375E368192B40F3C1
:105330000782237D002B00F0038294F82D30002B90
:1053400040F0FE814FF400518C4807F05BF80028D4
:1053500000F0A281636820680133636003689B6882
:1053600098470421844807F04DF888B908218248FD
:1053700007F048F860B94FF400717F4807F042F831
:1053800030B920217B4807F03DF8002800F0A881C3
:105390000421794807F036F888B10821764807F0EB
:1053A00031F860B94FF40071734807F02BF830B949
:1053B0002021704807F026F8002800F0948104218D
:1053C0006D4807F01FF888B908216B4807F01AF8F4
:1053D00060B14FF40071684807F014F830B920212B
:1053E000644807F00FF8002800F08081042162482B
:1053F00007F008F888B108215F4807F003F860B1AA
:105400004FF400715C4806F0FDFF30B92021594887
:1054100006F0F8FF002800F06C810421564806F0E1
:10542000F1FF88B90821544806F0ECFF60B94FF449
:105430000071514806F0E6FF30B120214D4806F0DA
:10544000E1FF002800F0588104214B4806F0DAFF04
:1054500088B10821484806F0D5FF60B94FF40071C3
:10546000454806F0CFFF30B12021424806F0CAFF80
:10547000002800F0448104213F4806F0C3FF88B9AA
:1054800008213D4806F0BEFF60B14FF400713A4874
:1054900006F0B8FF30B12021364806F0B3FF0028EF
:1054A00000F030810421344806F0ACFF88B10821B7
:1054B000314806F0A7FF60B14FF400712E4806F0A6
:1054C000A1FF30B120212B4806F09CFF002800F0FE
:1054D0001C810421284806F095FF88B90821264838
:1054E00006F090FF60B94FF40071234806F08AFF80
:1054F00030B920211F4806F085FF002840F00881C0
:1055000004211D4806F07EFF88B108211A4806F0E4
:1055100079FF60B94FF40071174806F073FF30B996
:105520002021144806F06EFF002840F0F48004218A
:10553000114806F067FF88B908210F4806F062FF9E
:1055400060B14FF400710C4806F05CFF30B92021C7
:10555000084806F057FF002840F0E0800421064884
:1055600006F050FFC8B10821034806F04BFFA0B178
:1055700006E000BF000C0240001802400008024094
:105580004FF400716F4806F03DFF30B920216E489E
:1055900006F038FF002840F0C4800421694806F076
:1055A00031FF88B90821674806F02CFF60B94FF435
:1055B0000071644806F026FF30B12021624806F0F1
:1055C00021FF002840F0B08004215E4806F01AFF59
:1055D00088B108215B4806F015FF60B94FF40071EF
:1055E000584806F00FFF30B12021574806F00AFF57
:1055F000002840F09C800421524806F003FF88B93F
:105600000821504806F0FEFE60B14FF400714D488D
:1056100006F0F8FE30B120214B4806F0F3FE0028DA
:1056200040F088800421474806F0ECFE80B1082154
:10563000444806F0E7FE58B14FF40071414806F0C7
:10564000E1FE28B12021404806F0DCFE002874D19C
:1056500094F83130582B07D063752068582384F8AC
:10566000313003681B6A9847206803681B699847B4
:105670002369BBB9627DA275206801332361036889
:10568000DB6898472369042B20461AD1FFF7E2FD17
:105690000023E360237510BD2A4A536923F40053A5
:1056A00053615EE6012B02D1627DE275E4E7022BD5
:1056B00002D1627D2276DFE7032B04BF627D627632
:1056C000DAE7FFF7F3FDE3E794F82C302BB120463F
:1056D000FFF7F5FD002384F82C300123237513E632
:1056E0003023637554E63123637568E632236375AE
:1056F0007CE63323637590E634236375A4E6352393
:105700006375B8E636236375CCE637236375E0E648
:1057100038236375F4E63923637508E7412363751D
:105720001CE74223637538E7432363754CE7442342
:10573000637560E74523637574E74623637587E700
:1057400010BD00BF00180240000C024070477047B7
:1057500010B54FF4A871044610F020FD204610BD8E
:1057600010B50446D0F84C01FFF7C0FD2046BDE857
:1057700010400CF0DFBA10B50446D0F8340158B12F
:105780000368DB68984738B1D4F8340103689B6834
:1057900098470023C4F8343110BD000010B504460A
:1057A00002F02EFA014B2360204610BDB47F0108A1
:1057B00070B51E460368BDF910505B6B04469847F0
:1057C0002368314620469A6B904723682946204635
:1057D000DB6BBDE87040184781807047C18070471F
:1057E00070B503680446DB6A154698472368294666
:1057F00020461B6BBDE8704018470181704741810E
:10580000704770477047704770477047C38810B43F
:10581000D21A83885DF8044BC91A036812B25B6D13
:1058200009B218474FF6FF738381038443841368DA
:10583000C36110607047122070477047704790F83E
:1058400025201AB190F8242002B118607047012079
:1058500070470022028042808280C280704770B50B
:1058600003680446DB6A15469847236829462046A4
:105870005B6EBDE8704018470D2070470E207047E2
:105880007047704770477047704770477047704760
:105890007047704770477047704770477047704750
:1058A00000F542729142034669D000F56072914260
:1058B00002D10368DB6A184700F57E72914202D17B
:1058C00003681B6BF7E700F58E62914202D1036813
:1058D0005B6BF0E700F59D62914202D103689B6B20
:1058E000E9E700F5AC62914202D10368DB6BE2E7C5
:1058F00000F5BB62914202D103681B6CDBE700F547
:10590000CA62914202D103685B6CD4E700F5D962A8
:10591000914202D103689B6CCDE700F5E8629142A9
:1059200003D10268D26C1846104700F5F762914225
:1059300002D10268126DF6E700F50362914202D1CE
:105940000268526DEFE700F6A802914202D10268A8
:10595000926DE8E700F51262914202D10268D26DC1
:10596000E1E700F69812914202D10268126EDAE77E
:1059700000F52162914202D10268526ED3E770476E
:10598000704790F82C304BB100F16C021268C26580
:105990003BB100F174031B680366704700F16802B5
:1059A000F4E700F17003F6E770477047704710B4F2
:1059B000C2688368406812F0010F4FEA620218BFA4
:1059C0008458104418BFE3585DF8044B18474368E7
:1059D0002BB183682BB9C06800F0010070471846EE
:1059E00070470120704710B4C2688368406812F0A5
:1059F000010F4FEA620218BF8458104418BFE358E1
:105A00005DF8044B184743682BB183682BB9C06815
:105A100000F001007047184670470120704790F869
:105A20002D3080F85A30704710B53821044610F0F8
:105A3000B5FB204610BD10B57821044610F0AEFB32
:105A4000204610BD10B51021044610F0A7FB2046DB
:105A500010BD10B51021044610F0A0FB204610BD6B
:105A600070B50B7990F82C5004460E4683B985B179
:105A70003379012B1DD1206BD8B10368DB689847BF
:105A8000B8B1206B036821469B68BDE87040184799
:105A90007DB1B3FA83F35B0984F82C302368204688
:105AA000D3F888309847236820465B699847002DD3
:105AB000DED170BD00F5CA70884208B505D10CF082
:105AC00075FABDE8084002F0D1B808BD094A026085
:105AD00000228280C280028142818281C281028250
:105AE000428242618261C26180F82420012280F8F2
:105AF0002520704760A7010838B504460D46FFF71A
:105B0000E5FF094B23604FF6FF73E38484F82830E8
:105B1000204629460AF0E3FE044B236000236385F8
:105B2000A385204638BD00BF10A5010874A3010855
:105B300008B5094B1B682BB9084B094ACF21094806
:105B400011F014F9084B02881B889A4203DB074BBB
:105B5000034AD021F3E708BD50AB00202F81010894
:105B60009C8201087181010854AB0020D881010892
:105B700010B50446FFF7DCFF044B22881B6813F8BE
:105B80001220034B1B6853F8220010BD50AB0020BD
:105B900058AB002073B5036804461E6BC38C02A883
:105BA0000D4620F8043DFFF7E3FF0368DB6A9847E2
:105BB000291A09B22046B04702B070BD10B504469C
:105BC000FFF7B6FF024B22881B6853F8220010BD76
:105BD0009C0B002010B5C28C4FF6FF739A4204460E
:105BE00009D02630FFF7EAFF626B01462046BDE888
:105BF00010400AF08BBD002010BD00002DE9F04FD1
:105C0000C68C4FF6FF739E428FB004460F464BD0B2
:105C100000F126052846FFF7ABFF8046002843D059
:105C20002846FFF785FF224B94F82EA01B68B4F896
:105C30002C9094F830B003EB460328465E78C6F308
:105C400001020592FFF774FFA36A0B93194B94F8B6
:105C50002F001B6894F83110059A8DF83300C6F3B5
:105C600081068DF8296007AE8DF834108DF832A0CA
:105C70002146ADF8309030468DF82820CDF82480AC
:105C80008DF82AB0D3F808800CF034FE2846FFF7D0
:105C900095FF636B029309AB0190009396E80600B1
:105CA0003B4640460AF04AFF0FB0BDE8F08F00BF08
:105CB00050AB0020F0AA00202DE9F041C78C4FF630
:105CC000FF739F4204461BD000F126052846FFF7CC
:105CD0004FFF06462846FFF72BFF2846FFF76EFFCB
:105CE000094B1B6803EB4703024659783368DD69AB
:105CF000636B3046AC46C1F38101BDE8F0416047BB
:105D00000020BDE8F08100BF50AB002010B5044674
:105D1000FFF7DCFE084B23604FF6FF720023E2849E
:105D2000A362A38584F82E2084F82F3084F83030C5
:105D300084F83130204610BD8CA2010810B504460D
:105D4000FFF7E4FF024B236000236363204610BD8E
:105D5000F07F0108F8B504462646FFF7B7FE012399
:105D6000002584F82430FF27114BA56284F82C50BD
:105D700084F82D70256346F8343B3046FFF7A6FEC5
:105D80000C4B63632A462946304684F85A70E56511
:105D9000256684F86450A566E56625676567FFF7A4
:105DA0001FFD2046314608F08DFD2046F8BD00BF9E
:105DB0006C800108A4A4010810B40367019B436729
:105DC00003688166C266D3F888305DF8044B1847D3
:105DD0002DE9F04F0546B1B030AE0CF0FDFF2A467C
:105DE00000244FF6FF78DD4B26F8048DEC6342F873
:105DF000403B314610460392FFF77EFE05F17003EB
:105E0000314618460493ADF8BC80FFF775FE05F1E6
:105E1000A00305F1D40B18460A93FFF777FF584605
:105E200008F0D6FA05F5CA7318460B93FFF74EFE35
:105E3000012385F8B831CA4BC5F8943105F5E473F0
:105E4000C5F8BC4185F8C041A5F8C281A5F8C48158
:105E500085F8C68118460593ADF8BC80FFF736FE7D
:105E6000C04BC5F8C8313146A5F8EE8185F8F08100
:105E700005980AF034FD05F5FA7318460C93FFF700
:105E800045FF05F50A7318460693FFF757FF05F51A
:105E9000187318460793FFF751FF05F52673184648
:105EA0000893FFF74BFF05F5347318460993FFF786
:105EB00045FF05F5427318460D93FFF74BFF05F5B7
:105EC000607318460E93FFF745FF05F57E7318467D
:105ED0000F93FFF73FFF05F58E6318461093FFF70A
:105EE00039FF05F59D6318461193FFF733FF05F55C
:105EF000AC6318461293FFF72DFF05F5BB631846F8
:105F00001393FFF727FF05F5CA6318461493FFF7AD
:105F100021FF05F5D96318461593FFF71BFF05F51B
:105F2000E86318461693FFF715FF05F5F763184663
:105F30001793FFF70FFF05F5036318461893FFF754
:105F400009FF05F6A80318461993FFF703FF05F5A7
:105F5000126318461A93FFF7FDFE05F698131846CC
:105F60001B93FFF7F7FE05F5216318461C93FFF717
:105F7000F1FE05F6882318461D93FFF7C7FE05F6C8
:105F8000BC2318461E93FFF7C1FE05F52F63184684
:105F90001F93FFF7BBFE05F6243318462093FFF747
:105FA000B5FE05F6583318462193FFF7AFFE05F608
:105FB0008C3318462293FFF7A9FE05F53C6318467B
:105FC0002393FFF7A3FE05F6F43318462493FFF757
:105FD0009DFE05F6284318462593FFF797FE05F624
:105FE0005C4318462693FFF791FE05F54963184672
:105FF0002793FFF78BFE05F6C44318462893FFF757
:1060000085FE05F6F84318462993FFF77FFE05F64F
:106010002C5318462A93FFF779FE05F55663184668
:106020002B93FFF773FE05F6945318462C93FFF756
:106030006DFE4D4BC5F8F83D4C4BC5F8003E4C4B42
:10604000C5F8083E4B4BC5F8044E4FF00608C5F89E
:10605000103EC5F8144E31460398C5F8FC5DC5F8EE
:106060000C5EADF8BC800AF0CEF84FF4A07300933C
:106070002246F02321460398FFF79AFB2246214649
:1060800003980AF09EF84FF0040931460498ADF8E1
:10609000BC900AF0B8F86B2300930498DF236FF0EC
:1060A00001020921FFF784FB2246214604980AF0E9
:1060B00088F80A980C222121FF27FFF791FBFE2286
:1060C000114638460DF0E8FDA5F8CC40C5F8C800EB
:1060D00021460A9809F0ECFF58464D221E21FFF791
:1060E0007FFB02221023009311465846B42308F088
:1060F000A7F94A46234600942146584608F0A2FADA
:106100002146584608F0FCF9022331465846ADF8BE
:10611000BC3008F08CFA8D22562140460DF0BCFDB3
:106120000146584608F034F92146584608F0A0F9CF
:106130000B98DFF844906FF00502BB21FFF750FB8E
:106140004FF0090A32462EA90B98ADF8B8A0ADF869
:10615000BCA00AF018FA05F6F8530FE034820108E3
:10616000FCA3010810A5010804810108B55A000824
:106170001C810108A15800082C810108C5F8BC3118
:1061800085F8C6416FF001020598C921FFF728FB89
:106190000E2331460598ADF8BC300AF0A0FB0C98F0
:1061A00093222121FFF71CFB3A46394638460DF071
:1061B00073FDA5F82042C5F81C0285F822420C9810
:1061C0004FF0050109F074FF069867222821FFF7B8
:1061D00007FB3A46394638460DF05EFD05F6C853D2
:1061E000C5F85002A5F854422D9330460723ADF868
:1061F000BC30FFF7E3FC4A46414603462D980DF0BC
:106200003DFD2D9BC5F85C32069809F027FF4146FD
:10621000069809F04DFF079867225A21FFF7E0FA28
:106220003A46394638460DF037FD05F6D453C5F8E1
:106230008802A5F88C4230462D93ADF8BCA0FFF73C
:10624000BDFC4A46414603462D980DF017FD2D9B97
:10625000C5F89432079809F001FF07984FF008013C
:1062600009F026FF089867228921FFF7B9FA3A4614
:10627000394638460DF010FDA5F8C442C5F8C002F5
:106280000B233046ADF8BC30FFF798FC05F55E6A8D
:1062900003464A46414650460DF0F0FCC5F8CCA2F4
:1062A000089809F0DBFE08984FF00A0109F000FF9A
:1062B00009986722B921FFF793FA3A4639463846DA
:1062C0000DF0EAFCA5F8FC42C5F8F8020D233046B3
:1062D000ADF8BC30FFF772FC05F6EC5703464A46B2
:1062E000414638460DF0CAFCC5F8047309982326C8
:1062F00009F0B4FE09984FF00C0109F0D9FE3346BD
:106300002246214605F54F700096FFF751FA85F8B1
:106310006C439922662120460DF0BEFCCC22074634
:10632000992120460DF0B8FC662280463321204694
:106330000DF0B2FC99228146662133200DF0ACFCB1
:106340004B460090424639460D98FFF735FD3346DF
:106350000D98009640F21D124F21FFF729FA33469F
:106360002246214605F56D700096FFF721FA85F863
:10637000E4439922662120460DF08EFCCC2207468C
:10638000992120460DF088FC662280463321204664
:106390000DF082FC99228146662133200DF07CFCB1
:1063A0004B460090424639460E9805F60867FFF7BF
:1063B00003FD33460E98009687221B21FFF7F8F95C
:1063C00033462246214605F22C40C5F8B0730096AC
:1063D000FFF7EEF985F85C449922662120460DF01E
:1063E0005BFCCC228046992120460DF055FC6622AC
:1063F0008146332120460DF04FFC992282466621CA
:1064000033200DF049FC534600904A4641460F9810
:10641000FFF7D2FC33460F98009687224F21FFF7F3
:10642000C7F933462246214605F2A440C5F8287430
:106430000096FFF7BDF985F8D444992266212046DD
:106440000DF02AFCCC228046992120460DF024FC38
:1064500066228146332120460DF01EFC9922824699
:10646000662133200DF018FC534600904A46414601
:106470001098FFF7A1FC33461098009687228221DE
:10648000FFF796F933462246214605F21C50C5F81F
:10649000A0740096FFF78CF985F84C459922662187
:1064A00020460DF0F9FBCC228046992120460DF0C4
:1064B000F3FB66228146332120460DF0EDFB992245
:1064C0008246662133200DF0E7FB534600904A4692
:1064D00041461198FFF770FC334611980096B92297
:1064E0001B21FFF765F933462246214605F29450F9
:1064F000C5F818750096FFF75BF985F8C445992231
:10650000662120460DF0C8FBCC228046992120460A
:106510000DF0C2FB66228146332120460DF0BCFB04
:1065200099228246662133200DF0B6FB5346009037
:106530004A4641461298FFF73FFC334612980096B0
:10654000B8224F21FFF734F933462246214605F29F
:106550000C60C5F890750096FFF72AF985F83C465F
:106560009922662120460DF097FBCC228046992186
:1065700020460DF091FB66228146332120460DF026
:106580008BFB99228246662133200DF085FB534612
:1065900000904A4641461398FFF70EFC3346139885
:1065A0000096B9228221FFF703F93346224621469D
:1065B00005F28460C5F808760096FFF7F9F885F8CB
:1065C000B4469922662120460DF066FBCC22804617
:1065D000992120460DF060FB66228146332120463A
:1065E0000DF05AFB99228246662133200DF054FBB0
:1065F000534600904A4641461498FFF7DDFB334668
:1066000014980096EB221B21FFF7D2F8334622465E
:10661000214605F2FC60C5F880760096FFF7C8F8C1
:1066200085F82C479922662120460DF035FBCC22B7
:106630008046992120460DF02FFB662281463321AA
:1066400020460DF029FB99228246662133200DF069
:1066500023FB534600904A4641461598FFF7ACFB92
:10666000334615980096EB224F21FFF7A1F83346E9
:106670002246214605F27470C5F8F8760096FFF7B9
:1066800097F885F8A4479922662120460DF004FB6F
:10669000CC228046992120460DF0FEFA66228146E2
:1066A000332120460DF0F8FA9922824666213320E4
:1066B0000DF0F2FA534600904A4641461698FFF70D
:1066C0007BFB4FF02208334616980096EB2282217E
:1066D000FFF76EF83346CDF800802246214605F2DA
:1066E000EC70C5F87077FFF763F885F81C489922BD
:1066F000662120460DF0D0FACC2281469921204611
:106700000DF0CAFA66228246332120460DF0C4FA03
:1067100099222D90662133200DF0BEFA2D9B00901A
:10672000524649461798FFF747FBCDF8008033469D
:10673000179840F21D121B21FFF73AF83346224604
:10674000214605F66400C5F8E8770096FFF730F8B3
:1067500085F894489922662120460DF09DFACC22B6
:106760008046992120460DF097FA66228146332112
:1067700020460DF091FA99228246662133200DF0D1
:106780008BFA534600904A4641461898FFF714FB8F
:1067900033461898009640F21D128221FFF708F840
:1067A00033462246214605F6DC00C5F8607800969F
:1067B000FEF7FEFF85F80C499922662120460DF070
:1067C0006BFACC228046992120460DF065FA6622AC
:1067D0008146332120460DF05FFA992282466621D8
:1067E00033200DF059FA534600904A464146199815
:1067F000FFF7E2FA33461998009640F21D12B221D3
:10680000FEF7D6FF33462246214605F65410C5F85A
:10681000D8780096FEF7CCFF85F884499922662146
:1068200020460DF039FACC228046992120460DF001
:1068300033FA66228146332120460DF02DFA992243
:106840008246662133200DF027FA534600904A46CF
:1068500041461A98FFF7B0FA33461A980096EB2291
:10686000B221FEF7A5FF33462246214605F6CC109D
:10687000C5F850790096FEF79BFF85F8FC499922F0
:10688000662120460DF008FACC2280469921204648
:106890000DF002FA66228146332120460DF0FCF904
:1068A00099228246662133200DF0F6F95346009076
:1068B0004A4641461B98FFF77FFA33461B980096DD
:1068C000B922B221FEF774FF33462246214605F66F
:1068D0004420C5F8C8790096FEF76AFF85F8744A27
:1068E0009922662120460DF0D7F9CC2280469921C5
:1068F00020460DF0D1F966228146332120460DF065
:10690000CBF999228246662133200DF0C5F9534612
:1069100000904A4641461C98FFF74EFA33461C98B1
:1069200000968722B221FEF743FF1D98C5F8407AF2
:106930008B222521FEF754FF22462146FF200DF031
:10694000ABF9A5F8B44AC5F8B00A4FF011011D988B
:1069500009F0AEFB1E988B225921FEF741FF22461B
:106960002146FF200DF098F9A5F8E84AC5F8E40A99
:106970004FF012011E9809F09BFB1F988B228C216F
:10698000FEF72EFF22462146FF200DF085F9A5F8DF
:106990001C4BC5F8180B4FF013011F9809F088FB2A
:1069A0002098BC222521FEF71BFF22462146FF200E
:1069B0000DF072F9A5F8504BC5F84C0B4FF01401CF
:1069C000209809F075FB2198BA225A21FEF708FF9A
:1069D00022462146FF200DF05FF9A5F8844BC5F84B
:1069E000800B4FF01501219809F062FB2298EE22EE
:1069F0002521FEF7F5FE22462146FF200DF04CF939
:106A0000A5F8B84BC5F8B40B4FF01601229809F061
:106A10004FFB2398EE225A21FEF7E2FE2246214642
:106A2000FF200DF039F9A5F8EC4BC5F8E80B4FF055
:106A30001701239809F03CFB2498BB228C21FEF718
:106A4000CFFE22462146FF200DF026F9A5F8204C66
:106A5000C5F81C0C4FF01801249809F029FB259863
:106A6000BC22BD21FEF7BCFE22462146FF200DF0D0
:106A700013F9A5F8544CC5F8500C4FF0190125989E
:106A800009F016FB26988B22BD21FEF7A9FE2246AF
:106A90002146FF200DF000F9A5F8884CC5F8840CBC
:106AA0004FF01A01269809F003FB2798ED228D215B
:106AB000FEF796FE22462146FF200DF0EDF8A5F8E0
:106AC000BC4CC5F8B80C4FF01B01279809F0F0FA40
:106AD0002898EE22BB21FEF783FE22462146FF20A6
:106AE0000DF0DAF8A5F8F04CC5F8EC0C4FF01C01ED
:106AF000289809F0DDFA314629984FF48F72FEF795
:106B00006FFE22462146FF200DF0C6F8A5F8244D61
:106B1000C5F8200D4FF01D01299809F0C9FA2A98EF
:106B200040F21F12BB21FEF75BFE22462146FF20EA
:106B30000DF0B2F8A5F8584DC5F8540D4FF01E01F0
:106B40002A9809F0B5FA2B984FF490728D21FEF730
:106B500047FE22462146FF200DF09EF8A5F88C4DF9
:106B6000C5F8880D4FF01F012B9809F0A1FA2C9859
:106B70004FF490725A21FEF733FE22462146FF2041
:106B80000DF08AF8A5F8C04DC5F8BC0D2C1D2C9849
:106B90004FF0200109F08CFA0399204607F092FE8D
:106BA0000499204607F08EFE0A99204607F08AFED7
:106BB0005946204607F086FE0B99204607F082FED4
:106BC0000599204607F07EFE0C99204607F07AFED4
:106BD0000699204607F076FE0799204607F072FED8
:106BE0000899204607F06EFE0999204607F06AFED4
:106BF0000D99204607F066FE0E99204607F062FECA
:106C00000F99204607F05EFE1099204607F05AFEC5
:106C10001199204607F056FE1299204607F052FEC1
:106C20001399204607F04EFE1499204607F04AFEBD
:106C30001599204607F046FE1699204607F042FEB9
:106C40001799204607F03EFE1899204607F03AFEB5
:106C50001999204607F036FE1A99204607F032FEB1
:106C60001B99204607F02EFE1C99204607F02AFEAD
:106C70001D99204607F026FE1E99204607F022FEA9
:106C80001F99204607F01EFE2099204607F01AFEA5
:106C90002199204607F016FE2299204607F012FEA1
:106CA0002399204607F00EFE2499204607F00AFE9D
:106CB0002599204607F006FE2699204607F002FE99
:106CC0002799204607F0FEFD2899204607F0FAFD97
:106CD0002999204607F0F6FD2A99204607F0F2FD93
:106CE0002B99204607F0EEFD20462C9907F0EAFD8F
:106CF000284631B0BDE8F08F10B5044B044640F88B
:106D0000D43B07F051FB204610BD00BF3482010880
:106D100010B50446FFF7F0FF204640F618610FF06B
:106D20003DFA204610BD7047704710B4C2688368B2
:106D3000406812F0010F4FEA620218BF84581044F5
:106D400018BFE3585DF8044B184743682BB18368BC
:106D50002BB9C06800F00100704718467047012049
:106D6000704710B5102104460FF018FA204610BDE8
:106D70007030884208B505D10BF018F9BDE808401D
:106D800000F084BF08BD00002DE9F04F04468FB02D
:106D9000A04600250EAF0CF01FF8D74BE5634FF669
:106DA000FF7648F8403B27F8046DDFF860934046D3
:106DB000FEF78CFE3946C4F84090A4F8666084F86B
:106DC0006860404609F08BFDCC4B236404F17003EE
:106DD000A4F86A50A4F86C5018460693FEF776FEA5
:106DE000012384F89430C64B236704F1A4031846AA
:106DF000C4F8985084F89C50A4F89E60A4F8A06051
:106E000084F8A2600393ADF83460FEF75FFE394664
:106E1000C4F8A490A4F8CA6084F8CC600398DFF8A2
:106E2000F09204F1D00609F05AFD04F5E47A3046F8
:106E300007F0D2FF04F5FA7B5046FEF747FEC4F890
:106E4000C891C4F8F051584609F05AF804F50B738C
:106E500018460793FEF75AFF04F518731846049373
:106E6000FEF734FE04F52373C4F86092C4F8885228
:106E70001846089309F044F804F53173184609934D
:106E8000FEF744FF04F53E7318460593FEF71EFE19
:106E900004F54973C4F8F892C4F8205318460A93CD
:106EA00009F02EF804F5577318460B93FEF72EFFE2
:106EB000944BC4F89033944BC4F89833C4F89C5363
:106EC0004FF0050939464046C4F89443ADF8349074
:106ED00009F099F94FF4A07300932A46F02329464C
:106EE0004046FEF765FC2A462946404609F069F906
:106EF00049460698FE22FEF773FC0A23ADF83030AF
:106F00003A460B230CA90698ADF8343009F03BFB48
:106F100004F56473C4F8983040F205120398112107
:106F2000FEF75EFC0C2339460398ADF8343009F0C7
:106F3000D6FC294630465622FEF752FC9423009395
:106F40002A46F12329465046FEF732FC4FF0080945
:106F500058466E227121FEF743FC4FF007033A4674
:106F60000CA95846A4F82892ADF83030ADF834900A
:106F700009F009FB5946504607F0A4FC079829225E
:106F80003221FEF72DFC2A46294628460CF084FEC5
:106F90004FF0100BC4F85402A4F858525946079801
:106FA00009F086F80799504607F08CFC51463046A8
:106FB00007F0B4FF942300932A46F123294604984E
:106FC000FEF7F6FB08986E227121FEF709FC4FF0E0
:106FD00007033A460CA90898A4F8C092ADF83030DF
:106FE000ADF8349009F0CFFA0899049807F06AFCDC
:106FF000099829223221FEF7F3FB2A462946284622
:107000000CF04AFEA4F8F052C4F8EC024FF00F0165
:10701000099809F04DF80999049807F053FC049970
:10702000304607F07BFF942300932A46F12329463C
:107030000598FEF7BDFB0A986E226F21FEF7D0FB84
:107040004FF007033A460CA90A98A4F85893ADF8F4
:107050003030ADF8349009F096FA0A99059807F0A7
:1070600031FC0B9829223221FEF7BAFB2A46294629
:1070700028460CF011FEA4F88853C4F884034FF09E
:107080000E010B9809F014F80B99059807F01AFCFB
:107090000599304607F042FF11233A460CA93046C5
:1070A000ADF83030ADF834B007F096FF2A462946E7
:1070B000304607F0C3FD3046322107F038FD304638
:1070C0003221251D07F0B8FD3046022107F0E0FE11
:1070D0004146284607F0F6FB0699284607F0F2FBE2
:1070E0000399284607F0EEFB2846314607F0EAFBF5
:1070F00020460FB0BDE8F08FEC82010874A30108B0
:10710000FCA30108D4820108716D000810A50108D4
:107110009898010810B5044B044640F8D03B07F09E
:1071200011FD204610BD00BFEC82010810B50446D9
:10713000FFF7F0FF20464FF468710FF02FF820465C
:1071400010BD704770477047704710B4C2688368BD
:10715000406812F0010F4FEA620218BF84581044D1
:1071600018BFE3585DF8044B184743682BB1836898
:107170002BB9C06800F00100704718467047012025
:10718000704781877047808F70470368D3F88030DD
:10719000184790F83800704710B54C2104460EF09F
:1071A000FDFF204610BD10B5102104460EF0F6FF7D
:1071B000204610BD10B54FF4017104460EF0EEFFED
:1071C000204610BD00F17002914210B504D1036851
:1071D000BDE81040DB6A184700F1A802914205D1D2
:1071E0000AF0E4FEBDE8104000F060BD00F5C47395
:1071F000994205D10AF0DAFEBDE8104000F066BD04
:1072000010BD000038B504460D46FEF75FFC064B86
:1072100023604FF6FF732046E38484F82830294624
:1072200009F05DFB204638BD10A501082DE9F04F9F
:1072300004468BB00AAE274600254FF6FF7B0BF0C5
:10724000CBFDAE4B26F804BDE56347F8403B314625
:107250003846FFF7D7FFAA4B236404F17003A4F864
:107260006A50A4F86C501846029308F049FE04F1E5
:10727000A80318464FF001090393DFF89CA2FEF71C
:1072800025FC04F1DC03C4F8D05084F8D450C4F8D1
:10729000A8A0A4F8D6B0A4F8D8B084F8DAB084F8DE
:1072A000CC9018460493FEF711FC964BC4F8DC30E2
:1072B00004F5887304F59E783146A4F802B1C4F849
:1072C0000451A4F8085184F80AB184F80B5184F8E9
:1072D0000C5184F80D5118460593ADF824B0FFF712
:1072E00091FF4046FEF7F2FB874BC4F83C3104F5B2
:1072F000C473A4F862B1C4F86451A4F8685184F866
:107300006AB184F86B5184F86C5184F86D51C4F8FB
:10731000705184F87451A4F87651A4F87851C4F8E7
:10732000845118460693FEF7D1FBC4F888A104F5F2
:10733000DE7AC4F8B05184F8B451A4F8B6B1A4F818
:10734000B8B184F8BAB1314684F8AC915046ADF882
:1073500024B0FFF757FF6D4BC4F8F4316C4BC4F801
:10736000FC31C4F800524FF0030331463846C4F8EC
:10737000F841ADF8243008F046FF4FF4A0730093B5
:107380002A46F02329463846FEF712FA2A462946AD
:10739000384608F016FF0298D1223821FEF720FA6D
:1073A0000723ADF820300823A4F8A43004F5FA7BB5
:1073B00084F89550324608A90298ADF8243009F0B7
:1073C000E2F80398C4F898B0F3221321FEF708FA04
:1073D000324608A90398ADF82050ADF8249009F082
:1073E000D2F80498C4F8D0B010221C21FEF7F8F9A6
:1073F000E4229C2115200CF04FFCA4F80851C4F89D
:1074000004014946049808F053FE40F20112059821
:107410002021FEF7E5F90F2331460598ADF8243019
:1074200009F05DFA404651222A21FEF7D9F9E422FB
:107430009C2115200CF030FC04F5F473C4F86401B1
:10744000A4F8685184F86A51079330460423ADF8D4
:107450002430FEF7B3FB2F4A0346052107980CF0B2
:107460000DFC079BC4F87031404608F0F7FD40461C
:107470004FF0030108F01CFE0698F322A021FEF74E
:10748000AFF9324608A90698ADF82050ADF824901F
:1074900009F079F84FF480725046C4F8B0B1AF21CA
:1074A000FEF79EF9251D0D2331465046ADF82430D8
:1074B00009F015FA3946284607F004FA02992846D9
:1074C00007F000FA0399284607F0FCF904992846CA
:1074D00007F0F8F90599284607F0F4F941462846DF
:1074E00007F0F0F90699284607F0ECF928465146CE
:1074F00007F0E8F920460BB0BDE8F08FC48301081F
:1075000074A301088CA2010820830108AC83010840
:10751000C57100082C810108FCA3010870B590F822
:1075200038300446002B3CD0408FA18F884202DACD
:107530000130608770BDE38F5A18904215D8B4F8B7
:107540004050B4F84220401A521B12B20021656C20
:1075500080B2A84794F84030184484F82E002046A2
:107560000BF01EF9638F01336387A38FE18F628F66
:107570000B449A4215D9002384F83830E3870AF087
:1075800015FD21460AF048FDA06C50B10368DB6888
:10759000984730B1A06C036821469B68BDE87040F5
:1075A000184770BD08B5FFF7B9FF08BD70B590F872
:1075B000742100250446C0F8845100F59E7622B956
:1075C0000AF0F4FC31460AF0F7FC94F86A31A4F8AA
:1075D0007C31FF23A4F87E313023A4F87A31074BA5
:1075E000C4F88031012384F87431D4F87831A4F8D8
:1075F000765113B93046FFF791FF70BDC9310108CC
:1076000070477047416070477047704701230372AD
:1076100070477047704770477047704770474368BE
:107620001A6800F12801926E184610471FB50A4BE0
:1076300004468DE818001823029340680123039341
:1076400003686946DB6F98476068036804F12801A6
:107650005B6E984704B010BD1C85010870470000A0
:1076600010B5064AB2F90040054A8480B2F900100C
:10767000C18000220280428010BD00BFE4AA002029
:10768000E6AA002010B4C2688368406812F0010FB7
:107690004FEA620218BF8458104418BFE3585DF8DF
:1076A000044B184743682BB183682BB9C06800F0BE
:1076B00001007047184670470120704770474368C3
:1076C0001A6800F12801926E184610471FB50A4B40
:1076D00004468DE8180018230293406801230393A1
:1076E00003686946DB6F98476068036804F1280106
:1076F0005B6E984704B010BD7084010870470000AD
:1077000010B5064AB2F90040054A8480B2F900106B
:10771000C18000220280428010BD00BFE4AA002088
:10772000E6AA002010B4C2688368406812F0010F16
:107730004FEA620218BF8458104418BFE3585DF83E
:10774000044B184743682BB183682BB9C06800F01D
:10775000010070471846704701207047C26883686F
:10776000406812F0010F4FEA620218BF81581044BE
:1077700018BFCB58184743682BB183682BB9C06832
:1077800000F001007047184670470120704710B59F
:107790000C2104460EF002FD204610BD10B54FF43A
:1077A000A87104460EF0FAFC204610BD10B5102159
:1077B00004460EF0F3FC204610BD10B52821044607
:1077C0000EF0ECFC204610BD10B5282104460EF04A
:1077D000E5FC204610BD10B5502104460EF0DEFC3D
:1077E000204610BD10B5102104460EF0D7FC2046EF
:1077F00010BD10B5502104460EF0D0FC204610BD3F
:1078000010B5102104460EF0C9FC204610BD70B51D
:1078100016460C4605460AF0C9FB0AF014FC30680F
:1078200010B10368DB689847306810B103681B68C3
:107830009847286810B103685B699847206810B1C1
:1078400003685B689847286810B103681B6898470D
:10785000206820B10368BDE870409B68184770BD80
:1078600070B503680E46DB681446054698473368D2
:1078700030461B689847214628460BF02BFC2368AE
:1078800020461B6998470AF091FB0368BDE87040E9
:107890009B6A184710B4034608461A7F032A12D879
:1078A000DFE802F00B0B02020268B3F92210546DFC
:1078B000002223465DF8044B184702680021546DEE
:1078C000B3F92220F5E701221A725DF8044B7047E4
:1078D00010B4034608461A7F032A12D8DFE802F0E4
:1078E0000B0B02020268B3F92210546D00222346EA
:1078F0005DF8044B184702680021546DB3F922204B
:10790000F5E701221A725DF8044B7047034B1A88A1
:10791000036852425B6D12B200211847E6AA0020AC
:1079200010B4027F0B46032A22D8DFE802F0151AB2
:10793000020D11491A68B1F90010546D0022184661
:1079400023465DF8044B18470B4A11881A684942D0
:10795000546D09B20022F2E718465DF8044BFFF7B8
:10796000D5BF1A68546D054A0021B2F90020E6E738
:107970005DF8044B704700BFE4AA0020E6AA00208F
:1079800010B4027F0B46032A22D8DFE802F0151A52
:10799000020D11491A68B1F90010546D0022184601
:1079A00023465DF8044B18470B4A11881A68494270
:1079B000546D09B20022F2E718465DF8044BFFF758
:1079C000A5BF1A68546D054A0021B2F90020E6E708
:1079D0005DF8044B704700BFE4AA0020E6AA00202F
:1079E000F0B50446807F637F0130C0B2984287B013
:1079F000A07730DCB4F9202000210BF0BBFB82B271
:107A000012F001032DD04FF6FF710028D8BF0B46AE
:107A100013446384B4F92220A38CA284D31AA27FD6
:107A20009BB219B2012A618440D12D4A1278002AF2
:107A30003CD00022ADF80820ADF80A20ADF80C20AB
:107A4000ADF80E20227F274E274D032A12D8DFE8FB
:107A500002F039410A34012323720023A37707B0CF
:107A6000F0BD6084D6E732881344ADF80C302B8823
:107A7000ADF80E301D4F386803689B6A984732880E
:107A8000ADF814202A88ADF816203A6800239568CE
:107A9000ADF81030ADF812302A680193FF2300933F
:107AA0001669014602AB04AA2846B047606803681D
:107AB00004F10C01DB6F9847D1E73288ADF808106C
:107AC000D31AD2E73288ADF80C202A88ADF80A1014
:107AD000D31ACDE73288ADF80C202A881344C7E7C3
:107AE000EEAA0020E4AA0020E6AA0020F0AA0020C6
:107AF000F0B50446807F637F0130C0B2984287B002
:107B0000A07730DCB4F9202000210BF033FB82B2E7
:107B100012F001032DD04FF6FF710028D8BF0B469D
:107B200013446384B4F92220A38CA284D31AA27FC5
:107B30009BB219B2012A618440D12D4A1278002AE1
:107B40003CD00022ADF80820ADF80A20ADF80C209A
:107B5000ADF80E20227F274E274D032A12D8DFE8EA
:107B600002F039410A34012323720023A37707B0BE
:107B7000F0BD6084D6E732881344ADF80C302B8812
:107B8000ADF80E301D4F386803689B6A98473288FD
:107B9000ADF814202A88ADF816203A6800239568BD
:107BA000ADF81030ADF812302A680193FF2300932E
:107BB0001669014602AB04AA2846B047606803680C
:107BC00004F10C01DB6F9847D1E73288ADF808105B
:107BD000D31AD2E73288ADF80C202A88ADF80A1003
:107BE000D31ACDE73288ADF80C202A881344C7E7B2
:107BF000EEAA0020E4AA0020E6AA0020F0AA0020B5
:107C000070B504460D4616460AF036FA0C4BC4F819
:107C100048611C600B4B236000200B4BC4F8300103
:107C2000C4F83401C4F83C01C4F84001C4F844016C
:107C3000C4F83831C4F84C5100F03CFC204670BD0B
:107C40004CAB002014840108FC830108064BC0F8EB
:107C500040310023C0F8443100F59C73C0F83C016A
:107C6000C0F83431704700BFD17D0008064BC0F822
:107C700040310023C0F8443100F59C73C0F83C014A
:107C8000C0F83431704700BF497F0008064BC0F888
:107C900040310023C0F8443100F59C73C0F83C012A
:107CA000C0F83431704700BFBD810008064BC0F8F2
:107CB00040310023C0F8443100F59C73C0F83C010A
:107CC000C0F83431704700BFB9820008064BC0F8D5
:107CD00040310023C0F8443100F59C73C0F83C01EA
:107CE000C0F83431704700BF4580000803685B6A04
:107CF000184703685B6A18472DE9F047804690688B
:107D0000089F9A4603681B6A894614469847B0F54F
:107D1000017F05D2284B294AC22129480FF026F8B5
:107D2000606803681B6A98470F2803D8254B234ACD
:107D3000C321F2E7E06803681B6A98470B2803D861
:107D4000214B1E4AC421E8E7524649464046FFF708
:107D50005EFDE068036800215B6A9847054620B134
:107D6000002343600372194B03600021A068FFF7F2
:107D7000BDFF064608B1FDF7FBF960680021FFF77B
:107D8000B8FF044610B13146FDF7D6F9CAF80050E5
:107D9000C9F80040C8F800605CB1231D3B60304664
:107DA000A7602A46F4632146FFF75AFD2046BDE846
:107DB000F0872346F2E700BFC0850108FB87010872
:107DC0004E860108B58601085887010850840108CD
:107DD00007B5D0F84C310093D0F84821044B00F59A
:107DE00098710448FFF788FF03B05DF804FB00BFFB
:107DF00048AB002044AB00201A4B13B50360044687
:107E0000194BC36000221C2342600272206143614F
:107E10000123836184F84D30144BA362144B6177C6
:107E20001B88A2775942218412496284B1F900105B
:107E3000009102202077A28404F12800A285E28527
:107E400022866286A286E28622876287E2632264B5
:107E5000626484F84C201BB21146FDF7A9FC204651
:107E600002B010BDA08501081C85010834850108F9
:107E7000E4AA0020E6AA00202DE9F0478046906899
:107E8000089F9A4603681B6A894614469847B0F5CE
:107E9000017F05D2274B284AC22128480EF066FFF1
:107EA000606803681B6A98470F2803D8244B224A4E
:107EB000C321F2E7E06803681B6A98474F2803D89C
:107EC000204B1D4AC421E8E7524649464046FFF789
:107ED0009EFCE068036800215B6A9847064610B183
:107EE0001421FFF789FF0021A068FFF7FFFE054678
:107EF00008B1FDF73DF960680021FFF7FAFE04467E
:107F000010B12946FDF718F9CAF80060C9F8004019
:107F1000C8F800505CB1231D3B602846A76032467C
:107F2000EC632146FFF79CFC2046BDE8F087234622
:107F3000F2E700BFC0850108FF8801084E860108EE
:107F4000B58601085887010807B5D0F84C31009371
:107F5000D0F84821044B00F598710448FFF78CFFD6
:107F600003B05DF804FB00BF48AB002044AB002029
:107F70002DE9F04780469068089F9A4603681B6A7F
:107F8000894614469847B0F5687F05D2284B294AA0
:107F9000C22129480EF0EAFE606803681B6A984710
:107FA0000F2803D8254B234AC321F2E7E068036872
:107FB0001B6A98474F2803D8214B1E4AC421E8E783
:107FC000524649464046FFF722FCE068036800211C
:107FD0005B6A9847064610B11421FFF70DFFA068B1
:107FE000036800215B6A9847054608B1FDF746F82B
:107FF0006068036800215B6A9847044610B129460F
:10800000FDF774F8CAF80060C9F80040C8F80050DD
:108010005CB1231D3B602846A7603246EC632146D5
:10802000FFF71EFC2046BDE8F0872346F2E700BFBD
:10803000C0850108658C01084E860108B5860108D7
:108040005887010807B5D0F84C310093D0F8482183
:10805000044B00F598710448FFF78AFF03B05DF800
:1080600004FB00BF48AB002044AB00201A4B13B503
:1080700003600446194BC36000221C234260027255
:10808000206143610123836184F84D30144B617793
:10809000A3621449144BB1F90010B3F90030A27770
:1080A00003202077009104F128006284A284A28535
:1080B000E28522866286A286E28622876287E26362
:1080C0002264626484F84C2023841146FDF770FB1F
:1080D000204602B010BD00BFF4840108708401087E
:1080E00088840108E6AA0020E4AA00202DE9F047D0
:1080F00080469068089F9A4603681B6A8946144622
:108100009847B0F5017F05D2274B284AC22128485D
:108110000EF02CFE606803681B6A98470F2803D88E
:10812000244B224AC321F2E7E06803681B6A9847A0
:108130004F2803D8204B1D4AC421E8E75246494640
:108140004046FFF764FBE068036800215B6A9847DC
:10815000064610B11421FFF789FF0021A068FFF740
:10816000C5FD054608B1FDF703F860680021FFF77B
:10817000C0FD044610B12946FCF7DEFFCAF80060D6
:10818000C9F80040C8F800505CB1231D3B60284688
:10819000A7603246EC632146FFF762FB2046BDE84C
:1081A000F0872346F2E700BFC08501081F8A010857
:1081B0004E860108B58601085887010807B5D0F832
:1081C0004C310093D0F84821044B00F598710448D5
:1081D000FFF78CFF03B05DF804FB00BF48AB002045
:1081E00044AB00202DE9F04780469068089F9A46EE
:1081F00003681B6A89461446984740F61B639842F9
:1082000005D8284B284AC22128480EF0AFFD6068E7
:1082100003681B6A98470F2803D8254B224AC321BD
:10822000F2E7E06803681B6A98474F2803D8214BA0
:108230001D4AC421E8E7524649464046FFF7E7FA9F
:10824000E068036800215B6A9847064610B1142174
:10825000FFF70CFFA068036800215B6A984705469A
:1082600008B1FCF761FE6068036800215B6A98470B
:10827000044610B12946FCF7EFFECAF80060C9F8C1
:108280000040C8F800505CB1231D3B602846A76041
:108290003246EC632146FFF7E3FA2046BDE8F0875B
:1082A0002346F2E7C08501083F8B01084E8601088E
:1082B000B58601085887010807B5D0F84C310093FE
:1082C000D0F84821044B00F598710448FFF78AFF65
:1082D00003B05DF804FB00BF48AB002044AB0020B6
:1082E0007047000030B5154D2B78BFF35B8F13F04E
:1082F000010489B01FD128460DF052FFD8B13F23A9
:1083000006930F4B05930F4B079408224FF0050E71
:10831000049304240A2303928DE818400A490B4869
:1083200028230AF0A9FF28460DF046FF084A09490C
:1083300006480DF02EFF054809B030BD280B00207F
:1083400014DD010860D30108C8B101086C0B0020DE
:1083500000020020E182000830B5154D2C78BFF3F3
:108360005B8F14F0010489B01ED128460DF018FF70
:10837000D0B13F2306930F4B05930F4B0493072176
:10838000042203238DE80E00079421220B49039455
:108390001E230B480AF070FF28460DF00DFF094A16
:1083A000094907480DF0F5FE054809B030BD00BF8A
:1083B000200B0020ECC3010838B2010818DD0108C9
:1083C0002C0B002000020020E182000830B5154D82
:1083D0002C78BFF35B8F14F0010489B01ED12846BE
:1083E0000DF0DEFED0B13F2306930F4B05930F4BEC
:1083F0000493062204238DE80C000D4907942322E0
:108400001B23039402940B480AF036FF28460DF014
:10841000D3FE094A094907480DF0BBFE054809B0DB
:1084200030BD00BF240B0020D8DC01081CC40108AB
:10843000DCAF01084C0B002000020020E1820008A4
:1084400010B5202104460DF0A9FE204610BD70474E
:10845000012906D003D3022905D000207047FFF779
:10846000B5BFFFF73FBFFFF777BF10B50421044644
:108470000DF094FE204610BD00487047A48D010801
:1084800012207047004870477C1A0B082120704763
:10849000004870478C0B002010B5FFF797FF044C85
:1084A0002060FFF71FFF6060FFF756FFA06010BD60
:1084B0008C0B002038B50A4B0A4A18800A4B1A6008
:1084C000FFF7E0FF0546FFF7E3FF0446FFF7DEFF97
:1084D000064B1D60064B1C60064B188038BD00BF64
:1084E000980B0020B4180B089C0B002050AB002008
:1084F00058AB002054AB0020014B024A1A60704771
:108500009C0B0020B4180B08032208B500210120A1
:1085100001F0A6F8074A106020B100231A46194658
:1085200001F0C2F801210022084601F099F8024B3F
:10853000186008BDA00B0020A40B002003480023F6
:108540004FF0FF321946006801F01ABAA00B002064
:10855000034800231A461946006801F0A5B800BF79
:10856000A00B0020034800231A461946006801F0BA
:1085700007BA00BFA00B002007B502A9002341F8ED
:10858000043D084B186801F0A7F9019B3BB1064B6D
:108590004FF080521A60BFF34F8FBFF36F8F03B05D
:1085A0005DF804FBA00B002004ED00E007B50B4BC9
:1085B000186880B102AA002342F8043D084901F07E
:1085C00029F9019B3BB1074B4FF080521A60BFF372
:1085D0004F8FBFF36F8F03B05DF804FBA40B002037
:1085E0002402002004ED00E070B5084D084C002383
:1085F0001A462946206801F0C3F92946206800235D
:108600004FF0FF32BDE8704001F0BAB924020020FB
:10861000A40B0020024B18680368DB68184700BFF2
:10862000F0AA002007B500F0B9F800F0FBFA032229
:1086300000238DE80C00044904484FF4806201F0E7
:10864000FBFA01F0D1FBFEE70C8F0108158600084C
:10865000704770477047704701207047502070473F
:10866000502303FB010008307047502303FB010037
:10867000083070470120704740F61C60704740F694
:108680001C6303FB01000830704740F61C6303FBCA
:10869000010008307047012070471020704700EB40
:1086A00001100830704700EB011008307047084691
:1086B000FFF7CCBA10B5034B0360044605F05EFE2D
:1086C000204610BD848F010810B50446FFF7F2FF65
:1086D000204658210DF062FD204610BD10B5034B19
:1086E0000360044605F04AFE204610BD508F010885
:1086F00010B50446FFF7F2FF204640F624610DF066
:108700004DFD204610BD000010B5034B036004462C
:1087100005F034FE204610BD1C8F010810B504463C
:10872000FFF7F2FF204618210DF038FD204610BD5E
:1087300010B5084B0360044600F56560FFF7BAFF0B
:1087400004F12C00FFF7CAFF04F11400FFF7DCFF6F
:10875000204610BDB88F010810B50446FFF7E8FFAA
:10876000204641F22C010DF019FD204610BD10B538
:10877000042104460DF012FD204610BD08B5024B41
:108780001B689B6A984708BD1C1D002008B5024B5A
:108790001B68DB6A984708BD1C1D00202DE9F04FBF
:1087A0009FB09C4C9C4E002503F0CAF90295236CA7
:1087B00043F080532364236C03F080530293974B60
:1087C00003951A6842F440421A601B6803F4404360
:1087D00003934FF4803312934FF4800302274FF03A
:1087E000010B18934FF4A87208234FF0070811A843
:1087F00019930193CDF844B01A9217971B97CDF8AF
:10880000708004F079FB0F220C924FF4A0594FF4C2
:10881000805205210CA810920D970E95CDF83C9032
:1088200004F010FD7E4A7F4832601D22019BF261F8
:1088300040F20D127262036040F24312C023B26232
:10884000036140F2171204234FF0090AC6F818B06A
:10885000F2624FF0030B40F2471283614FF4003392
:108860003263C6F814A0C6F820B086F8365086F8F1
:10887000345086F83550436204F0B0FD04957560BD
:10888000B560F5603561636C674843F0806363648D
:10889000636C03F0806304930595236B43F400033A
:1088A0002363236B03F4000305930695236B43F4C2
:1088B00080532363236B03F4805306930795236B44
:1088C00043F001032363236B03F00103079308952F
:1088D000236B3B432363236B3B4008930995236B36
:1088E00043F004032363236B03F0040309930A9505
:1088F000236B43F008032363236B03F008030A93FD
:108900000B95236B43F020032363236B03F02003B9
:108910000B930C95236B43F040032363236B129757
:1089200003F040030C9341F65803119311A90E2351
:1089300015931395149703F077FC4FF4706311931C
:108940003A4B0193184611A903F06EFC4FF498625C
:1089500011A93748119203F067FC482211A9354844
:108960001192A4F5005403F05FFC4FF4806211A94A
:108970003148119203F058FC4FF40C6211A92046C3
:10898000119203F051FC019BCDF844B0184611A997
:10899000CDF854A003F048FC11A92046CDF844902E
:1089A00003F042FC304604F0E9F9244A244B1360FA
:1089B0001B68984702F0DCFF1195FFF7DFFE139567
:1089C0001290FFF7E3FE4FF050431A93FF231693E4
:1089D0004FF4C06318931490159717958DF8745041
:1089E0008DF875508DF87650CDF86480FFF7C6FE8F
:1089F0001B90FFF7CBFE2A4611A91C90304604F0CD
:108A000037FA304604F05EFA00F0E0F91FB0BDE836
:108A1000F08F00BF00380240441C0020007000406E
:108A200000680140EC1C00200000024000040240ED
:108A300000080240000C0240001402401C1D0020EF
:108A40003C0200202DE9F743614E3578BFF35B8F80
:108A500015F001058046894617461C4656D130461A
:108A60000DF09EFB002851D0A3B25A4CBDF828004F
:108A7000C4F80480012284F8452084F8462084F854
:108A8000542084F85720544AC4F80890E7602561C0
:108A9000656125836583A583E58325846584A58435
:108AA00084F82650A562A5856563A563E563256402
:108AB00084F8445084F8555084F8565084F858503F
:108AC00084F8595084F85A5084F85B5084F85C500C
:108AD00025661460414A84F865501380404A10802E
:108AE000404A1570404A83421380404AACBF00237D
:108AF0000123108084F8303030463D4B23600DF068
:108B00005BFB3C4A3C4920460DF043FB31483B4F60
:108B100006F0ACFEFFF7B0FC0446FFF7B1FC0D9B7E
:108B2000009301460C9B0B9A20460BF0A3F9344BA3
:108B3000344A1A600020FFF7BDFC33480BF004F9FB
:108B40003B78BFF35B8FDB0738D438460DF028FB4A
:108B5000002833D02D4E2E4B336006F6A86806F160
:108B6000140006F12C0506F565647060B560F460CC
:108B7000C6F8108005F004FC264B7361284605F00A
:108B8000FFFB254BF362204605F0FAFB234BC6F8AA
:108B9000503E324606F6F8714046FCF7FFFD06F6F9
:108BA000F870FCF701FB4046FFF750F838460DF02F
:108BB00003FB104A1A4930460DF0EBFA09F0F6F9BA
:108BC0000146044806F094FD024803B0BDE8F08376
:108BD000A80B0020AC0B0020F0AA0020E4AA002083
:108BE000E6AA0020E8AA0020EAAA0020ECAA0020B9
:108BF000149101080002002053860008140C002084
:108C00005CAB0020CC27002028020020180C00209C
:108C1000B88F01081C8F0108508F0108848F01084C
:108C200031870008F0B585B000264FF4A073039695
:108C3000029601960093124A12491348F023FFF757
:108C400001FF124B01251D700368009504465F6FFC
:108C500010222B464FF05041B84784F8586084F8F2
:108C600046600B4E84F84550022384F85430304659
:108C700000F068F8266184F85C5005B0F0BD00BFD4
:108C80002C02002030020020201D0020102800208F
:108C9000C027002010B5682104460DF07FFA204659
:108CA00010BD10B50C2104460DF078FA204610BD19
:108CB00010B5042104460DF071FA204610BD0000E5
:108CC00038B5124C124D1349134822460DF061FA83
:108CD000284600F063FA2246104928460DF059FA5A
:108CE00022460F490F480DF054FA0F480F49002350
:108CF0004360224683600E4B03600DF04AFA224621
:108D00000C490D48BDE838400DF043BA0002002080
:108D1000201D00204F84000828020020618E0008DA
:108D2000578600082C020020C02700205586000826
:108D3000CC8F01085186000830020020406870473F
:108D400041607047054A136843F080731360044A1A
:108D5000136843F001031360704700BFFCED00E0AF
:108D6000001000E0521A02EB5302B2FBF3F070471E
:108D7000014B1868704700BF041000E010B503688D
:108D800004461B6931B19847A26863689B1A18446E
:108D9000606010BD9847A06010BD0000044A01212A
:108DA000115408B902F07ABB0128FBD0704700BF0C
:108DB00011280020044A0021115408B902F060BBB8
:108DC0000128FBD0704700BF1128002008B5002003
:108DD00002F01AFB012002F017FB0020FFF7EAFF68
:108DE0000120BDE80840FFF7E5BF0000034B1B5C16
:108DF0000BB1FFF7DFBFFFF7D1BF00BF1128002085
:108E000010B5FFF7BBFC0446FFF7C0FC81B2A0B26F
:108E1000BDE8104002F0EABD37B568460D4614467D
:108E200002F006FEBDF8000030B1BDF802302B6044
:108E3000BDF804302360012003B030BD03681B6C13
:108E4000184703685B6A184770470000034B1B789C
:108E5000002B40F2EF1018BF0020704715280020AB
:108E600010B5064B03600446054803F0C9F8054BEE
:108E70004FF08062C3F88820204610BD0C90010896
:108E8000D027002000E100E010B50446FFF7E8FF1E
:108E900020464FF42A610DF081F9204610BD0000F4
:108EA00010B5074C074B2360204602F0DAFF064B53
:108EB0002361064B6361064B4FF080629A6010BDE0
:108EC000D027002000B00240D58E0008498E00084F
:108ED00000E100E0024B1B68586803685B691847B3
:108EE000F0AA00202DE9F3410D68202D0C4600F07A
:108EF000A480402D00F0A1802A1F56425641802DAB
:108F000000F09D80A5F580735D425D415E4B1B685E
:108F1000986803681B6A98472368402B00F0A38079
:108F200000F28F80042B00F09780202B00F09B80B4
:108F300010280CBF4FF0020E4FF0010E0021B4F8C4
:108F40000CC0B4F81280514BA8EB0C02DA60102868
:108F5000A289D3F800C059600CBF022701279F6087
:108F6000A8EB0208DCF8002022F440321143CCF8D0
:108F70000010D3F800C0C3F82CE0DCF8341021F066
:108F800007013943CCF83410DCF8402022F47F523A
:108F900022F03F0242EA0802CCF84020228AA1894E
:108FA000521A9A620EB9002D34D0227EFF2A1FBFBA
:108FB00002221A63227E5A6304BF00221A6305B399
:108FC000102894F818E0626953D102F01F014FF0A5
:108FD0001F0CC2F3C420C1EB012191FBFCF141EA5B
:108FE0000E61C0EB0020C2F3451290FBFCF041EA99
:108FF0000041C2EB02223F2092FBF0F241EA022242
:109000005A63A189628A2148DF61521A9A6100215C
:1090100003F0BEF801211D4803F0BAF8A389E289E4
:1090200006B94DB30093A3680192616817481A46C8
:1090300002F065FF02B0BDE8F081012662E701257C
:1090400064E7802B12D0B3F5807F7FF471AF4FF0CF
:10905000090E4FF4003172E710280CBF4FF0020EDA
:109060004FF0010EF5E74FF0000EF2E74FF00A0E59
:10907000EFE742EA0E62C3E700926168A268034824
:1090800002F01EFFD6E700BFF0AA0020D027002084
:10909000F7B5404B1B68986803681B6A0D469847F4
:1090A00010286B69297E71D103F01F02C2EB0222E6
:1090B0001F2092FBF0F4C3F3C42244EA0164C2EB24
:1090C0000222C3F3451392FBF0F244EA0244C3EBDD
:1090D00003233F2293FBF2F3022244EA03242B688A
:1090E000A9892D48082B6B8A8260A3EB0101C1601E
:1090F000AF890CBF4FF400364FF44036DF1B0368D6
:109100004660196821F4403131431960D0F800E01D
:10911000DEF8341021F007011143CEF83410DEF8E8
:10912000403023F47F5323F03F033B43B6F5003F29
:10913000CEF840301FD10123036309234463C36287
:10914000A9896B8AC2615B1A8361002103F020F850
:109150000121114803F01CF8B6F5003FAB89EA89FC
:109160000DD1A968019200930A460B460A4802F005
:10917000C6FE03B0F0BD0023C2628362E8E700923E
:109180002146AA68044802F09BFEF2E743EA016424
:109190000122A4E7F0AA0020D027002070B50546E0
:1091A0002C460A4B0C30002668602E726E7244F812
:1091B000203B6022214606F075FE05F52A636661B4
:1091C0001C34A342FBD1284670BD00BF0C9001089F
:1091D000012380F8641080F86530704740680368A8
:1091E0001B68184700207047436B0BB108461847AF
:1091F00070470000014B986A704700BF84680140C7
:10920000024B0122996243F8602C70478468014048
:10921000064B586CDB68C3F30A0382B201339A42EF
:10922000A6BFC01A80B20020704700BF006801408E
:10923000034B902283F85A2383F85823704700BFCA
:1092400000E100E00849094ACB680948C3F30A0372
:10925000013B9BB213800A69C2F30A02013A028001
:109260000B6403234B6370470068014018280020FB
:1092700016280020064B4FF08072C3F888204FF06C
:109280008062C3F888204FF00072C3F888207047CE
:1092900000E100E0054B4FF080729A604FF0806271
:1092A0009A604FF000729A60704700BF00E100E0E2
:1092B00010B5044606F0CAFC23682046D3F8843073
:1092C000BDE810401847000008B531B90A4B0B4AF9
:1092D0000B484FF443710DF049FD8163C2630949A6
:1092E0000364003218BF01220A700033064A18BF17
:1092F0000123137008BD00BF6D900108089201089A
:10930000A5900108EEAA0020EFAA0020F8B5541E8F
:10931000A6B21F2E9DF8185009D80124B44014F0AD
:10932000803F144F144E09D114F00B0F17D1134B7B
:10933000134A14484FF439710DF018FD3F883488F2
:10934000D2087C43624381637BB11144C16375B130
:10935000114401640C4A13700C4B1D70F8BD3C881D
:1093600062430732D2103488ECE7C363EFE7056449
:10937000F0E700BFE4AA0020E6AA00205090010810
:10938000B4910108A5900108EEAA0020EFAA0020E0
:1093900030B590F8642090F830309A420F4B1A782C
:1093A0000DD05AB90E4A0F490F4814880F4D0C8042
:1093B000018811802980048001221A7030BD002AA2
:1093C000FCD00948074A01881180054A074D1488D6
:1093D0002C80118004800022EFE700BFE8AA002063
:1093E000E4AA0020EAAA0020E6AA0020ECAA0020B5
:1093F00010B5154B9A6BD20724D50122DA63134AB4
:10940000196C1288124C914212D1124A12881A64B5
:10941000226892F85630013382F85630FFF7C6F8CA
:10942000206806F013FC0020BDE81040FFF7B6BC32
:109430001A640020FFF7BEFC20680368BDE81040F6
:109440009B69184710BD00BF006801401828002024
:10945000F0AA00201628002000F1080343604FF016
:10946000FF32C36003610023826003607047002302
:109470000361704743684B609A688A609A685160DC
:109480009960086103680133036070470A68531CE0
:1094900030B50AD103695A684A6091608B6059609F
:1094A000086103680133036030BD00F108035C68A4
:1094B0002568AA42EFD32346F9E742688168036929
:1094C00091608268416851605A68904204BF826826
:1094D0005A6000220261186801381860704770B540
:1094E0001546026C866B044642B905689DB9406812
:1094F00000F066FF65600136A66370BD6DB98068D7
:109500000DF0A4FCA368226C13446268A36093422C
:1095100001D32368A3600020EDE7C0680DF096FC3E
:10952000236CE26821685B421A448A42E2603EBFD3
:1095300062689B18E360022DEDD10EB1013EEAE7AF
:109540003046D8E7034610B41A6C084662B1D968B1
:109550005C681144A142D96024BF1968D960D968F8
:109560005DF8044B0DF072BC5DF8044B704770B5AC
:10957000044601F01FFA94F8455004F124066DB238
:10958000002D14DCFF2384F8453001F035FA01F09A
:1095900011FA94F8445004F110066DB2002D12DC5B
:1095A000FF2384F84430BDE8704001F025BA636AB7
:1095B000002BE7D0304600F01BFE08B100F0A4FEFF
:1095C000013D6DB2DCE72369002BE9D0304600F0A5
:1095D0000FFE08B100F098FE013D6DB2DEE700001D
:1095E00038B50D46044640B94FF0500383F3118857
:1095F000BFF36F8FBFF34F8FFEE701F0DBF9206CF5
:10960000E36B2268A2604343D1181B1A13446160C4
:10961000E3600021FF23A16384F8443084F84530DF
:1096200095B9236963B104F1100000F0E1FD38B190
:109630000A4B4FF080521A60BFF34F8FBFF36F8F0A
:1096400001F0DAF9012038BD04F11000FFF704FF42
:1096500004F12400FFF700FFF2E700BF04ED00E093
:10966000F8B50D461746064640B94FF0500383F350
:109670001188BFF36F8FBFF34F8FFEE74843503021
:1096800001F0BAF8044648B155B92060E663256494
:1096900001212046FFF7A4FF84F84C702046F8BD56
:1096A00000F150030360F1E72DE9FF47894601927D
:1096B0001F46044640B94FF0500383F31188BFF3AF
:1096C0006F8FBFF34F8FFEE7002940F08880036C57
:1096D000002B00F084804FF0500383F31188BFF318
:1096E0006F8FBFF34F8FFEE7019E002E00F0828048
:1096F0004FF0500383F31188BFF36F8FBFF34F8F89
:10970000FEE7019D1DB901F077F9002058E016B978
:1097100002A800F0AFFD01F06FF900F0A5FB01F029
:1097200049F994F84430FF2B08BF84F8448094F83A
:109730004530FF2B08BF84F8458001F05DF901A991
:1097400002A800F0A7FD002843D101F033F9A66B71
:10975000E56B01F051F9AE4235D1019904F11000E9
:1097600000F00EFD2046FFF702FF00F01DFC38B9A7
:109770004FF08053CAF80030BFF34F8FBFF36F8FA5
:10978000012601F017F9A26BE36B9A4201D3022F75
:10979000B7D13A4649462046FFF7A1FE636A1BB19E
:1097A00004F1240000F024FD38B1194B4FF0805231
:1097B0001A60BFF34F8FBFF36F8F01F01DF90120C7
:1097C00004B0BDE8F0872046FFF7D1FE00F0ECFBC7
:1097D000D6E72046FFF7CBFE00F0E6FB95E7022F29
:1097E00002D1E36B012B0AD100F094FD00283FF475
:1097F0007BAF00264FF00008DFF814A0C1E74FF060
:10980000500383F31188BFF36F8FBFF34F8FFEE7D1
:1098100004ED00E02DE9F843884691461F460446D2
:1098200040B94FF0500383F31188BFF36F8FBFF33C
:109830004F8FFEE709BB036CFBB14FF0500383F37E
:109840001188BFF36F8FBFF34F8FFEE704F1240041
:1098500000F0CEFC002834D0B9F1000F31D0012047
:10986000C9F8000086F31188BDE8F88301356DB2B0
:1098700084F8455025E00020F4E7022F02D1E36B85
:10988000012B20D101F09EF9EFF311864FF0500328
:1098900083F31188BFF36F8FBFF34F8FA26BE36B1E
:1098A0009A4201D3022FE6D194F845503A466DB260
:1098B00041462046FFF713FE6B1CD7D1636A002B8D
:1098C000C4D10120CEE74FF0500383F31188BFF3DA
:1098D0006F8FBFF34F8FFEE770B50D46044640B95A
:1098E0004FF0500383F31188BFF36F8FBFF34F8F97
:1098F000FEE7036C43B14FF0500383F31188BFF3CD
:109900006F8FBFF34F8FFEE703680BB9436873BBDC
:1099100001F058F9EFF311864FF0500383F31188EB
:10992000BFF36F8FBFF34F8FA26BE36B9A4201D3EC
