:020000040800F2
:1000000000000320F1EC000889B700088BB7000856
:100010008DB700088FB7000891B7000800000000F6
:1000200000000000000000000000000061B40008B3
:1000300093B7000800000000F1B4000895B700086D
:1000400041ED000841ED000841ED000841ED0008D8
:1000500041ED000841ED000841ED000841ED0008C8
:1000600041ED000841ED000841ED000841ED0008B8
:1000700041ED000841ED000841ED000841ED0008A8
:1000800041ED000841ED000841ED000841ED000898
:1000900041ED000841ED000841ED000841ED000888
:1000A00041ED000841ED000841ED000841ED000878
:1000B00041ED000841ED000841ED000841ED000868
:1000C00041ED000841ED000841ED000841ED000858
:1000D00041ED000841ED000841ED000841ED000848
:1000E00041ED000841ED000841ED000841ED000838
:1000F00041ED000841ED000841ED000841ED000828
:1001000041ED000841ED000841ED000841ED000817
:1001100041ED000841ED00087DB7000841ED000801
:1001200041ED000841ED000841ED000841ED0008F7
:1001300041ED000841ED000841ED000841ED0008E7
:1001400041ED000841ED000841ED000841ED0008D7
:1001500041ED000841ED000841ED000841ED0008C7
:1001600041ED000841ED000841ED000841ED0008B7
:1001700041ED000841ED000841ED000800000000DD
:1001800041ED000841ED000841ED000841ED000897
:1001900041ED000841ED000841ED000841ED000887
:0C01A000CD9E0008B1B70008A5B700080C
:1040000010B5054C237833B9044B13B10448AFF312
:1040100000800123237010BD040B0020000000006D
:10402000548901080C4B43B10C480D4910B5AFF34E
:1040300000800C48036823B910BD0A48036833B9EF
:104040007047094B002BF7D0BDE810401847064BCE
:10405000002BF5D0184700BF00000000548901086C
:10406000080B0020040B00200000000081F000413C
:1040700002E000BF83F0004330B54FEA41044FEA4D
:10408000430594EA050F08BF90EA020F1FBF54EAE8
:10409000000C55EA020C7FEA645C7FEA655C00F084
:1040A000E2804FEA5454D4EB5555B8BF6D420CDD55
:1040B0002C4480EA020281EA030382EA000083EAD8
:1040C000010180EA020281EA0303362D88BF30BD78
:1040D00011F0004F4FEA01314FF4801C4CEA1131CE
:1040E00002D0404261EB410113F0004F4FEA03332D
:1040F0004CEA133302D0524263EB430394EA050FB8
:1041000000F0A780A4F10104D5F1200E0DDB02FA26
:104110000EFC22FA05F2801841F1000103FA0EF2BA
:10412000801843FA05F359410EE0A5F120050EF180
:10413000200E012A03FA0EFC28BF4CF0020C43FAB1
:1041400005F3C01851EBE37101F0004507D54FF0BE
:10415000000EDCF1000C7EEB00006EEB0101B1F50E
:10416000801F1BD3B1F5001F0CD349085FEA300054
:104170004FEA3C0C04F101044FEA445212F5800F5F
:1041800080F09A80BCF1004F08BF5FEA500C50F1FC
:10419000000041EB045141EA050130BD5FEA4C0CDF
:1041A000404141EB010111F4801FA4F10104E9D168
:1041B00091F0000F04BF01460020B1FA81F308BF5F
:1041C0002033A3F10B03B3F120020CDA0C3208DD2B
:1041D00002F1140CC2F10C0201FA0CF021FA02F106
:1041E0000CE002F11402D8BFC2F1200C01FA02F176
:1041F00020FA0CFCDCBF41EA0C019040E41AA2BF9B
:1042000001EB0451294330BD6FEA04041F3C1CDA62
:104210000C340EDC04F11404C4F1200220FA04F082
:1042200001FA02F340EA030021FA04F345EA03012C
:1042300030BDC4F10C04C4F1200220FA02F001FAEE
:1042400004F340EA0300294630BD21FA04F0294670
:1042500030BD94F0000F83F4801306BF81F4801109
:104260000134013D4EE77FEA645C18BF7FEA655C7C
:1042700029D094EA050F08BF90EA020F05D054EA4E
:10428000000C04BF1946104630BD91EA030F1EBF53
:104290000021002030BD5FEA545C05D14000494157
:1042A00028BF41F0004130BD14F580043CBF01F54A
:1042B000801130BD01F0004545F0FE4141F4700130
:1042C0004FF0000030BD7FEA645C1ABF194610460B
:1042D0007FEA655C1CBF0B46024650EA013406BF0C
:1042E00052EA033591EA030F41F4002130BD00BFCB
:1042F00090F0000F04BF0021704730B54FF4806488
:1043000004F132044FF000054FF0000150E700BF08
:1043100090F0000F04BF0021704730B54FF4806467
:1043200004F1320410F0004548BF40424FF0000154
:104330003EE700BF42004FEAE2014FEA31014FEA97
:1043400002701FBF12F07F4393F07F4F81F06051E6
:10435000704792F0000F14BF93F07F4F704730B555
:104360004FF4607401F0004521F0004120E700BFE8
:1043700050EA010208BF704730B54FF000050AE06F
:1043800050EA010208BF704730B511F0004502D570
:10439000404261EB41014FF4806404F132045FEA72
:1043A000915C3FF4DCAE4FF003025FEADC0C18BF17
:1043B00003325FEADC0C18BF033202EBDC02C2F10D
:1043C000200300FA03FC20FA02F001FA03FE40EA9F
:1043D0000E0021FA02F11444C1E600BF70B54FF09F
:1043E000FF0C4CF4E06C1CEA11541DBF1CEA135581
:1043F00094EA0C0F95EA0C0F00F0DEF82C4481EAE9
:10440000030621EA4C5123EA4C5350EA013518BF08
:1044100052EA033541F4801143F4801338D0A0FBF5
:1044200002CE4FF00005E1FB02E506F00042E0FBA2
:1044300003E54FF00006E1FB03569CF0000F18BFA8
:104440004EF0010EA4F1FF04B6F5007F64F5407450
:1044500004D25FEA4E0E6D4146EB060642EAC621E3
:1044600041EA55514FEAC52040EA5E504FEACE2E50
:10447000B4F1FD0C88BFBCF5E06F1ED8BEF1004F53
:1044800008BF5FEA500E50F1000041EB045170BDCF
:1044900006F0004646EA010140EA020081EA030113
:1044A000B4EB5C04C2BFD4EB0C0541EA045170BD0F
:1044B00041F480114FF0000E013C00F3AB8014F189
:1044C000360FDEBF002001F0004170BDC4F10004D2
:1044D000203C35DA0C341BDC04F11404C4F1200553
:1044E00000FA05F320FA04F001FA05F240EA0200AE
:1044F00001F0004221F0004110EBD37021FA04F6E4
:1045000042EB06015EEA430E08BF20EAD37070BD9D
:10451000C4F10C04C4F1200500FA04F320FA05F0FC
:1045200001FA04F240EA020001F0004110EBD370FE
:1045300041F100015EEA430E08BF20EAD37070BD6E
:10454000C4F1200500FA05F24EEA020E20FA04F347
:1045500001FA05F243EA020321FA04F001F00041F6
:1045600021FA04F220EA020000EBD3705EEA430E67
:1045700008BF20EAD37070BD94F0000F0FD101F096
:104580000046400041EB010111F4801F08BF013CCF
:10459000F7D041EA060195F0000F18BF704703F00D
:1045A0000046520043EB030313F4801F08BF013D94
:1045B000F7D043EA0603704794EA0C0F0CEA135550
:1045C00018BF95EA0C0F0CD050EA410618BF52EA0A
:1045D0004306D1D181EA030101F000414FF0000010
:1045E00070BD50EA410606BF1046194652EA43061E
:1045F00019D094EA0C0F02D150EA013613D195EA92
:104600000C0F05D152EA03361CBF104619460AD1D9
:1046100081EA030101F0004141F0FE4141F47001E3
:104620004FF0000070BD41F0FE4141F4780170BDD3
:1046300070B54FF0FF0C4CF4E06C1CEA11541DBF38
:104640001CEA135594EA0C0F95EA0C0F00F0A7F83A
:10465000A4EB050481EA030E52EA03354FEA013167
:1046600000F088804FEA03334FF0805545EA13137A
:1046700043EA12634FEA022245EA111545EA106542
:104680004FEA00260EF000419D4208BF964244F1D9
:10469000FD0404F5407402D25B084FEA3202B61AF8
:1046A00065EB03055B084FEA32024FF480104FF4CC
:1046B000002CB6EB020E75EB030E22BFB61A754640
:1046C00040EA0C005B084FEA3202B6EB020E75EBD3
:1046D000030E22BFB61A754640EA5C005B084FEA3B
:1046E0003202B6EB020E75EB030E22BFB61A754608
:1046F00040EA9C005B084FEA3202B6EB020E75EB13
:10470000030E22BFB61A754640EADC0055EA060ED3
:1047100018D04FEA051545EA16754FEA06164FEA16
:10472000C30343EA52734FEAC2025FEA1C1CC0D1C2
:1047300011F4801F0BD141EA00014FF000004FF04F
:10474000004CB6E711F4801F04BF01430020B4F110
:10475000FD0C88BFBCF5E06F3FF6AFAEB5EB030CC8
:1047600004BFB6EB020C5FEA500C50F1000041EBC5
:10477000045170BD0EF0004E4EEA113114EB5C0492
:10478000C2BFD4EB0C0541EA045170BD41F4801165
:104790004FF0000E013C90E645EA060E8DE60CEA6D
:1047A000135594EA0C0F08BF95EA0C0F3FF43BAF8A
:1047B00094EA0C0F0AD150EA01347FF434AF95EA41
:1047C0000C0F7FF425AF104619462CE795EA0C0F25
:1047D00006D152EA03353FF4FDAE1046194622E7F2
:1047E00050EA410618BF52EA43067FF4C5AE50EACC
:1047F00041047FF40DAF52EA43057FF4EBAE12E7BC
:104800004FF0FF3C06E000BF4FF0010C02E000BF9C
:104810004FF0010C4DF804CD4FEA410C7FEA6C5C7F
:104820004FEA430C18BF7FEA6C5C1BD001B050EA22
:10483000410C0CBF52EA430C91EA030F02BF90EA0D
:10484000020F0020704710F1000F91EA030F58BFCC
:10485000994208BF90422CBFD8176FEAE37040F02E
:10486000010070474FEA410C7FEA6C5C02D150EACC
:10487000013C07D14FEA430C7FEA6C5CD6D152EA87
:10488000033CD3D05DF8040B704700BF844610464C
:1048900062468C461946634600E000BF01B5FFF74B
:1048A000B7FF002848BF10F1000F01BD4DF808ED1B
:1048B000FFF7F4FF0CBF012000205DF808FB00BFEC
:1048C0004DF808EDFFF7EAFF34BF012000205DF846
:1048D00008FB00BF4DF808EDFFF7E0FF94BF012093
:1048E00000205DF808FB00BF4DF808EDFFF7CEFF94
:1048F00094BF012000205DF808FB00BF4DF808EDD3
:10490000FFF7C4FF34BF012000205DF808FB00BFA3
:104910004FEA4102B2F1E04324BFB3F5001CDCF1E1
:10492000FE5C0DD901F0004C4FEAC0024CEA507019
:10493000B2F1004F40EB830008BF20F00100704748
:1049400011F0804F21D113F13872BCBF01F000404B
:10495000704741F480114FEA5252C2F11802C2F17D
:10496000200C10FA0CF320FA02F018BF40F00100FE
:104970004FEAC1234FEAD32303FA0CFC40EA0C00B0
:1049800023FA02F34FEA4303CCE77FEA625307D1ED
:1049900050EA01331EBF4FF0FE4040F44000704724
:1049A00001F0004040F0FE4040F40000704700BFBE
:1049B00053B94AB9002908BF00281CBF4FF0FF3186
:1049C0004FF0FF3000F07AB9ADF1080C6DE904CE7C
:1049D00000F006F8DDF804E0DDE9022304B07047DA
:1049E0002DE9F0478C460D460446089E002B51D118
:1049F0008A4217466DD9B2FA82FEBEF1000F0BD083
:104A0000CEF1200C01FA0EF520FA0CFC02FA0EF79A
:104A10004CEA050C00FA0EF44FEA174A250CBCFBD1
:104A2000FAF81FFA87F90AFB18CC45EA0C4508FB8F
:104A300009F3AB420AD9ED1908F1FF3280F0238166
:104A4000AB4240F22081A8F102083D44ED1AA4B225
:104A5000B5FBFAF00AFB105544EA054400FB09F9DE
:104A6000A14509D9E41900F1FF3380F00A81A1457D
:104A700040F2078102383C44A4EB090440EA0840B4
:104A80000021002E61D024FA0EF4002334607360FC
:104A9000BDE8F0878B4207D9002E54D0002186E86C
:104AA00021000846BDE8F087B3FA83F1002940F001
:104AB0008E80AB4202D3824200F2FA80841A65EB08
:104AC00003050120AC46002E3FD086E81010BDE85B
:104AD000F08712B90127B7FBF2F7B7FA87FEBEF1EC
:104AE000000F34D1EB1B3A0C1FFA87FC0121B3FBFA
:104AF000F2F8250C02FB183345EA03450CFB08F3DA
:104B0000AB4207D9ED1908F1FF3002D2AB4200F2F7
:104B1000D1808046ED1AA3B2B5FBF2F002FB10552E
:104B200043EA05440CFB00FCA44507D9E41900F155
:104B3000FF3302D2A44500F2B8801846A4EB0C045F
:104B400040EA08409DE731463046BDE8F087CEF1A7
:104B5000200405FA0EF307FA0EF720FA04F83A0CCF
:104B600025FA04F448EA0308B4FBF2F14FEA1845C9
:104B700002FB11441FFA87FC45EA044501FB0CF3D4
:104B8000AB4200FA0EF409D9ED1901F1FF3080F0C3
:104B90008A80AB4240F2878002393D44EB1A1FFA0B
:104BA00088F5B3FBF2F002FB103345EA034500FB46
:104BB0000CF3AB4207D9ED1900F1FF386FD2AB42CD
:104BC0006DD902383D44EB1A40EA01418FE7C1F14B
:104BD000200722FA07F88B4005FA01F448EA03039C
:104BE00020FA07FE4FEA134CFD404EEA040EB5FBD7
:104BF000FCF94FEA1E440CFB19551FFA83F844EAEE
:104C0000054509FB08F4AC4202FA01F200FA01FA88
:104C100008D9ED1809F1FF3043D2AC4241D9A9F1CE
:104C200002091D442D1B1FFA8EFEB5FBFCF00CFB88
:104C300010554EEA054400FB08F8A04507D9E418D2
:104C400000F1FF3529D2A04527D902381C4440EA9B
:104C50000940A4EB0804A0FB02894C45C6464D461A
:104C600015D312D056B1BAEB0E0364EB050404FA67
:104C700007F7CB401F43CC40376074600021BDE88C
:104C8000F0871846F8E69046E0E6C245EAD2B8EB6F
:104C9000020E69EB03050138E4E72846D7E74046F2
:104CA00091E78146BEE7014678E702383C4445E794
:104CB000084608E7A8F102083D442BE7704700BF0B
:104CC00001F0FF01102A2BDB10F0070F08D010F8BD
:104CD000013B013A8B422DD010F0070F42B3F6D1C1
:104CE000F0B441EA012141EA014122F007047FF0DA
:104CF00000070023F0E80256083C85EA010586EA31
:104D0000010685FA47F5A3FA87F586FA47F6A5FA6C
:104D100087F68EB9EED1F0BC01F0FF0102F0070278
:104D200032B110F8013B013A83EA010313B1F8D123
:104D30000020704701387047002D06BF3546033804
:104D4000073815F0010F07D1013015F4807F02BF3D
:104D5000013015F4C03F0130F0BC0138704700BF8E
:104D600070477047704703683121D3F88030184787
:104D700003683221D3F88030184703683321D3F811
:104D80008030184703683421D3F88030184703680F
:104D90003521D3F88030184703683621D3F88030A6
:104DA000184703683721D3F8803018470368382143
:104DB000D3F88030184703683921D3F8803018477A
:104DC00003684121D3F88030184703684221D3F8A3
:104DD0008030184703684321D3F8803018470368B0
:104DE0004421D3F88030184703684521D3F8803038
:104DF000184703684621D3F88030184703683021EC
:104E0000D3F880301847704780F82212704780F836
:104E1000181E704790F8180E704700F0ADBE0000E5
:104E200010B50B46044662BB484A052100F6C8503F
:104E30000FF020FD04F50A700EF0AEFA5823434A35
:104E4000052104F6D4500FF015FD04F518700EF08E
:104E5000A3FA58233D4A052104F55E600FF00AFDD0
:104E600004F526700EF098FA5823384A052104F606
:104E7000EC500FF0FFFC04F53470BDE810400EF06C
:104E80008BBA012A13D1314A052100F6D4500FF014
:104E9000F1FC04F518700EF07FFA58232B4A052117
:104EA00004F6C8500FF0E6FC04F50A70CFE7022ABA
:104EB0001ED1264A052100F55E600FF0DBFC04F5EB
:104EC00026700EF069FA5823204A052104F6C850CE
:104ED0000FF0D0FC04F50A700EF05EFA58231B4A5E
:104EE000052104F6D4500FF0C5FC04F51870B9E79D
:104EF000032A29D1154A052100F6EC500FF0BAFC1F
:104F000004F534700EF048FA5823104A052104F6CF
:104F1000C8500FF0AFFC04F50A700EF03DFA5823AC
:104F20000A4A052104F6D4500FF0A4FC04F51870C9
:104F30000EF032FA5823054A052104F55E600FF0A1
:104F400099FC04F5267098E710BD00BFB8890108E8
:104F500010B5044601F0ACF8034B2360582384F8E5
:104F6000183E204610BD00BFC4890108D43009F0A6
:104F7000E7BF10B50446084611461A460FF088FCF4
:104F8000014604F1D40009F06BFF10BD10B5044BCD
:104F9000044640F8D43B09F06FFF204610BD00BF27
:104FA000308F010810B50446FFF7F0FF204640F6A9
:104FB0001C6111F0EFFE204610BD7047704770472E
:104FC00070477047A0F10400FBE7C36881681A6866
:104FD0000969D26E18461047A0F10400FFF7F5BF2B
:104FE00010B4C36881681A68146F0A69497D18464D
:104FF00023465DF8044B1847A0F10400FFF7F0BF0B
:105000007047A0F10400FFF7FBBF10B40346C0686F
:105010009968036891F824209C6F91F8283091F8E2
:105020002010A4465DF8044B6047A0F10400FFF790
:10503000ECBFC36881681A688968526F18461047C8
:10504000A0F10400FFF7F5BF10B58468C0680368DD
:10505000DB6F984784F8310010BDA0F10400FFF722
:10506000F3BFC06803685821D3F880301847A0F117
:105070000400FFF7F6BF10B51021044611F08AFEB8
:10508000204610BDA0F10400F5E708B50DF08AFD3B
:10509000BDE8084003F04EB9A0F10400FFF7F5BFEA
:1050A00010B500228260044AC16002F10804403257
:1050B0000460426010BD00BF488A010803689B6C11
:1050C00018470368DB6C184703681B6D1847704767
:1050D00090F84004704790F84104704790F84204FB
:1050E0007047B0F85233B0F858239A1A53425341DC
:1050F00080F840347047B0F8BA32B0F8C0229A1A3B
:105100005342534180F841347047B0F82232B0F82E
:1051100028229A1A5342534180F84234704701F0D2
:1051200076BF70B5B0F8F223B0F8F83304469A426F
:1051300000F5497004F5237604F5FA7518D10121BC
:105140000BF066FC012130460BF062FC0121284681
:105150000BF05EFC236820469B6C98472368204632
:10516000DB6C9847236820461B6DBDE870401847EC
:1051700000210BF04DFC002130460BF049FC0021D2
:10518000E5E7000010B5044601F09AFF064B2360E6
:10519000002384F8403484F8413484F8423484F89D
:1051A0004334204610BD00BFC88A010810B5044B27
:1051B000044640F8D03B0AF02DFA204610BD00BF4F
:1051C000EC8F010810B50446FFF7F0FF204640F2CF
:1051D000444111F0DFFD204610BD70477047704715
:1051E000704770477047704770477047A0F10400E0
:1051F000FBE7704710B58468C0680368DB6B9847AD
:10520000003018BF012084F82E0010BDA0F104006A
:10521000FFF7F0BF10B58468C06803681B6C98473F
:10522000003018BF012084F82F0010BDA0F1040049
:10523000FFF7F0BF10B58468C06803685B6C9847DF
:10524000003018BF012084F8300010BDA0F1040028
:10525000FFF7F0BF10B51021044611F09BFD20466A
:1052600010BDA0F10400F5E710B500228260044AE9
:10527000C16002F108042C320460426010BD00BF1E
:105280001C8B01087047A0F10400FBE7704710B5C4
:105290001021044611F07EFD204610BDA0F104004F
:1052A000F5E78368C068596800F034B8A0F10400DD
:1052B000FFF7F7BF8368C068596B00F03DB8A0F1F5
:1052C0000400FFF7F7BF000010B500228260044A17
:1052D000C16002F1080428320460426010BD00BFC2
:1052E000808B010870477047704702F03DB910B5D8
:1052F0004FF41471044611F04DFD204610BD00001E
:1053000010B5044602F0A4F9014B2360204610BDFD
:10531000EC8B010810B50B460446064A052100F542
:1053200008700FF0A7FA04F59E70BDE810400EF06B
:1053300033B800BFE08B010810B5044661B94923BA
:1053400004F22A20094A0A210FF094FA04F5F470B5
:10535000BDE810400EF020B8012901D14123EFE74C
:10536000022901D14D23EBE710BD00BFB889010828
:1053700010B54124847631240022C4764224026090
:1053800042608260C260026102750477026242621A
:10539000826280F82C2080F82D2080F82E2080F862
:1053A0002F2080F83020426380F8382058211D4A91
:1053B000417532248175C1750176417680F83110CE
:1053C0004477136B43F04C031363174B1A6822F0B6
:1053D00040621A601A6822F040721A6003F5805326
:1053E0001A6822F030021A601A6822F0C0021A60AD
:1053F0001A6822F440221A600C4A116821F44061B4
:105400001160116821F440711160116821F440416C
:1054100011601A6822F040621A601A6842F08062D5
:105420001A6010BD0038024000080240000C024023
:1054300010B5C28A438B9A42044612D1028B838BE9
:105440009A420ED190F82D30BBB996220362836246
:105450004262006803685B699847012384F82D3035
:1054600010BD96232362206800236362A362036851
:105470005B699847012384F82C3010BD0023036238
:10548000436296238362006803685B69184738B5F6
:10549000002596230446036245628562006803681E
:1054A0005B699847206825610368DB689847582343
:1054B000A375E3752376637684F82D50E56038BDD7
:1054C00010B5C36801330446C36080219F4807F0CC
:1054D00001FD20B194F83830002B00F02382E368FE
:1054E000192B08DD94F82C302BB12046FFF7CFFFA5
:1054F000002384F82C301021944807F0EBFC18B1FD
:10550000E368192B00F31D8220680368DB69984764
:10551000206803685B6A9847206803689B6A98471D
:1055200020680368DB6A984794F82E2094F82F309F
:10553000002A40F00982002B40F0088294F83030B5
:10554000002B40F003822068636303681B6B98475D
:1055500094F83130582B0AD094F82C302BB12046D7
:10556000FFF795FF002384F82C3001232375E368AF
:10557000192B40F3B081237D002B00F0AC8194F80F
:105580002D30002B40F0A7814FF40051704807F0F8
:10559000A1FC30B1636820680133636003689B68D5
:1055A000984704216B4807F095FC88B908216948A1
:1055B00007F090FC60B94FF40071664807F08AFC70
:1055C00030B92021614807F085FC002800F0C08137
:1055D0000421604807F07EFC88B108215D4807F08F
:1055E00079FC60B94FF400715A4807F073FC30B988
:1055F0002021564807F06EFC002800F0AC81042101
:10560000544807F067FC88B90821524807F062FC4B
:1056100060B14FF400714F4807F05CFC30B92021B5
:105620004A4807F057FC002800F0988104214948B7
:1056300007F050FC88B10821464807F04BFC60B1E8
:105640004FF40071434807F045FC30B920213F4832
:1056500007F040FC002800F0848104213D4807F059
:1056600039FC88B908213B4807F034FC60B94FF495
:105670000071384807F02EFC30B12021334807F084
:1056800029FC002800F070810421324807F022FC38
:1056900088B108212F4807F01DFC60B94FF4007154
:1056A0002C4807F017FC30B12021284807F012FCE5
:1056B000002800F05C810421264807F00BFC88B923
:1056C0000821244807F006FC60B14FF4007121481E
:1056D00007F000FC30B120211C4807F0FBFB00283C
:1056E00000F0488104211B4807F0F4FB88B1082131
:1056F000184807F0EFFB60B14FF40071154807F050
:10570000E9FB30B12021114807F0E4FB002800F04C
:10571000348104210F4807F0DDFB88B908210D48CA
:1057200007F0D8FB60B94FF400710A4807F0D2FBCC
:1057300030B92021054807F0CDFB002840F020813A
:105740000421044807F0C6FBC0B105E0000C02408C
:1057500000080240001802400821964807F0BAFBF2
:1057600060B94FF40071934807F0B4FB30B92021C1
:10577000914807F0AFFB002840F0058104218D48D7
:1057800007F0A8FB88B908218A4807F0A3FB60B19D
:105790004FF40071874807F09DFB30B920218648FF
:1057A00007F098FB002840F0F1800421814807F0C1
:1057B00091FB88B108217F4807F08CFB60B14FF462
:1057C00000717C4807F086FB30B920217A4807F049
:1057D00081FB002840F0DD800421764807F07AFB49
:1057E00088B90821734807F075FB60B94FF4007160
:1057F000704807F06FFB30B120216F4807F06AFB5B
:10580000002840F0C98004216A4807F063FB88B192
:105810000821684807F05EFB60B94FF400716548E5
:1058200007F058FB30B12021634807F053FB0028F4
:1058300040F0B58004215F4807F04CFB88B908218F
:105840005C4807F047FB60B14FF40071594807F01E
:1058500041FB30B12021584807F03CFB002840F0C4
:10586000A1800421534807F035FB88B10821514835
:1058700007F030FB60B14FF400714E4807F02AFB8F
:1058800030B120214C4807F025FB002840F08D80E6
:1058900094F83130582B07D063752068582384F86A
:1058A000313003681B6A9847206803681B69984772
:1058B00023692BBB627DA2752068013323610368D5
:1058C000DB6898472369042B204628D1FFF7B0FDF9
:1058D0000023E3602375E368192B69DD94F82D300C
:1058E000002B65D02046FFF7D2FD20680368BDE895
:1058F00010405B6B184794F830303BB3012322E62D
:10590000012B02D1627DE275D6E7022B02D1627DC6
:105910002276D1E7032B04BF627D6276CCE7FFF7E6
:10592000ADFDD5E7234963634A6942F400524A61F9
:105930002068E360012384F8383003681B6B9847C4
:10594000CDE501232375DFE5002BD4D10223FAE551
:10595000302363753CE63123637550E6322363756B
:1059600064E63323637578E6342363758CE6352368
:105970006375A0E636236375B4E637236375C8E61E
:1059800038236375DCE639236375F7E641236375D5
:105990000BE7422363751FE74323637533E7442313
:1059A000637547E7452363755BE7462363756FE7D8
:1059B00010BD00BF00180240000C02407047704745
:1059C00010B54FF4A871044611F0E4F9204610BD5B
:1059D00010B50446D0F84C01FFF772FD2046BDE833
:1059E00010400CF0A3BF10B50446D0F8340158B1F4
:1059F0000368DB68984738B1D4F8340103689B68C2
:105A000098470023C4F8343110BD000010B5044697
:105A100002F01AFC014B2360204610BD248C0108C3
:105A20007047A0F10400FBE7704710B51021044651
:105A300011F0B0F9204610BDA0F10400F5E7000018
:105A400010B500228260044AC16002F108042032CD
:105A50000460426010BD00BF588C01087047704759
:105A600003F057B810B54FF48A71044611F092F95B
:105A7000204610BD10B5044603F084F8014B2360A6
:105A8000204610BDB88C010870B51E460368BDF9EC
:105A900010505B6B044698472368314620469A6B4A
:105AA0009047236829462046DB6BBDE870401847C5
:105AB00081807047C180704770B503680446DB6A17
:105AC000154698472368294620461B6BBDE8704061
:105AD0001847018170474181704770477047704790
:105AE00070477047C38810B4D21A83885DF8044B9E
:105AF000C91A036812B25B6D09B218474FF6FF73FB
:105B00008381038443841368C3611060704712204B
:105B100070477047704790F825201AB190F82420FC
:105B200002B1186070470120704700220280428055
:105B30008280C280704770B503680446DB6A1546F0
:105B400098472368294620465B6EBDE87040184799
:105B50000D2070470E2070477047704770477047A0
:105B6000704770477047704770477047704770477D
:105B70007047704770477047704700F54272914216
:105B8000034602D103689B6E184700F5607291428C
:105B900002D10368DB6AF7E700F57E72914202D119
:105BA00003681B6BF0E700F58E62914202D1036837
:105BB0005B6BE9E700F59D62914202D103689B6B44
:105BC000E2E700F5AC62914202D10368DB6BDBE7F0
:105BD00000F5BB62914202D103681B6CD4E700F56B
:105BE000CA62914202D103685B6CCDE700F5D962CD
:105BF000914202D103689B6CC6E700F5E8629142CE
:105C000003D10268D26C1846104700F5F762914242
:105C100002D10268126DF6E700F50362914202D1EB
:105C20000268526DEFE700F6A802914202D10268C5
:105C3000926DE8E700F51262914202D10268D26DDE
:105C4000E1E700F69812914202D10268126EDAE79B
:105C500000F52162914202D10268526ED3E770478B
:105C6000704790F82C304BB100F16C021268C2659D
:105C70003BB100F174031B680366704700F16802D2
:105C8000F4E700F17003F6E770477047704710B40F
:105C9000C2688368406812F0010F4FEA620218BFC1
:105CA0008458104418BFE3585DF8044B1847436804
:105CB0002BB183682BB9C06800F00100704718460B
:105CC00070470120704710B4C2688368406812F0C2
:105CD000010F4FEA620218BF8458104418BFE358FE
:105CE0005DF8044B184743682BB183682BB9C06833
:105CF00000F001007047184670470120704790F887
:105D00002D3080F85A30704710B53821044611F014
:105D100041F8204610BD10B57821044611F03AF83C
:105D2000204610BD10B51021044611F033F820466E
:105D300010BD10B51021044611F02CF8204610BDFE
:105D400070B50B7990F82C5004460E4683B985B196
:105D50003379012B1DD1206BD8B10368DB689847DC
:105D6000B8B1206B036821469B68BDE870401847B6
:105D70007DB1B3FA83F35B0984F82C3023682046A5
:105D8000D3F888309847236820465B699847002DF0
:105D9000DED170BD00F5CA70884208B505D10CF09F
:105DA00001FFBDE8084002F085BA08BD094A02605B
:105DB00000228280C280028142818281C28102826D
:105DC000428242618261C26180F82420012280F80F
:105DD00025207047D4B6010838B504460D46FFF7B4
:105DE000E5FF094B23604FF6FF73E38484F8283006
:105DF000204629460BF06FFB044B2360002363858C
:105E0000A385204638BD00BF84B40108E8B201086C
:105E100008B5094B1B682BB9084B094ACF21094823
:105E200011F0A0FD084B02881B889A4203DB074B48
:105E3000034AD021F3E708BD88AB00202B8E010870
:105E40009C8F01086D8E01088CAB0020D48E010858
:105E500010B50446FFF7DCFF044B22881B6813F8DB
:105E60001220034B1B6853F8220010BD88AB0020A2
:105E700090AB002073B5036804461E6BC38C02A868
:105E80000D4620F8043DFFF7E3FF0368DB6A9847FF
:105E9000291A09B22046B04702B070BD10B50446B9
:105EA000FFF7B6FF024B22881B6853F8220010BD93
:105EB000C40B002010B5C28C4FF6FF739A42044603
:105EC00009D02630FFF7EAFF626B01462046BDE8A5
:105ED00010400BF017BA002010BD00002DE9F04F64
:105EE000C68C4FF6FF739E428FB004460F464BD0D0
:105EF00000F126052846FFF7ABFF8046002843D077
:105F00002846FFF785FF224B94F82EA01B68B4F8B3
:105F10002C9094F830B003EB460328465E78C6F325
:105F200001020592FFF774FFA36A0B93194B94F8D3
:105F30002F001B6894F83110059A8DF83300C6F3D2
:105F400081068DF8296007AE8DF834108DF832A0E7
:105F50002146ADF8309030468DF82820CDF82480C9
:105F60008DF82AB0D3F808800DF0C0FA2846FFF764
:105F700095FF636B029309AB0190009396E80600CE
:105F80003B4640460BF0D6FB0FB0BDE8F08F00BF9C
:105F900088AB002028AB00202DE9F041C78C4FF6DC
:105FA000FF739F4204461BD000F126052846FFF7E9
:105FB0004FFF06462846FFF72BFF2846FFF76EFFE8
:105FC000094B1B6803EB4703024659783368DD69C8
:105FD000636B3046AC46C1F38101BDE8F0416047D8
:105FE0000020BDE8F08100BF88AB002010B504465A
:105FF000FFF7DCFE084B23604FF6FF720023E284BC
:10600000A362A38584F82E2084F82F3084F83030E2
:1060100084F83130204610BD00B2010810B50446A6
:10602000FFF7E4FF024B236000236363204610BDAB
:10603000EC8C0108F8B504462646FFF7B7FE0123AD
:10604000002584F82430FF27114BA56284F82C50DA
:1060500084F82D70256346F8343B3046FFF7A6FEE2
:106060000C4B63632A462946304684F85A70E5652E
:10607000256684F86450A566E56625676567FFF7C1
:106080001BFD2046314609F085F92046F8BD00BFCA
:10609000688D010818B4010810B40367019B4367B9
:1060A00003688166C266D3F888305DF8044B1847F0
:1060B0002DE9F04F0446B1B030AE0DF089FC224618
:1060C00000254FF6FF78D94B26F8048DE56342F89A
:1060D000403B314610460492FFF77EFE04F1700308
:1060E000314618460593ADF8BC80FFF775FE04F104
:1060F000A00318460B93FFF779FF04F1D403184669
:10610000039308F0CDFE04F5CA7318460C93FFF70D
:106110004DFE012384F8B831C54BC4F8943104F521
:10612000E473C4F8BC5184F8C051A4F8C281A4F847
:10613000C48184F8C68118460693ADF8BC80FFF789
:1061400035FEBC4BC4F8C8313146A4F8EE8184F862
:10615000F08106980BF0BFF904F5FA7318460D9319
:10616000FFF744FF04F50A7318460793FFF756FF3D
:1061700004F5187318460893FFF750FF04F52673CB
:1061800018460993FFF74AFF04F5347318460A933B
:10619000FFF744FF04F5427318460E93FFF74AFFDA
:1061A00004F5607318460F93FFF744FF04F57E7300
:1061B00018461093FFF73EFF04F58E6318461193BF
:1061C000FFF738FF04F59D6318461293FFF732FF7F
:1061D00004F5AC6318461393FFF72CFF04F5BB637B
:1061E00018461493FFF726FF04F5CA631846159363
:1061F000FFF720FF04F5D96318461693FFF71AFF3F
:1062000004F5E86318461793FFF714FF04F5F763E6
:1062100018461893FFF70EFF04F503631846199309
:10622000FFF708FF04F6A80318461A93FFF702FFCA
:1062300004F5126318461B93FFF7FCFE04F698134F
:1062400018461C93FFF7F6FE04F5216318461D93CC
:10625000FFF7F0FE04F6882318461E93FFF7C6FEEC
:1062600004F6BC2318461F93FFF7C0FE04F52F6306
:1062700018462093FFF7BAFE04F6243318462193FC
:10628000FFF7B4FE04F6583318462293FFF7AEFE2C
:1062900004F68C3318462393FFF7A8FE04F53C63FD
:1062A00018462493FFF7A2FE04F6F433184625930C
:1062B000FFF79CFE04F6284318462693FFF796FE48
:1062C00004F65C4318462793FFF790FE04F54963F4
:1062D00018462893FFF78AFE04F6C443184629930C
:1062E000FFF784FE04F6F84318462A93FFF77EFE74
:1062F00004F62C5318462B93FFF778FE04F55663EB
:1063000018462C93FFF772FE04F6945318462D930B
:10631000FFF76CFE484BC4F8F83D484BC4F8003E0C
:10632000474BC4F8083E474BC4F8045E4FF00608DC
:10633000C4F8103EC4F8145E31460498C4F8FC4D0D
:10634000C4F80C4EADF8BC800AF059FD4FF4A073B0
:1063500000932A46F02329460498FFF795FB2A4626
:10636000294604980AF029FD4FF0040931460598A2
:10637000ADF8BC900AF043FD6B2300930598DF2332
:106380006FF001020921FFF77FFB2A462946059895
:106390000AF013FD0B980C222121FF27FFF78CFB3D
:1063A000FE22114638460EF073FAA4F8CC50C4F819
:1063B000C80029460B980AF077FC03984D221E214D
:1063C000FFF77AFB02221023009311460398B423AF
:1063D00008F09EFD4A462B46009529460398DFF8B3
:1063E000689008F097FE2946039808F0F1FD022313
:1063F00031460398ADF8BC3008F081FE8D2256215D
:1064000040460EF045FA0146039808F029FD29465A
:10641000039808F095FD0C986FF00502BB21FFF77B
:106420004BFB4FF00C0A32462EA90FE0308F0108CB
:1064300070B3010884B40108008E0108955D00085E
:10644000188E01087B5B0008288E01080C98ADF8B7
:10645000B8A0ADF8BCA00AF092FE04F6F853C4F858
:10646000BC3184F8C6516FF001020698C921FFF7CC
:1064700023FB112331460698ADF8BC300BF02BF806
:106480000D9893222121FFF717FB3A4639463846EB
:106490000EF0FEF9A4F82052C4F81C0284F822522F
:1064A0000D984FF005010AF0FFFB0798672228219D
:1064B000FFF702FB3A46394638460EF0E9F9A4F8F0
:1064C0005452C4F8500207233046ADF8BC30FFF7F1
:1064D000E5FC04F6C85B03464A46414658460EF0C2
:1064E000C9F9C4F85CB207980AF0B4FB41460798B2
:1064F0000AF0DAFB089867225A21FFF7DDFA3A46DC
:10650000394638460EF0C4F9A4F88C52C4F8880213
:1065100009233046ADF8BC30FFF7C0FC04F6D45B6D
:1065200003464A46414658460EF0A4F9C4F894B2D0
:1065300008980AF08FFB08984FF008010AF0B4FBA6
:10654000099867228921FFF7B7FA3A463946384653
:106550000EF09EF9A4F8C452C4F8C0020B233046D2
:10656000ADF8BC30FFF79AFC04F55E6B03464A4673
:10657000414658460EF07EF9C4F8CCB209980AF0AC
:1065800069FB09984FF00A010AF08EFB0A9867220E
:10659000B921FFF791FA3A46394638460EF078F9B4
:1065A000A4F8FC52C4F8F8020D233046ADF8BC3014
:1065B000FFF774FC04F6EC5703464A46414638465A
:1065C0000EF058F9C4F804730A9823260AF042FB27
:1065D00051460A980AF068FB33462A46294604F5D4
:1065E0004F700096FFF750FA84F86C539922662199
:1065F00028460EF04DF9CC220746992128460EF088
:1066000047F966228046332128460EF041F9992247
:106610008146662133200EF03BF94B4600904246FE
:1066200039460E9804F60867FFF736FD33460E9894
:10663000009640F21D124F21FFF726FA33462A46F4
:10664000294604F56D70C4F838730096FFF71CFAFC
:1066500084F8E4539922662128460EF019F9CC22D9
:106660008046992128460EF013F96622814633218F
:1066700028460EF00DF999228246662133200EF04D
:1066800007F9534600904A4641460F98FFF704FD2C
:1066900033460F98009687221B21FFF7F5F9334602
:1066A0002A46294604F22C40C4F8B0730096FFF73E
:1066B000EBF984F85C549922662128460EF0E8F83C
:1066C000CC228046992128460EF0E2F866228146C7
:1066D000332128460EF0DCF89922824666213320C9
:1066E0000EF0D6F8534600904A4641461098FFF700
:1066F000D3FC33461098009687224F21FFF7C4F948
:1067000033462A46294604F2A440C4F82874009669
:10671000FFF7BAF984F8D4549922662128460EF07E
:10672000B7F8CC228046992128460EF0B1F86622AF
:106730008146332128460EF0ABF899228246662125
:1067400033200EF0A5F8534600904A464146119872
:10675000FFF7A2FC33461198009687228221FFF7AB
:1067600093F933462A46294604F21C50C4F8A07413
:106770000096FFF789F984F84C559922662128463E
:106780000EF086F8CC228046992128460EF080F83B
:1067900066228146332128460EF07AF899228246F5
:1067A000662133200EF074F8534600904A46414665
:1067B0001298FFF771FC334612980096B9221B21FC
:1067C000FFF762F933462A46294604F29450C4F88A
:1067D00018750096FFF758F984F8C4559922662178
:1067E00028460EF055F8CC228046992128460EF016
:1067F0004FF866228146332128460EF049F8992247
:106800008246662133200EF043F8534600904A46F4
:1068100041461398FFF740FC334613980096B82280
:106820004F21FFF731F933462A46294604F20C601E
:10683000C4F890750096FFF727F984F83C56992222
:10684000662128460EF024F8CC228046992128465D
:106850000EF01EF866228146332128460EF018F805
:1068600099228246662133200EF012F8534600909A
:106870004A4641461498FFF70FFC33461498009699
:10688000B9228221FFF700F933462A46294604F24D
:106890008460C4F808760096FFF7F6F884F8B456DA
:1068A0009922662128460DF0F3FFCC2280469921DB
:1068B00028460DF0EDFF66228146332128460DF073
:1068C000E7FF99228246662133200DF0E1FF53460F
:1068D00000904A4641461598FFF7DEFB334615986F
:1068E0000096EB221B21FFF7CFF833462A462946B4
:1068F00004F2FC60C4F880760096FFF7C5F884F8CF
:106900002C579922662128460DF0C2FFCC228046E2
:10691000992128460DF0BCFF662281463321284686
:106920000DF0B6FF99228246662133200DF0B0FFAC
:10693000534600904A4641461698FFF7ADFB334652
:1069400016980096EB224F21FFF79EF833462A4611
:10695000294604F27470C4F8F8760096FFF794F8AC
:1069600084F8A4579922662128460DF091FFCC2285
:106970008046992128460DF08BFF662281463321FF
:1069800028460DF085FF99228246662133200DF0BE
:106990007FFF534600904A4641461798FFF77CFB1D
:1069A0004FF02208334617980096EB228221FFF71A
:1069B0006BF83346CDF800802A46294604F2EC7085
:1069C000C4F87077FFF760F884F81C5899226621A4
:1069D00028460DF05DFFCC228146992128460DF016
:1069E00057FF66228246332128460DF051FF992237
:1069F0008346662133200DF04BFF5B4600905246E4
:106A000049461898FFF748FBCDF8008033461898A0
:106A100040F21D121B21FFF737F833462A4629465C
:106A200004F66400C4F8E8770096FFF72DF884F8C0
:106A300094589922662128460DF02AFFCC228046E0
:106A4000992128460DF024FF6622814633212846ED
:106A50000DF01EFF99228246662133200DF018FFAB
:106A6000534600904A4641461998FFF715FB3346B6
:106A70001998009640F21D128221FFF705F833465F
:106A80002A46294604F6DC00C4F860780096FEF732
:106A9000FBFF84F80C599922662128460DF0F8FE78
:106AA000CC228046992128460DF0F2FE66228146CE
:106AB000332128460DF0ECFE9922824666213320D0
:106AC0000DF0E6FE534600904A4641461A98FFF7FD
:106AD000E3FA33461A98009640F21D12B221FEF7EF
:106AE000D3FF33462A46294604F65410C4F8D87812
:106AF0000096FEF7C9FF84F884599922662128463A
:106B00000DF0C6FECC228046992128460DF0C0FE2D
:106B100066228146332128460DF0BAFE992282462C
:106B2000662133200DF0B4FE534600904A4641469C
:106B30001B98FFF7B1FA33461B980096EB22B2215F
:106B4000FEF7A2FF33462A46294604F6CC10C4F8C5
:106B500050790096FEF798FF84F8FC599922662137
:106B600028460DF095FECC228046992128460DF04E
:106B70008FFE66228146332128460DF089FE992238
:106B80008246662133200DF083FE534600904A462C
:106B900041461C98FFF780FA33461C980096B922AC
:106BA000B221FEF771FF33462A46294604F64420F7
:106BB000C4F8C8790096FEF767FF84F8745A9922E2
:106BC000662128460DF064FECC2280469921284695
:106BD0000DF05EFE66228146332128460DF058FEF8
:106BE00099228246662133200DF052FE53460090D2
:106BF0004A4641461D98FFF74FFA33461D980096C6
:106C00008722B221FEF740FF1E98C4F8407A8B22FB
:106C10002521FEF751FF2A462946FF200DF038FEB8
:106C2000A4F8B45AC4F8B00A4FF011011E980AF043
:106C30003BF81F988B225921FEF73EFF2A46294632
:106C4000FF200DF025FEA4F8E85AC4F8E40A4FF03E
:106C500012011F980AF028F820988B228C21FEF749
:106C60002BFF2A462946FF200DF012FEA4F81C5BDC
:106C7000C4F8180B4FF0130120980AF015F821986A
:106C8000BC222521FEF718FF2A462946FF200DF0D9
:106C9000FFFDA4F8505BC4F84C0B4FF01401219891
:106CA0000AF002F82298BA225A21FEF705FF2A4676
:106CB0002946FF200DF0ECFDA4F8845BC4F8800B9E
:106CC0004FF01501229809F0EFFF2398EE222521BD
:106CD000FEF7F2FE2A462946FF200DF0D9FDA4F862
:106CE000B85BC4F8B40B4FF01601239809F0DCFF31
:106CF0002498EE225A21FEF7DFFE2A462946FF207D
:106D00000DF0C6FDA4F8EC5BC4F8E80B4FF01701DA
:106D1000249809F0C9FF2598BB228C21FEF7CCFEF0
:106D20002A462946FF200DF0B3FDA4F8205CC4F8E4
:106D30001C0C4FF01801259809F0B6FF2698BC22CC
:106D4000BD21FEF7B9FE2A462946FF200DF0A0FD21
:106D5000A4F8545CC4F8500C4FF01901269809F0BF
:106D6000A3FF27988B22BD21FEF7A6FE2A462946BF
:106D7000FF200DF08DFDA4F8885CC4F8840C4FF062
:106D80001A01279809F090FF2898ED228D21FEF72F
:106D900093FE2A462946FF200DF07AFDA4F8BC5C3C
:106DA000C4F8B80C4FF01B01289809F07DFF299812
:106DB000EE22BB21FEF780FE2A462946FF200DF079
:106DC00067FDA4F8F05CC4F8EC0C4FF01C012998A6
:106DD00009F06AFF31462A984FF48F72FEF76CFE75
:106DE0002A462946FF200DF053FDA4F8245DC4F87F
:106DF000200D4FF01D012A9809F056FF2B9840F204
:106E00001F12BB21FEF758FE2A462946FF200DF02F
:106E10003FFDA4F8585DC4F8540D4FF01E012B98A7
:106E200009F042FF2C984FF490728D21FEF744FE3A
:106E30002A462946FF200DF02BFDA4F88C5DC4F8EE
:106E4000880D4FF01F012C9809F02EFF2D984FF45C
:106E500090725A21FEF730FE2A462946FF200DF097
:106E600017FDA4F8C05DC4F8BC0D251D2D984FF08A
:106E7000200109F019FF0499284608F08BFA0599BA
:106E8000284608F087FA0B99284608F083FA0399F8
:106E9000284608F07FFA0C99284608F07BFA0699F4
:106EA000284608F077FA0D99284608F073FA0799F2
:106EB000284608F06FFA0899284608F06BFA0999F5
:106EC000284608F067FA0A99284608F063FA0E99EE
:106ED000284608F05FFA0F99284608F05BFA1099E7
:106EE000284608F057FA1199284608F053FA1299E3
:106EF000284608F04FFA1399284608F04BFA1499DF
:106F0000284608F047FA1599284608F043FA1699DA
:106F1000284608F03FFA1799284608F03BFA1899D6
:106F2000284608F037FA1999284608F033FA1A99D2
:106F3000284608F02FFA1B99284608F02BFA1C99CE
:106F4000284608F027FA1D99284608F023FA1E99CA
:106F5000284608F01FFA1F99284608F01BFA2099C6
:106F6000284608F017FA2199284608F013FA2299C2
:106F7000284608F00FFA2399284608F00BFA2499BE
:106F8000284608F007FA2599284608F003FA2699BA
:106F9000284608F0FFF92799284608F0FBF92899B8
:106FA000284608F0F7F92999284608F0F3F92A99B4
:106FB000284608F0EFF92B99284608F0EBF92C99B0
:106FC000284608F0E7F928462D9908F0E3F920460D
:106FD00031B0BDE8F08F00BF10B5044B044640F857
:106FE000D43B07F049FF204610BD00BF308F010899
:106FF00010B50446FFF7F0FF204640F618610FF089
:10700000C9FE204610BD70477047704770477047F3
:10701000704710B4C2688368406812F0010F4FEAED
:10702000620218BF8458104418BFE3585DF8044B3F
:10703000184743682BB183682BB9C06800F0010082
:107040007047184670470120704710B5102104465C
:107050000FF0A0FE204610BD00F17002914210B565
:1070600005D10BF09FFDBDE8104001F033B900F5EC
:10707000FA72914204D103689B6BBDE81040184737
:1070800000F52372914202D103685B6BF5E700F5CE
:107090004972914202D10368DB6AEEE700F564723F
:1070A000914205D10BF07EFDBDE8104001F042B9E0
:1070B00000F57172914202D103681B6BDDE710BDD0
:1070C0002DE9F04F044693B0A246002512AE0CF015
:1070D0007FFCDE4BE5634FF6FF784AF8403B26F82D
:1070E000048DDB4FDFF87893DFF878B35046FEF776
:1070F0005DFE31462764A4F8668084F868805046B7
:107100000AF0E9F9D34B236404F17003A4F86A5040
:10711000A4F86C5018460793FEF748FE4FF00103A1
:1071200084F8943004F1A4031846C4F8985084F805
:107130009C50C4F87090A4F89E80A4F8A08084F8B5
:10714000A2800393ADF84480FEF730FE3146C4F8C8
:10715000A470A4F8CA8004F1D00784F8CC80039806
:107160000AF0B9F9384608F09FFB04F5E4731846B5
:107170000493FEF71BFE04F5FA73C4F8C8B1C4F813
:10718000F0511846089309F023FC04F50B731846D8
:107190000993FEF72BFF04F5187318460593FEF7C5
:1071A00005FE04F52373C4F860B2C4F8885218468B
:1071B0000A9309F00DFC04F5317318460B93FEF7A2
:1071C00015FF04F53E7318460693FEF7EFFD04F530
:1071D0004973C4F8F8B2C4F8205318460C9309F068
:1071E000F7FB04F5577318460D93FEF7FFFE04F501
:1071F000647318460E93FEF7D9FD4FF0010384F82F
:10720000B43304F5717304F57F7BC4F8B85384F884
:10721000BC53C4F89093A4F8BE83A4F8C08384F848
:10722000C28318460F9309F0D3FB5846FEF7DEFEE3
:10723000894BC4F83034894BC4F83834C4F83C5412
:107240004FF0050831465046C4F83444ADF8448048
:1072500009F0D5FD4FF4A07300932A46F023294688
:107260005046FEF711FC2A462946504609F0A5FD76
:1072700041460798FE22FEF71FFC0D2304F58668A1
:10728000ADF8403032464FF00E0310A90798ADF824
:10729000443009F074FF40F205120398C4F8988056
:1072A0001121FEF709FC4FF00F0331460398ADF8AA
:1072B00044300AF010F9294638465622FEF7FCFB06
:1072C000942300932A46F12329460498FEF7DCFB19
:1072D0004FF0090908986E227121FEF7EDFB4FF07F
:1072E0000803324610A90898A4F82892ADF8403057
:1072F000ADF8449009F043FF08990498C4F81C8243
:1073000008F048F8099829223221FEF7D5FB2A46D1
:10731000294628460DF0BCFAA4F85852C4F8540285
:107320004FF01001099809F0BFFC0999049808F082
:1073300031F80499384608F059FB942300932A4603
:10734000F12329460598FEF79FFB0A986E227121CA
:10735000FEF7B2FB4FF00803324610A90A98A4F8D2
:10736000C092ADF84030ADF8449009F008FF0A999A
:107370000598C4F8B48208F00DF80B982922322140
:10738000FEF79AFB2A46294628460DF081FAA4F812
:10739000F052C4F8EC024FF00F010B9809F084FC96
:1073A0000B99059807F0F6FF0599384608F01EFB83
:1073B000942300932A46F12329460698FEF764FB9E
:1073C0000C986E226F21FEF777FB4FF008033246D0
:1073D00010A90C98A4F85893ADF84030ADF844903B
:1073E00009F0CDFE0C990698C4F84C8307F0D2FF43
:1073F0000D9829223221FEF75FFB2A4629462846AE
:107400000DF046FAA4F88853C4F884034FF00E0137
:107410000D9809F049FC0D99069807F0BBFF0699F5
:10742000384608F0E3FA1423ADF84030324613230F
:1074300010A93846ADF8443008F036FB2A462946F4
:10744000384608F063F938460EE000BFEC8F0108BB
:1074500084B40108E8B20108D48F0108597000080B
:1074600070B3010898A70108322108F0C8F838461F
:10747000322108F049F93846022108F071FA2A460B
:1074800029460E98FEF718FB4FF00103324610A96B
:107490000E98ADF84430ADF8405009F070FE84F815
:1074A000C2530F98C4F8B88325224321FEF704FB8A
:1074B0000A23ADF840300B23A4F8F833324610A964
:1074C0000F98ADF8443009F05AFE5846C4F8EC83E2
:1074D00002221A21FEF7F0FA2A46294628460DF024
:1074E000D7F9A4F82854C4F82404251D58464FF0B1
:1074F000240109F0D9FB5146284607F04BFF0799B4
:10750000284607F047FF0399284607F043FF39460E
:10751000284607F03FFF0E99284607F03BFF0F99DA
:10752000284607F037FF2846594607F033FF204624
:1075300013B0BDE8F08F00BF10B5044B044640F80F
:10754000D03B08F067F8204610BD00BFEC8F010863
:1075500010B50446FFF7F0FF20464FF488610FF0A6
:1075600019FC204610BD704770477047704710B433
:10757000C2688368406812F0010F4FEA620218BFC8
:107580008458104418BFE3585DF8044B184743680B
:107590002BB183682BB9C06800F001007047184612
:1075A00070470120704781877047808F704703685C
:1075B000D3F88030184790F83800704710B54C2148
:1075C00004460FF0E7FB204610BD10B5102104461D
:1075D0000FF0E0FB204610BD10B54FF414710446C7
:1075E0000FF0D8FB204610BD00F17002914210B59B
:1075F00004D10368BDE81040DB6A184700F1A80217
:10760000914205D10BF0CEFABDE8104000F072BEF9
:1076100000F5C473994205D10BF0C4FABDE81040DF
:1076200000F078BE10BD000038B504460D46FEF7E8
:10763000BDFB064B23604FF6FF732046E38484F8BE
:107640002830294609F047FF204638BD84B4010898
:107650002DE9F04F04468DB00CAE274600250CF006
:10766000B7F94FF6FF78BA4B26F8048DE56347F873
:10767000403B31463846FFF7D7FFB64B236404F151
:107680007003A4F86A50A4F86C501846039309F0EC
:107690009FF904F1A80318464FF001090493DFF89D
:1076A000CCA2FEF783FB04F1DC03C4F8D05084F8CD
:1076B000D450C4F8A8A0A4F8D680A4F8D88084F840
:1076C000DA8084F8CC9018460593FEF78FFC04F519
:1076D000887304F59E7B314618460693ADF82C80DE
:1076E000FFF7A2FF5846FEF781FC9B4BC4F83C31E4
:1076F00004F5C4731846C4F8705184F87451A4F8A2
:107700007651A4F87851C4F884510793FEF74EFBE4
:10771000C4F888A104F5DE7A3146C4F8B05184F883
:10772000B451A4F8B681A4F8B88184F8BA81ADF850
:107730002C8084F8AC9104F5F4785046FFF774FF80
:107740004046FEF753FC854BC4F8E831844BC4F83F
:107750004032844BC4F81C52C4F84832C4F84C522E
:107760004FF0030331463846C4F84442ADF82C309C
:1077700009F045FB4FF4A07300932A46F0232946F5
:107780003846FEF781F92A462946384609F015FBA6
:107790000398D1223821FEF78FF90823ADF828305D
:1077A000092384F89550A4F8A43032460AA9039816
:1077B000ADF82C3009F0E3FC04F51073C4F89830F0
:1077C00004980893F3221321FEF776F932460AA9AA
:1077D0000498ADF82850ADF82C9009F0D0FC089B27
:1077E000C4F8D0302A4605981921FEF765F9E4223D
:1077F0009C2115200DF04CF8A4F80851C4F80401A0
:107800004946059809F050FA40F2011206982021E5
:10781000FEF752F9122331460698ADF82C3009F0E4
:107820005AFE58463E222A21FEF746F9E4229C21C0
:1078300015200DF02DF804F50873C4F86401A4F8C0
:10784000685184F86A51099330460423ADF82C300E
:10785000FEF724FB444A0346052109980DF00AF877
:10786000099BC4F87031584609F0F4F958464FF0B6
:10787000030109F019FA0798F322A021FEF71CF979
:1078800032460AA90798ADF82850ADF82C9009F0B7
:1078900076FC089BC4F8B0314FF480725046AF219B
:1078A000FEF70AF9102331465046ADF82C3009F0A6
:1078B00012FE4046CB223A21FEF7FEF82A46294620
:1078C00028460CF0E5FFA4F81452C4F81002232354
:1078D0003046ADF82C30FEF7E1FA04F22A250346D3
:1078E000214A0A2128460CF0C5FFC4F81C52404624
:1078F000251D09F0AFF940464FF0220109F0D4F9F7
:107900003946284607F046FD0399284607F042FD10
:107910000499284607F03EFD0599284607F03AFDF0
:107920000699284607F036FD5946284607F032FDED
:107930000799284607F02EFD5146284607F02AFDF4
:107940002846414607F026FD20460DB0BDE8F08FE1
:10795000D4900108E8B2010830900108EC8C0108CD
:10796000BC900108E9750008288E010870B3010871
:1079700070B590F838300446002B3CD0408FA18F72
:10798000884202DA0130608770BDE38F5A18904256
:1079900015D8B4F84050B4F84220401A521B12B225
:1079A0000021656C80B2A84794F84030184484F8F0
:1079B0002E0020460BF0F0FC638F01336387A38F0A
:1079C000E18F628F0B449A4215D9002384F8383036
:1079D000E3870BF0E7F821460BF01AF9A06C50B1E1
:1079E0000368DB68984730B1A06C036821469B6848
:1079F000BDE87040184770BD08B5FFF7B9FF08BD76
:107A000070B590F8742100250446C0F8845100F543
:107A10009E7622B90BF0C6F831460BF0C9F894F8FF
:107A20006A31A4F87C31FF23A4F87E313023A4F816
:107A30007A31074BC4F88031012384F87431D4F8CB
:107A40007831A4F8765113B93046FFF791FF70BD35
:107A5000C13D0108704770474160704770477047EB
:107A60000123037270477047704770477047704733
:107A70007047704743681A6800F12801926E1846F3
:107A8000104700001FB50A4B04468DE81800182364
:107A9000029340680123039303686946DB6F9847AC
:107AA0006068036804F128015B6E984704B010BD5C
:107AB0006C9201087047000010B5064AB2F9004008
:107AC000054A8480B2F90010C18000220280428001
:107AD00010BD00BF1CAB00201EAB002010B4C2685C
:107AE0008368406812F0010F4FEA620218BF8458A1
:107AF000104418BFE3585DF8044B184743682BB196
:107B000083682BB9C06800F00100704718467047C1
:107B10000120704710B4C2688368406812F0010FFA
:107B20004FEA620218BF8458104418BFE3585DF84A
:107B3000044B184743682BB183682BB9C06800F029
:107B4000010070471846704701207047704743682E
:107B50001A6800F12801926E184610471FB50A4BAB
:107B600004468DE81800182302934068012303930C
:107B700003686946DB6F98476068036804F1280171
:107B80005B6E984704B010BD8091010870470000FB
:107B900010B5064AB2F90040054A8480B2F90010D7
:107BA000C18000220280428010BD00BF1CAB0020BB
:107BB0001EAB002010B4C2688368406812F0010F49
:107BC0004FEA620218BF8458104418BFE3585DF8AA
:107BD000044B184743682BB183682BB9C06800F089
:107BE000010070471846704701207047C2688368DB
:107BF000406812F0010F4FEA620218BF815810442A
:107C000018BFCB58184743682BB183682BB9C0689D
:107C100000F001007047184670470120704710B50A
:107C20000C2104460FF0B6F8204610BD10B54FF4F5
:107C3000A87104460FF0AEF8204610BD10B5102113
:107C400004460FF0A7F8204610BD10B528210446C1
:107C50000FF0A0F8204610BD10B5282104460FF003
:107C600099F8204610BD10B5502104460FF092F847
:107C7000204610BD10B5102104460FF08BF82046A9
:107C800010BD10B5102104460FF084F8204610BD39
:107C900010B5502104460FF07DF8204610BD10B5F8
:107CA000102104460FF076F8204610BD70B5164638
:107CB0000C4605460AF076FF0AF0C1FF306810B1A5
:107CC0000368DB689847306810B103681B68984701
:107CD000286810B103685B699847206810B1036891
:107CE0005B689847286810B103681B68984720684C
:107CF00020B10368BDE870409B68184770BD70B53F
:107D000003680E46DB6814460546984733683046DC
:107D10001B689847214628460BF0D8FF2368204669
:107D20001B6998470AF03EFF0368BDE870409B6AF4
:107D3000184710B4034608461A7F032A12D8DFE812
:107D400002F00B0B02020268B3F92210546D0022FC
:107D500023465DF8044B184702680021546DB3F9BF
:107D60002220F5E701221A725DF8044B704710B427
:107D7000034608461A7F032A12D8DFE802F00B0BED
:107D800002020268B3F92210546D002223465DF806
:107D9000044B184702680021546DB3F92220F5E71F
:107DA00001221A725DF8044B704710B4034608466E
:107DB000DA6B8A4218D093F85020032A12D8DFE8F1
:107DC00002F00B0B02020268B3F95610546D002248
:107DD00023465DF8044B184702680021546DB3F93F
:107DE0005620F5E701221A725DF8044B7047000037
:107DF000054B1B7833B143681A6800F10C01926E91
:107E000018461047704700BF27AB0020034B1A8865
:107E1000036852425B6D12B2002118471EAB00206E
:107E200010B490F850200B46032A22D8DFE802F065
:107E3000151A020D10491A68B1F90010546D00228C
:107E4000184623465DF8044B18470B4A11881A68F8
:107E50004942546D09B20022F2E718465DF8044B1E
:107E6000FFF7D4BF1A68546D044A0021B2F900200C
:107E7000E6E75DF8044B70471CAB00201EAB00200A
:107E800010B4027F0B46032A22D8DFE802F0151A4D
:107E9000020D11491A68B1F90010546D00221846FC
:107EA00023465DF8044B18470B4A11881A6849426B
:107EB000546D09B20022F2E718465DF8044BFFF753
:107EC000A5BF1A68546D054A0021B2F90020E6E703
:107ED0005DF8044B704700BF1CAB00201EAB0020B8
:107EE00010B4027F0B46032A22D8DFE802F0151AED
:107EF000020D11491A68B1F90010546D002218469C
:107F000023465DF8044B18470B4A11881A6849420A
:107F1000546D09B20022F2E718465DF8044BFFF7F2
:107F200075BF1A68546D054A0021B2F90020E6E7D2
:107F30005DF8044B704700BF1CAB00201EAB002057
:107F4000F0B50446807F637F0130C0B2984287B0AD
:107F5000A07730DCB4F9202000210BF007FF82B2BB
:107F600012F001032DD04FF6FF710028D8BF0B4649
:107F700013446384B4F92220A38CA284D31AA27F71
:107F80009BB219B2012A618440D12D4A1278002A8D
:107F90003CD00022ADF80820ADF80A20ADF80C2046
:107FA000ADF80E20227F274E274D032A12D8DFE896
:107FB00002F039410A34012323720023A37707B06A
:107FC000F0BD6084D6E732881344ADF80C302B88BE
:107FD000ADF80E301D4F386803689B6A98473288A9
:107FE000ADF814202A88ADF816203A680023956869
:107FF000ADF81030ADF812302A680193FF230093DA
:108000001669014602AB04AA2846B04760680368B7
:1080100004F10C01DB6F9847D1E73288ADF8081006
:10802000D31AD2E73288ADF80C202A88ADF80A10AE
:10803000D31ACDE73288ADF80C202A881344C7E75D
:1080400026AB00201CAB00201EAB002028AB00207C
:10805000F0B50446807F637F0130C0B2984287B09C
:10806000A07730DCB4F9202000210BF07FFE82B233
:1080700012F001032DD04FF6FF710028D8BF0B4638
:1080800013446384B4F92220A38CA284D31AA27F60
:108090009BB219B2012A618440D12D4A1278002A7C
:1080A0003CD00022ADF80820ADF80A20ADF80C2035
:1080B000ADF80E20227F274E274D032A12D8DFE885
:1080C00002F039410A34012323720023A37707B059
:1080D000F0BD6084D6E732881344ADF80C302B88AD
:1080E000ADF80E301D4F386803689B6A9847328898
:1080F000ADF814202A88ADF816203A680023956858
:10810000ADF81030ADF812302A680193FF230093C8
:108110001669014602AB04AA2846B04760680368A6
:1081200004F10C01DB6F9847D1E73288ADF80810F5
:10813000D31AD2E73288ADF80C202A88ADF80A109D
:10814000D31ACDE73288ADF80C202A881344C7E74C
:1081500026AB00201CAB00201EAB002028AB00206B
:1081600010B5294B1B78044613B90123037210BDC7
:1081700090F8520094F851300130C0B2984284F81F
:10818000520018DCB4F9542000210BF0EFFD82B24C
:1081900012F0010315D04FF6FF710028D8BF0B462F
:1081A0001344A4F8563094F85030032B29D8DFE854
:1081B00003F01F1F0B0B01232372002384F852309E
:1081C00010BDA4F85600EEE7B4F85610238AC91A79
:1081D00009B2A4F85610002204F10C000BF00EF9BD
:1081E0006068036804F14001DB6FBDE81040184788
:1081F000B4F85620638AD21A12B2A4F8562000218D
:10820000EAE701232372EBE727AB00201FB50C4BF5
:108210001B7804468BB10B4B40688DE8180018237F
:1082200002930123039303686946DB6F98476068F4
:10823000036804F10C015B6E984704B010BD00BFE9
:1082400027AB00202C92010870B504460D46164657
:108250000AF00EFD0C4BC4F848611C600B4B236008
:1082600000200B4BC4F83001C4F83401C4F83C01C1
:10827000C4F84001C4F84401C4F83831C4F84C5182
:1082800000F086FE204670BD84AB002024910108DA
:108290000C910108064BC0F840310023C0F844316E
:1082A00000F59C73C0F83C01C0F83431704700BF42
:1082B00039840008064BC0F840310023C0F844312F
:1082C00000F59C73C0F83C01C0F83431704700BF22
:1082D000B1850008064BC0F840310023C0F8443196
:1082E00000F59C73C0F83C01C0F83431704700BF02
:1082F00025880008064BC0F840310023C0F84431FF
:1083000000F59C73C0F83C01C0F83431704700BFE1
:1083100021890008064BC0F840310023C0F84431E1
:1083200000F59C73C0F83C01C0F83431704700BFC1
:10833000AD860008064BC0F840310023C0F8443138
:1083400000F59C73C0F83C01C0F83431704700BFA1
:10835000E98A000803685B6A184703685B6A184784
:108360002DE9F04780469068089F9A4603681B6A8B
:10837000894614469847B0F5147F05D2284B294A00
:10838000C22129480FF0EEFA606803681B6A98471B
:108390000F2803D8254B234AC321F2E7E06803687E
:1083A0001B6A98470B2803D8214B1E4AC421E8E7D3
:1083B000524649464046FFF779FCE06803680021D1
:1083C0005B6A9847054620B1002343600372194B4E
:1083D00003600021A068FFF7BDFF064608B1FCF767
:1083E0008FFF60680021FFF7B8FF044610B13146E7
:1083F000FCF76AFFCAF80050C9F80040C8F80060EE
:108400005CB1231D3B603046A7602A46F4632146D9
:10841000FFF775FC2046BDE8F0872346F2E700BF72
:10842000109301084B9501089E93010805940108DB
:10843000A89401086091010807B5D0F84C31009369
:10844000D0F84821044B00F598710448FFF788FFE5
:1084500003B05DF804FB00BF80AB00207CAB0020C4
:108460001A4B13B503600446194BC36000221C234A
:1084700042600272206143610123836184F84D30C0
:10848000144BA362144B61771B88A2775942218455
:1084900012496284B1F90010009102202077A28471
:1084A00004F12800A285E28522866286A286E28601
:1084B00022876287E2632264626484F84C201BB2E4
:1084C0001146FDF7E1FA204602B010BD0492010802
:1084D00080910108989101081CAB00201EAB002080
:1084E0002DE9F04780469068089F9A4603681B6A0A
:1084F000894614469847B0F5147F05D2274B284A81
:10850000C22128480FF02EFA606803681B6A98475A
:108510000F2803D8244B224AC321F2E7E0680368FE
:108520001B6A98474F2803D8204B1D4AC421E8E70F
:10853000524649464046FFF7B9FBE0680368002110
:108540005B6A9847064610B11421FFF789FF0021A6
:10855000A068FFF7FFFE054608B1FCF7D1FE606892
:108560000021FFF7FAFE044610B12946FCF7ACFEE5
:10857000CAF80060C9F80040C8F800505CB1231D7B
:108580003B602846A7603246EC632146FFF7B7FB05
:108590002046BDE8F0872346F2E700BF10930108AC
:1085A0004F9601089E93010805940108A8940108BC
:1085B00007B5D0F84C310093D0F84821044B00F5B2
:1085C00098710448FFF78CFF03B05DF804FB00BF0F
:1085D00080AB00207CAB00202DE9F04780469068FE
:1085E000089F9A4603681B6A89461446984740F2DA
:1085F0004343984205D8284B284AC22128480FF007
:10860000B1F9606803681B6A98470F2803D8254BA7
:10861000224AC321F2E7E06803681B6A98474F28A3
:1086200003D8214B1D4AC421E8E75246494640463B
:10863000FFF73CFBE068036800215B6A9847064649
:1086400010B11421FFF70CFFA068036800215B6ADA
:108650009847054608B1FCF795FD6068036800215E
:108660005B6A9847044610B12946FCF7FDFDCAF83D
:108670000060C9F80040C8F800505CB1231D3B60A1
:108680002846A7603246EC632146FFF738FB2046B8
:10869000BDE8F0872346F2E710930108DD9A010850
:1086A0009E93010805940108A894010807B5D0F825
:1086B0004C310093D0F84821044B00F598710448E0
:1086C000FFF78AFF03B05DF804FB00BF80AB00201A
:1086D0007CAB00201A4B13B503600446194BC360F2
:1086E00000221C23426002722061436101238361E6
:1086F00084F84D30144B6177A3621449144BB1F9DF
:108700000010B3F90030A27703202077009104F124
:1087100028006284A284A285E28522866286A286DF
:10872000E28622876287E2632264626484F84C20D6
:1087300023841146FDF7A8F9204602B010BD00BF02
:10874000F09201086C920108849201081EAB00208F
:108750001CAB00202DE9F04780469068089F9A46A0
:1087600003681B6A894614469847B0F5147F05D202
:10877000274B284AC22128480FF0F4F860680368A4
:108780001B6A98470F2803D8244B224AC321F2E7DB
:10879000E06803681B6A98474F2803D8204B1D4A9E
:1087A000C421E8E7524649464046FFF77FFAE068B1
:1087B000036800215B6A9847064610B11421FFF751
:1087C00089FF0021A068FFF7C5FD054608B1FCF749
:1087D00097FD60680021FFF7C0FD044610B12946EF
:1087E000FCF772FDCAF80060C9F80040C8F80050F4
:1087F0005CB1231D3B602846A7603246EC632146EE
:10880000FFF77DFA2046BDE8F0872346F2E700BF78
:10881000109301086F9701089E93010805940108C1
:10882000A894010807B5D0F84C310093D0F848213E
:10883000044B00F598710448FFF78CFF03B05DF816
:1088400004FB00BF80AB00207CAB00202DE9F0478B
:1088500080469068089F9A4603681B6A89461446BA
:10886000984740F61B63984205D8284B284AC221F6
:1088700028480FF077F8606803681B6A98470F284C
:1088800003D8254B224AC321F2E7E06803681B6A3C
:1088900098474F2803D8214B1D4AC421E8E7524688
:1088A00049464046FFF702FAE068036800215B6A28
:1088B0009847064610B11421FFF70CFFA068036823
:1088C00000215B6A9847054608B1FCF741FB6068E8
:1088D000036800215B6A9847044610B12946FCF7FB
:1088E000DFFBCAF80060C9F80040C8F800505CB16E
:1088F000231D3B602846A7603246EC632146FFF704
:10890000FEF92046BDE8F0872346F2E71093010800
:108910008F9801089E93010805940108A894010806
:1089200007B5D0F84C310093D0F84821044B00F53E
:1089300098710448FFF78AFF03B05DF804FB00BF9D
:1089400080AB00207CAB002010B5044B044640F8FF
:108950000C3B08F06DF8204610BD00BF44920108A2
:1089600010B50446FFF7F0FF204658210EF012FA2A
:10897000204610BD2DE9F04F814690689B46036864
:1089800085B01B6A8A4615469847B0F58A7F05D29E
:108990004B4B4C4AC2214C480EF0E4FF6868036818
:1089A0001B6A98470F2803D8484B464AC321F2E771
:1089B000E86803681B6A9847572803D8444B414A24
:1089C000C421E8E75A4651464846FFF76FF9E86880
:1089D000036800215B6A9847044600283FD006469A
:1089E00000223C4B4260027246F80C3B3046039238
:1089F00008F088F8384B23641C23A3640123E36444
:108A0000022384F85030142384F85130334B039AF6
:108A10001B78E663646484F85220A4F85620F3B10E
:108A20002F4FDFF8C080B7F90010B8F9003000917F
:108A300030461146FDF728F8304607F0FBFF94F862
:108A40005030032B37D8DFE803F032340206B8F891
:108A500000305B4201E0B8F80030A4F85430A86858
:108A6000036800215B6A9847064608B1FDF702F8E3
:108A70006868036800215B6A9847054610B1314673
:108A8000FCF7DEFFCBF80040CAF80050C9F80060E0
:108A9000A5B12B1D0E9A304613602946AA60F563D6
:108AA0002246FFF72CF9284605B0BDE8F08F3B8839
:108AB000D3E73B88CDE701232372D0E72B46E9E7D4
:108AC00010930108B59901089E93010805940108C7
:108AD000A8940108449201082C92010827AB0020B9
:108AE0001EAB00201CAB002007B5D0F84C31009322
:108AF000D0F84821044B00F598710448FFF73AFF7D
:108B000003B05DF804FB00BF80AB00207CAB00200D
:108B100070477047704710B4C2688368406812F0AD
:108B2000010F4FEA620218BF8458104418BFE3587F
:108B30005DF8044B184743682BB183682BB9C068B4
:108B400000F001007047184670470120704710B5CB
:108B5000102104460EF01EF9204610BD10B54FF44A
:108B60008A7104460EF016F9204610BDA4308842E2
:108B700008B505D10AF016F8BDE80840FFF78ABB32
:108B800008BD00002DE9F04F044687B026460025B9
:108B90000AF01EFF614BE56306AF46F8403B4FF617
:108BA000FF7B27F804BD3046FDF700F95C4A2264DC
:108BB00039463046A4F866B084F868B0039204F1F0
:108BC000700A08F088FC57492164A4F86A50A4F898
:108BD0006C505046FDF7EAF804F1A40952492167A8
:108BE000C4F89850A4F89C5084F89F5084F8A05082
:108BF00084F8A150A4F896B084F89EB04846FDF7DA
:108C0000D5F804F1D8084FF00103484984F8C8307A
:108C1000C4F8CC5084F8D050C4F8A410A4F8D2B052
:108C2000A4F8D4B084F8D6B04046ADF814B0FDF73F
:108C3000BDF8039AC4F8D82039464046A4F8FEB0DF
:108C400084F800B108F047FC394BC4F80431394BC3
:108C5000C4F80C31C4F81051072339463046C4F823
:108C60000841ADF8143008F0CAF84FF4A07300932F
:108C70002A46F02329463046FCF706FF2A462946B5
:108C8000304608F09AF8504628221421FCF714FFC9
:108C90002A46294628460BF0FBFDA4F89C50C4F850
:108CA00098004FF02101504607F0FEFF48466FF054
:108CB0000402BC21FCF700FF4FF001033A4604A96F
:108CC0004846ADF81050ADF8143008F058FA04F5E5
:108CD00082732A46C4F8CC3084F8D6504046D0215E
:108CE000FCF7EAFE251D112339464046ADF8143045
:108CF00008F0F1FB3146284606F04CFB5146284669
:108D000006F048FB4946284606F044FB2846414603
:108D100006F040FB204607B0BDE8F08F289C010814
:108D200084B40108E8B2010800B2010870B3010878
:108D3000109C01086D8B00087047000030B5154D80
:108D40002B78BFF35B8F13F0010489B01FD1284645
:108D50000EF022F8D8B13F2306930F4B05930F4B2B
:108D6000079408224FF0050E049304240A2303926B
:108D70008DE818400A490B4828230BF079F828465B
:108D80000EF016F8084A094906480DF0FEFF05489E
:108D900009B030BD280B0020440102088CF70108FF
:108DA000ACC20108700B002000020020398D0008C1
:108DB00030B5154D2C78BFF35B8F14F0010489B0EA
:108DC0001ED128460DF0E8FFD0B13F2306930F4B8C
:108DD00005930F4B04930721042203238DE80E0013
:108DE000079428220B4903941E230B480BF040F8EC
:108DF00028460DF0DDFF094A094907480DF0C5FF77
:108E0000054809B030BD00BF200B00202CD9010857
:108E10001CC3010848010208300B0020000200209A
:108E2000398D000830B5154D2C78BFF35B8F14F0E9
:108E3000010489B01ED128460DF0AEFFD0B13F230A
:108E400006930F4B05930F4B0493062204238DE8E2
:108E50000C000D49079423221B23039402940B4812
:108E60000BF006F828460DF0A3FF094A0949074808
:108E70000DF08BFF054809B030BD00BF240B00206A
:108E80000801020848E80108C0C00108500B002092
:108E900000020020398D000830B5154D2B78BFF346
:108EA0005B8F13F0010489B01FD128460DF074FFC9
:108EB000D8B13F2306930F4B05930F4B0493022326
:108EC00003930293052204238DE80C000B490794B9
:108ED0001A2219230A480AF0CBFF28460DF068FF32
:108EE000084A094906480DF050FF054809B030BD51
:108EF0002C0B002004010208B4D9010854BF01085A
:108F0000900B002000020020398D000810B52021B0
:108F100004460DF03FFF204610BD704703290BD8D3
:108F2000DFE801F002040608FFF77CBFFFF706BF89
:108F3000FFF73EBFFFF7B0BF0020704710B5042118
:108F400004460DF027FF204610BD00000048704782
:108F5000689C0108152070470048704730810B0855
:108F60002520704700487047B00B002010B5FFF770
:108F700059FF064C2060FFF7E1FE6060FFF718FF25
:108F8000A060FFF789FFE06010BD00BFB00B0020BC
:108F900038B50A4B0A4A18800A4B1A60FFF7DCFF03
:108FA0000546FFF7DFFF0446FFF7DAFF064B1D60BB
:108FB000064B1C60064B188038BD00BFC00B00205C
:108FC0005C7E0B08C40B002088AB002090AB002017
:108FD0008CAB0020014B024A1A607047C40B002082
:108FE0005C7E0B08032208B50021012001F0A6F8E1
:108FF000074A106020B100231A46194601F0C2F852
:1090000001210022084601F099F8024B186008BDC2
:10901000C80B0020CC0B0020034800234FF0FF3288
:109020001946006801F01ABAC80B00200348002353
:109030001A461946006801F0A5B800BFC80B002009
:10904000034800231A461946006801F007BA00BF1A
:10905000C80B002007B502A9002341F8043D084BC6
:10906000186801F0A7F9019B3BB1064B4FF0805205
:109070001A60BFF34F8FBFF36F8F03B05DF804FB2F
:10908000C80B002004ED00E007B50B4B186880B159
:1090900002AA002342F8043D084901F029F9019B86
:1090A0003BB1074B4FF080521A60BFF34F8FBFF3B5
:1090B0006F8F03B05DF804FBCC0B0020240200206E
:1090C00004ED00E070B5084D084C00231A4629460F
:1090D000206801F0C3F92946206800234FF0FF32D1
:1090E000BDE8704001F0BAB924020020CC0B00208A
:1090F000024B18680368DB68184700BF28AB0020E4
:1091000007B500F0B9F800F0FBFA032200238DE860
:109110000C00044904484FF4806201F0FBFA01F0AE
:10912000D1FBFEE70C9E0108F190000870477047E4
:10913000704770470120704758207047582303FB41
:10914000010008307047582303FB010008307047C6
:109150000120704740F61C60704740F61C6303FB1B
:1091600001000830704740F61C6303FB0100083023
:109170007047012070471020704700EB0110083045
:10918000704700EB0110083070470846FFF782B8BF
:1091900010B5034B0360044605F058FE204610BD91
:1091A000849E010810B50446FFF7F2FF20466021B7
:1091B0000DF0F0FD204610BD10B5034B03600446D2
:1091C00005F044FE204610BD509E010810B504462F
:1091D000FFF7F2FF204640F624610DF0DBFD20464C
:1091E00010BD000010B5034B0360044605F02EFED1
:1091F000204610BD1C9E010810B50446FFF7F2FF83
:10920000204618210DF0C6FD204610BD10B5084BB4
:109210000360044600F56560FFF7BAFF04F12C0017
:10922000FFF7CAFF04F11400FFF7DCFF204610BD72
:10923000B89E010810B50446FFF7E8FF204641F24A
:109240003C010DF0A7FD204610BD10B504210446D9
:109250000DF0A0FD204610BD08B5024B1B689B6AAF
:10926000984708BD541D002008B5024B1B68DB6AF7
:10927000984708BD541D00202DE9F04F9FB09C4C2D
:109280009C4E002503F0C4F90295236C43F08053F3
:109290002364236C03F080530293974B03951A6861
:1092A00042F440421A601B6803F4404303934FF4B6
:1092B000803312934FF4800302274FF0010B189371
:1092C0004FF4A87208234FF0070811A819930193CF
:1092D000CDF844B01A9217971B97CDF8708004F020
:1092E00073FB0F220C924FF4A0594FF480520521CA
:1092F0000CA810920D970E95CDF83C9004F00AFD45
:109300007E4A7F4832601D22019BF26140F20D12BD
:109310007262036040F24312C023B262036140F202
:10932000171204234FF0090AC6F818B0F2624FF082
:10933000030B40F2471283614FF400333263C6F8E7
:1093400014A0C6F820B086F8365086F8345086F857
:109350003550436204F0AAFD04957560B560F56070
:109360003561636C674843F080636364636C03F04A
:10937000806304930595236B43F400032363236BFD
:1093800003F4000305930695236B43F48053236392
:10939000236B03F4805306930795236B43F001037B
:1093A0002363236B03F0010307930895236B3B436F
:1093B0002363236B3B4008930995236B43F004031D
:1093C0002363236B03F0040309930A95236B43F093
:1093D00008032363236B03F008030A930B95236BA5
:1093E00043F020032363236B03F020030B930C95BE
:1093F000236B43F040032363236B129703F0400376
:109400000C9341F65803119311A90E23159313954C
:10941000149703F071FC4FF4706311933A4B01936E
:10942000184611A903F068FC4FF4986211A9374857
:10943000119203F061FC482211A935481192A4F55C
:10944000005403F059FC4FF4806211A93148119285
:1094500003F052FC4FF40C6211A92046119203F064
:109460004BFC019BCDF844B0184611A9CDF854A08F
:1094700003F042FC11A92046CDF8449003F03CFCD7
:10948000304604F0E3F9244A244B13601B689847E4
:1094900002F0D6FF1195FFF7DFFE13951290FFF74C
:1094A000E3FE4FF050431A93FF2316934FF4C0632B
:1094B00018931490159717958DF874508DF8755072
:1094C0008DF87650CDF86480FFF7C6FE1B90FFF74D
:1094D000CBFE2A4611A91C90304604F031FA3046E2
:1094E00004F058FA00F0E0F91FB0BDE8F08F00BFBB
:1094F000003802407C1C00200070004000680140E1
:10950000241D002000000240000402400008024028
:10951000000C024000140240541D00203C020020B8
:109520002DE9F743614E3578BFF35B8F15F00105E8
:109530008046894617461C4656D130460DF02CFC15
:10954000002851D0A3B25A4CBDF82800C4F80480BA
:10955000012284F8452084F8462084F8542084F8B9
:109560005720544AC4F80890E76025616561258357
:109570006583A583E58325846584A58484F82650C6
:10958000A562A5856563A563E563256484F84450F9
:1095900084F8555084F8565084F8585084F859503F
:1095A00084F85A5084F85B5084F85C502566146047
:1095B000414A84F865501380404A1080404A157033
:1095C000404A83421380404AACBF002301231080ED
:1095D00084F8303030463D4B23600DF0E9FB3C4AC7
:1095E0003C4920460DF0D1FB31483B4F06F0A6FE2A
:1095F000FFF7ACFC0446FFF7ADFC0D9B0093014662
:109600000C9B0B9A20460BF031FA344B344A1A600B
:109610000020FFF7BDFC33480BF092F93B78BFF315
:109620005B8FDB0738D438460DF0B6FB002833D00B
:109630002D4E2E4B336006F56B6806F1140006F1D3
:109640002C0506F565647060B560F460C6F810809E
:1096500005F0FEFB264B7361284605F0F9FB254B10
:10966000F362204605F0F4FB234BC6F8503E324629
:1096700006F580514046FCF7C9F906F58050FBF726
:1096800077FE4046FEF706FE38460DF091FB104A85
:109690001A4930460DF079FB09F084FA0146044876
:1096A00006F08EFD024803B0BDE8F083D00B002029
:1096B000D40B002028AB00201CAB00201EAB0020E8
:1096C00020AB002022AB002024AB002014A0010816
:1096D000000200202F9100083C0C002094AB0020D9
:1096E0000428002028020020400C0020B89E010819
:1096F0001C9E0108509E0108849E01080D920008DE
:10970000F0B585B000264FF4A0730396029601963B
:109710000093124A12491348F023FFF701FF124B3E
:1097200001251D700368009504465F6F10222B46CB
:109730004FF05041B84784F8586084F846600B4EAB
:1097400084F84550022384F85430304600F068F81D
:10975000266184F85C5005B0F0BD00BF2C020020EB
:1097600030020020581D002048280020F827002043
:1097700010B5682104460DF00DFB204610BD10B554
:109780000C2104460DF006FB204610BD10B5042147
:1097900004460DF0FFFA204610BD000038B5124C0B
:1097A000124D1349134822460DF0EFFA284600F0F7
:1097B00063FA2246104928460DF0E7FA22460F497F
:1097C0000F480DF0E2FA0F480F490023436022468C
:1097D00083600E4B03600DF0D8FA22460C490D4809
:1097E000BDE838400DF0D1BA00020020581D00201D
:1097F0001B8F0008280200203D99000833910008C3
:109800002C020020F827002031910008CC9E01088E
:109810002D91000830020020406870474160704779
:10982000054A136843F080731360044A136843F0D9
:1098300001031360704700BFFCED00E0001000E082
:10984000521A02EB5302B2FBF3F07047014B186857
:10985000704700BF041000E010B5036804461B69A0
:1098600031B19847A26863689B1A1844606010BDC4
:109870009847A06010BD0000044A0121115408B9A6
:1098800002F074BB0128FBD0704700BF49280020BC
:10989000044A0021115408B902F05ABB0128FBD038
:1098A000704700BF4928002008B5002002F014FBD3
:1098B000012002F011FB0020FFF7EAFF0120BDE8C4
:1098C0000840FFF7E5BF0000034B1B5C0BB1FFF73F
:1098D000DFBFFFF7D1BF00BF4928002010B5FFF759
:1098E000BBFC0446FFF7C0FC81B2A0B2BDE810404B
:1098F00002F0E4BD37B568460D46144602F000FE9E
:10990000BDF8000030B1BDF802302B60BDF8043066
:109910002360012003B030BD03681B6C1847036847
:109920005B6A184770470000034B1B78002B40F21E
