:020000040800F2
:1000000000000320D1C90008699400086B9400081F
:100010006D9400086F9400087194000800000000BF
:1000200000000000000000000000000041910008F6
:100030007394000800000000D19100087594000836
:1000400021CA000821CA000821CA000821CA0008E4
:1000500021CA000821CA000821CA000821CA0008D4
:1000600021CA000821CA000821CA000821CA0008C4
:1000700021CA000821CA000821CA000821CA0008B4
:1000800021CA000821CA000821CA000821CA0008A4
:1000900021CA000821CA000821CA000821CA000894
:1000A00021CA000821CA000821CA000821CA000884
:1000B00021CA000821CA000821CA000821CA000874
:1000C00021CA000821CA000821CA000821CA000864
:1000D00021CA000821CA000821CA000821CA000854
:1000E00021CA000821CA000821CA000821CA000844
:1000F00021CA000821CA000821CA000821CA000834
:1001000021CA000821CA000821CA000821CA000823
:1001100021CA000821CA00085D94000821CA00080D
:1001200021CA000821CA000821CA000821CA000803
:1001300021CA000821CA000821CA000821CA0008F3
:1001400021CA000821CA000821CA000821CA0008E3
:1001500021CA000821CA000821CA000821CA0008D3
:1001600021CA000821CA000821CA000821CA0008C3
:1001700021CA000821CA000821CA000800000000A6
:1001800021CA000821CA000821CA000821CA0008A3
:1001900021CA000821CA000821CA000821CA000893
:0C01A000AD7B00089194000885940008D5
:1040000010B5054C237833B9044B13B10448AFF312
:1040100000800123237010BD040B0020000000006D
:10402000C86301080C4B43B10C480D4910B5AFF300
:1040300000800C48036823B910BD0A48036833B9EF
:104040007047094B002BF7D0BDE810401847064BCE
:10405000002BF5D0184700BF00000000C86301081E
:10406000080B0020040B00200000000081F000413C
:1040700002E000BF83F0004330B54FEA41044FEA4D
:10408000430594EA050F08BF90EA020F1FBF54EAE8
:10409000000C55EA020C7FEA645C7FEA655C00F084
:1040A000E2804FEA5454D4EB5555B8BF6D420CDD55
:1040B0002C4480EA020281EA030382EA000083EAD8
:1040C000010180EA020281EA0303362D88BF30BD78
:1040D00011F0004F4FEA01314FF4801C4CEA1131CE
:1040E00002D0404261EB410113F0004F4FEA03332D
:1040F0004CEA133302D0524263EB430394EA050FB8
:1041000000F0A780A4F10104D5F1200E0DDB02FA26
:104110000EFC22FA05F2801841F1000103FA0EF2BA
:10412000801843FA05F359410EE0A5F120050EF180
:10413000200E012A03FA0EFC28BF4CF0020C43FAB1
:1041400005F3C01851EBE37101F0004507D54FF0BE
:10415000000EDCF1000C7EEB00006EEB0101B1F50E
:10416000801F1BD3B1F5001F0CD349085FEA300054
:104170004FEA3C0C04F101044FEA445212F5800F5F
:1041800080F09A80BCF1004F08BF5FEA500C50F1FC
:10419000000041EB045141EA050130BD5FEA4C0CDF
:1041A000404141EB010111F4801FA4F10104E9D168
:1041B00091F0000F04BF01460020B1FA81F308BF5F
:1041C0002033A3F10B03B3F120020CDA0C3208DD2B
:1041D00002F1140CC2F10C0201FA0CF021FA02F106
:1041E0000CE002F11402D8BFC2F1200C01FA02F176
:1041F00020FA0CFCDCBF41EA0C019040E41AA2BF9B
:1042000001EB0451294330BD6FEA04041F3C1CDA62
:104210000C340EDC04F11404C4F1200220FA04F082
:1042200001FA02F340EA030021FA04F345EA03012C
:1042300030BDC4F10C04C4F1200220FA02F001FAEE
:1042400004F340EA0300294630BD21FA04F0294670
:1042500030BD94F0000F83F4801306BF81F4801109
:104260000134013D4EE77FEA645C18BF7FEA655C7C
:1042700029D094EA050F08BF90EA020F05D054EA4E
:10428000000C04BF1946104630BD91EA030F1EBF53
:104290000021002030BD5FEA545C05D14000494157
:1042A00028BF41F0004130BD14F580043CBF01F54A
:1042B000801130BD01F0004545F0FE4141F4700130
:1042C0004FF0000030BD7FEA645C1ABF194610460B
:1042D0007FEA655C1CBF0B46024650EA013406BF0C
:1042E00052EA033591EA030F41F4002130BD00BFCB
:1042F00090F0000F04BF0021704730B54FF4806488
:1043000004F132044FF000054FF0000150E700BF08
:1043100090F0000F04BF0021704730B54FF4806467
:1043200004F1320410F0004548BF40424FF0000154
:104330003EE700BF42004FEAE2014FEA31014FEA97
:1043400002701FBF12F07F4393F07F4F81F06051E6
:10435000704792F0000F14BF93F07F4F704730B555
:104360004FF4607401F0004521F0004120E700BFE8
:1043700050EA010208BF704730B54FF000050AE06F
:1043800050EA010208BF704730B511F0004502D570
:10439000404261EB41014FF4806404F132045FEA72
:1043A000915C3FF4DCAE4FF003025FEADC0C18BF17
:1043B00003325FEADC0C18BF033202EBDC02C2F10D
:1043C000200300FA03FC20FA02F001FA03FE40EA9F
:1043D0000E0021FA02F11444C1E600BF70B54FF09F
:1043E000FF0C4CF4E06C1CEA11541DBF1CEA135581
:1043F00094EA0C0F95EA0C0F00F0DEF82C4481EAE9
:10440000030621EA4C5123EA4C5350EA013518BF08
:1044100052EA033541F4801143F4801338D0A0FBF5
:1044200002CE4FF00005E1FB02E506F00042E0FBA2
:1044300003E54FF00006E1FB03569CF0000F18BFA8
:104440004EF0010EA4F1FF04B6F5007F64F5407450
:1044500004D25FEA4E0E6D4146EB060642EAC621E3
:1044600041EA55514FEAC52040EA5E504FEACE2E50
:10447000B4F1FD0C88BFBCF5E06F1ED8BEF1004F53
:1044800008BF5FEA500E50F1000041EB045170BDCF
:1044900006F0004646EA010140EA020081EA030113
:1044A000B4EB5C04C2BFD4EB0C0541EA045170BD0F
:1044B00041F480114FF0000E013C00F3AB8014F189
:1044C000360FDEBF002001F0004170BDC4F10004D2
:1044D000203C35DA0C341BDC04F11404C4F1200553
:1044E00000FA05F320FA04F001FA05F240EA0200AE
:1044F00001F0004221F0004110EBD37021FA04F6E4
:1045000042EB06015EEA430E08BF20EAD37070BD9D
:10451000C4F10C04C4F1200500FA04F320FA05F0FC
:1045200001FA04F240EA020001F0004110EBD370FE
:1045300041F100015EEA430E08BF20EAD37070BD6E
:10454000C4F1200500FA05F24EEA020E20FA04F347
:1045500001FA05F243EA020321FA04F001F00041F6
:1045600021FA04F220EA020000EBD3705EEA430E67
:1045700008BF20EAD37070BD94F0000F0FD101F096
:104580000046400041EB010111F4801F08BF013CCF
:10459000F7D041EA060195F0000F18BF704703F00D
:1045A0000046520043EB030313F4801F08BF013D94
:1045B000F7D043EA0603704794EA0C0F0CEA135550
:1045C00018BF95EA0C0F0CD050EA410618BF52EA0A
:1045D0004306D1D181EA030101F000414FF0000010
:1045E00070BD50EA410606BF1046194652EA43061E
:1045F00019D094EA0C0F02D150EA013613D195EA92
:104600000C0F05D152EA03361CBF104619460AD1D9
:1046100081EA030101F0004141F0FE4141F47001E3
:104620004FF0000070BD41F0FE4141F4780170BDD3
:1046300070B54FF0FF0C4CF4E06C1CEA11541DBF38
:104640001CEA135594EA0C0F95EA0C0F00F0A7F83A
:10465000A4EB050481EA030E52EA03354FEA013167
:1046600000F088804FEA03334FF0805545EA13137A
:1046700043EA12634FEA022245EA111545EA106542
:104680004FEA00260EF000419D4208BF964244F1D9
:10469000FD0404F5407402D25B084FEA3202B61AF8
:1046A00065EB03055B084FEA32024FF480104FF4CC
:1046B000002CB6EB020E75EB030E22BFB61A754640
:1046C00040EA0C005B084FEA3202B6EB020E75EBD3
:1046D000030E22BFB61A754640EA5C005B084FEA3B
:1046E0003202B6EB020E75EB030E22BFB61A754608
:1046F00040EA9C005B084FEA3202B6EB020E75EB13
:10470000030E22BFB61A754640EADC0055EA060ED3
:1047100018D04FEA051545EA16754FEA06164FEA16
:10472000C30343EA52734FEAC2025FEA1C1CC0D1C2
:1047300011F4801F0BD141EA00014FF000004FF04F
:10474000004CB6E711F4801F04BF01430020B4F110
:10475000FD0C88BFBCF5E06F3FF6AFAEB5EB030CC8
:1047600004BFB6EB020C5FEA500C50F1000041EBC5
:10477000045170BD0EF0004E4EEA113114EB5C0492
:10478000C2BFD4EB0C0541EA045170BD41F4801165
:104790004FF0000E013C90E645EA060E8DE60CEA6D
:1047A000135594EA0C0F08BF95EA0C0F3FF43BAF8A
:1047B00094EA0C0F0AD150EA01347FF434AF95EA41
:1047C0000C0F7FF425AF104619462CE795EA0C0F25
:1047D00006D152EA03353FF4FDAE1046194622E7F2
:1047E00050EA410618BF52EA43067FF4C5AE50EACC
:1047F00041047FF40DAF52EA43057FF4EBAE12E7BC
:104800004FF0FF3C06E000BF4FF0010C02E000BF9C
:104810004FF0010C4DF804CD4FEA410C7FEA6C5C7F
:104820004FEA430C18BF7FEA6C5C1BD001B050EA22
:10483000410C0CBF52EA430C91EA030F02BF90EA0D
:10484000020F0020704710F1000F91EA030F58BFCC
:10485000994208BF90422CBFD8176FEAE37040F02E
:10486000010070474FEA410C7FEA6C5C02D150EACC
:10487000013C07D14FEA430C7FEA6C5CD6D152EA87
:10488000033CD3D05DF8040B704700BF844610464C
:1048900062468C461946634600E000BF01B5FFF74B
:1048A000B7FF002848BF10F1000F01BD4DF808ED1B
:1048B000FFF7F4FF0CBF012000205DF808FB00BFEC
:1048C0004DF808EDFFF7EAFF34BF012000205DF846
:1048D00008FB00BF4DF808EDFFF7E0FF94BF012093
:1048E00000205DF808FB00BF4DF808EDFFF7CEFF94
:1048F00094BF012000205DF808FB00BF4DF808EDD3
:10490000FFF7C4FF34BF012000205DF808FB00BFA3
:104910004FEA4102B2F1E04324BFB3F5001CDCF1E1
:10492000FE5C0DD901F0004C4FEAC0024CEA507019
:10493000B2F1004F40EB830008BF20F00100704748
:1049400011F0804F21D113F13872BCBF01F000404B
:10495000704741F480114FEA5252C2F11802C2F17D
:10496000200C10FA0CF320FA02F018BF40F00100FE
:104970004FEAC1234FEAD32303FA0CFC40EA0C00B0
:1049800023FA02F34FEA4303CCE77FEA625307D1ED
:1049900050EA01331EBF4FF0FE4040F44000704724
:1049A00001F0004040F0FE4040F40000704700BFBE
:1049B00053B94AB9002908BF00281CBF4FF0FF3186
:1049C0004FF0FF3000F07AB9ADF1080C6DE904CE7C
:1049D00000F006F8DDF804E0DDE9022304B07047DA
:1049E0002DE9F0478C460D460446089E002B51D118
:1049F0008A4217466DD9B2FA82FEBEF1000F0BD083
:104A0000CEF1200C01FA0EF520FA0CFC02FA0EF79A
:104A10004CEA050C00FA0EF44FEA174A250CBCFBD1
:104A2000FAF81FFA87F90AFB18CC45EA0C4508FB8F
:104A300009F3AB420AD9ED1908F1FF3280F0238166
:104A4000AB4240F22081A8F102083D44ED1AA4B225
:104A5000B5FBFAF00AFB105544EA054400FB09F9DE
:104A6000A14509D9E41900F1FF3380F00A81A1457D
:104A700040F2078102383C44A4EB090440EA0840B4
:104A80000021002E61D024FA0EF4002334607360FC
:104A9000BDE8F0878B4207D9002E54D0002186E86C
:104AA00021000846BDE8F087B3FA83F1002940F001
:104AB0008E80AB4202D3824200F2FA80841A65EB08
:104AC00003050120AC46002E3FD086E81010BDE85B
:104AD000F08712B90127B7FBF2F7B7FA87FEBEF1EC
:104AE000000F34D1EB1B3A0C1FFA87FC0121B3FBFA
:104AF000F2F8250C02FB183345EA03450CFB08F3DA
:104B0000AB4207D9ED1908F1FF3002D2AB4200F2F7
:104B1000D1808046ED1AA3B2B5FBF2F002FB10552E
:104B200043EA05440CFB00FCA44507D9E41900F155
:104B3000FF3302D2A44500F2B8801846A4EB0C045F
:104B400040EA08409DE731463046BDE8F087CEF1A7
:104B5000200405FA0EF307FA0EF720FA04F83A0CCF
:104B600025FA04F448EA0308B4FBF2F14FEA1845C9
:104B700002FB11441FFA87FC45EA044501FB0CF3D4
:104B8000AB4200FA0EF409D9ED1901F1FF3080F0C3
:104B90008A80AB4240F2878002393D44EB1A1FFA0B
:104BA00088F5B3FBF2F002FB103345EA034500FB46
:104BB0000CF3AB4207D9ED1900F1FF386FD2AB42CD
:104BC0006DD902383D44EB1A40EA01418FE7C1F14B
:104BD000200722FA07F88B4005FA01F448EA03039C
:104BE00020FA07FE4FEA134CFD404EEA040EB5FBD7
:104BF000FCF94FEA1E440CFB19551FFA83F844EAEE
:104C0000054509FB08F4AC4202FA01F200FA01FA88
:104C100008D9ED1809F1FF3043D2AC4241D9A9F1CE
:104C200002091D442D1B1FFA8EFEB5FBFCF00CFB88
:104C300010554EEA054400FB08F8A04507D9E418D2
:104C400000F1FF3529D2A04527D902381C4440EA9B
:104C50000940A4EB0804A0FB02894C45C6464D461A
:104C600015D312D056B1BAEB0E0364EB050404FA67
:104C700007F7CB401F43CC40376074600021BDE88C
:104C8000F0871846F8E69046E0E6C245EAD2B8EB6F
:104C9000020E69EB03050138E4E72846D7E74046F2
:104CA00091E78146BEE7014678E702383C4445E794
:104CB000084608E7A8F102083D442BE7704700BF0B
:104CC00001F0FF01102A2BDB10F0070F08D010F8BD
:104CD000013B013A8B422DD010F0070F42B3F6D1C1
:104CE000F0B441EA012141EA014122F007047FF0DA
:104CF00000070023F0E80256083C85EA010586EA31
:104D0000010685FA47F5A3FA87F586FA47F6A5FA6C
:104D100087F68EB9EED1F0BC01F0FF0102F0070278
:104D200032B110F8013B013A83EA010313B1F8D123
:104D30000020704701387047002D06BF3546033804
:104D4000073815F0010F07D1013015F4807F02BF3D
:104D5000013015F4C03F0130F0BC0138704700BF8E
:104D600070B51E460368BDF910505B6B044698474A
:104D70002368314620469A6B90472368294620468F
:104D8000DB6BBDE87040184781807047C180704779
:104D900070B503680446DB6A1546984723682946C0
:104DA00020461B6BBDE87040184701817047418168
:104DB000704770477047704770477047C38810B49A
:104DC000D21A83885DF8044BC91A036812B25B6D6E
:104DD00009B218471220704770477047704700F0BB
:104DE000A1BA000010B5044600F0EAFA014B2360B6
:104DF000204610BD30640108D43007F011BF000018
:104E000010B5044B044640F8D43B07F0A5FE2046FD
:104E100010BD00BFF466010810B50446FFF7F0FFAF
:104E200020464FF401710FF0EFFC204610BD704793
:104E30007047A0F10400FBE77047C36881681A68F7
:104E40000969D26A18461047A0F10400FFF7F5BFC0
:104E500010B5102104460FF0D7FC204610BDA0F17C
:104E60000400F5E710B500228260044AC16002F137
:104E7000080424320460426010BD00BF6064010871
:104E80007047704700F0D7BB10B5044600F004FC33
:104E9000014B2360204610BD9C64010810B5044BF3
:104EA000044640F8D03B08F025FA204610BD00BF6C
:104EB0004067010810B50446FFF7F0FF20464FF4A5
:104EC00017710FF0A1FC204610BD70477047A0F18C
:104ED0000400FBE7704710B5102104460FF094FC66
:104EE000204610BDA0F10400F5E7000010B5002237
:104EF0008260044AC16002F108042032046042600A
:104F000010BD00BFC86401087047A0F10400FBE7B2
:104F1000704710B5102104460FF076FC204610BDF6
:104F2000A0F10400F5E78368C068596800F02EB866
:104F3000A0F10400FFF7F7BF806800F091B800000F
:104F400010B500228260044AC16002F108042832D0
:104F50000460426010BD00BFF864010870477047EC
:104F6000704700F0CDBC10B54FF4017104460FF04E
:104F70004BFC204610BD000010B5044600F034FD87
:104F8000014B2360204610BD3C65010810B50B465F
:104F90000446064A052100F5F4700DF0A5F904F564
:104FA0009E70BDE810400BF031BF00BF30650108B6
:104FB0000022026042608260026140F2D24242619D
:104FC00001210D4A0173136B43F0440313630B4B30
:104FD0001A6822F040621A601A6822F040721A6061
:104FE00003F580531A6822F040621A601A6842F092
:104FF00080621A60704700BF00380240000802401B
:1050000010B583680133836004464FF400511248A1
:1050100005F0D0FD114B08B1227B5AB95A6922F430
:1050200000525A61A368642B15D10023A3600123A9
:10503000237310BD5A6942F400525A6163682068B4
:105040000133636023690133236103689B689847D8
:1050500000232373E6E710BD000802400018024059
:1050600070477047704710B54FF4A87104460FF0B1
:10507000CBFB204610BD10B50446D0F84C01FFF71D
:10508000BFFF2046BDE810400BF08AB910B50446BA
:10509000D0F8340158B10368DB68984738B1D4F8C8
:1050A000340103689B6898470023C4F8343110BD6D
:1050B00010B5044601F082F9014B2360204610BD73
:1050C000746501084FF6FF7383810384438413687A
:1050D000C3611060704790F825201AB190F8242021
:1050E00002B11860704701207047002202804280A0
:1050F0008280C280704770B503680446DB6A15463B
:1051000098472368294620465B6EBDE870401847E3
:105110000D2070470E207047094A026000228280ED
:10512000C280028142818281C281028242824261C6
:105130008261C26180F82420012280F82520704716
:10514000888B010808B5094B1B682BB9084B094A25
:10515000CF21094810F040F9084B02881B889A4279
:1051600003DB074B034AD021F3E708BD749F0020FF
:10517000A8650108A3660108EA650108789F002078
:105180005166010810B50446FFF7DCFF044B228886
:105190001B6813F81220034B1B6853F8220010BD44
:1051A000749F00207C9F002073B5036804461E6B2B
:1051B000C38C02A80D4620F8043DFFF7E3FF036807
:1051C000DB6A9847291A09B22046B04702B070BD81
:1051D00010B50446FFF7B6FF024B22881B6853F850
:1051E000220010BD9C0B002010B5C28C4FF6FF733F
:1051F0009A42044609D02630FFF7EAFF626B014667
:105200002046BDE8104009F059BE002010BD000046
:105210002DE9F04FC68C4FF6FF739E428FB00446C7
:105220000F464BD000F126052846FFF7ABFF80461E
:10523000002843D02846FFF785FF224B94F82EA084
:105240001B68B4F82C9094F830B003EB4603284662
:105250005E78C6F301020592FFF774FFA36A0B9311
:10526000194B94F82F001B6894F83110059A8DF8AB
:105270003300C6F381068DF8296007AE8DF834102F
:105280008DF832A02146ADF8309030468DF82820B8
:10529000CDF824808DF82AB0D3F808800BF060FE9A
:1052A0002846FFF795FF636B029309AB01900093CB
:1052B00096E806003B46404609F076FF0FB0BDE891
:1052C000F08F00BF749F0020149F00202DE9F04153
:1052D000C78C4FF6FF739F4204461BD000F1260592
:1052E0002846FFF74FFF06462846FFF72BFF2846C4
:1052F000FFF76EFF094B1B6803EB47030246597823
:105300003368DD69636B3046AC46C1F38101BDE8AB
:10531000F04160470020BDE8F08100BF749F00208D
:10532000704770477047704710B4C2688368406820
:1053300012F0010F4FEA620218BF8458104418BFE0
:10534000E3585DF8044B184743682BB183682BB9C9
:10535000C06800F001007047184670470120704790
:1053600010B5102104460FF04FFA204610BD00F58D
:10537000CA70884208B505D10BF04EF9BDE8084067
:1053800001F052B808BD000038B504460D46FFF7DD
:10539000C3FE094B23604FF6FF73E38484F8283083
:1053A0002046294609F0D1FD044B23600023638584
:1053B000A385204638BD00BF388901080888010848
:1053C0002DE9F04F044687B006AEA04600254FF603
:1053D000FF7B0CF037F8834B26F804BDE56348F8F3
:1053E000403B04F1700A31464046FFF7CDFF31469D
:1053F0005046ADF814B0FFF7C7FF04F1A0031846FC
:1054000004F1D4070293FFF787FE774AC4F8A0207F
:10541000C4F8C850A4F8CC5084F8CF5084F8D050C9
:1054200084F8D150A4F8C6B084F8CEB0384607F05E
:10543000A7FB04F5CA7318460393FFF76DFE01221C
:1054400004F5E47984F8B821684AC4F8BC5184F8BA
:10545000C051C4F89421A4F8C2B1A4F8C4B184F82E
:10546000C6B14846ADF814B0FFF756FE604AC4F81E
:10547000C82131464846A4F8EEB184F8F0B109F0ED
:1054800064FD5C4BC4F8F4315B4BC4F8FC31C4F8E8
:1054900000524FF0060331464046C4F8F841ADF8DB
:1054A000143009F088FA4FF4A07300932A46F023D1
:1054B00029464046FFF754FC2A462946404609F053
:1054C00058FA4FF0040331465046ADF8143009F055
:1054D00072FA6B2300935046CA2308221321FFF768
:1054E0003FFC2A462946504609F043FA02980F220B
:1054F0002121FFF74DFCFE221146FF200CF002FF98
:10550000A4F8CC50C4F8C8002946029809F0A8F9BC
:10551000384658221C21FFF73BFC0222102300933F
:1055200011463846B42307F063FB2B46042200954E
:105530002946384607F05EFC2946384607F0B8FB96
:10554000022331463846ADF8143007F048FC8D226E
:10555000562106200CF0D6FE0146384607F0F0FA38
:105560002946384607F05CFB0398FC22AB21FFF785
:105570000FFC0B23ADF8103032460A2304A9039820
:10558000ADF8143009F0D7FB04F5FA734FF48172CB
:10559000C4F8BC314846BD21FFF7FAFB251D112395
:1055A00031464846ADF8143009F0CFFC4146284654
:1055B00007F060FD5146284607F05CFD0299284639
:1055C00007F058FD3946284607F054FD0399284650
:1055D00007F050FD2846494607F04CFD204607B02D
:1055E000BDE8F08FF4660108208701089088010863
:1055F00038890108DC6601086F53000819B90121D8
:10560000D43007F00DBB704710B5044B044640F88A
:10561000D43B07F0A1FA204610BD00BFF466010894
:1056200010B50446FFF7F0FF20464FF401710FF06C
:10563000EBF8204610BD7047704710B4C26883680D
:10564000406812F0010F4FEA620218BF84581044FC
:1056500018BFE3585DF8044B184743682BB18368C3
:105660002BB9C06800F00100704718467047012050
:10567000704710B5102104460FF0C6F8204610BD43
:105680007030884208B505D10AF0C6FFBDE8084071
:1056900000F0DABE08BD00002DE9F04F044689B0E5
:1056A000274600250BF0CEFE0DF12008814BE56367
:1056B0004FF6FF7647F8403B28F8046DDFF808B254
:1056C0003846FFF729FD4146C4F840B0A4F86660AB
:1056D00084F86860384609F038FC04F1700A764BAB
:1056E0002364A4F86A50A4F86C505046FFF714FDE8
:1056F000012304F1A40984F89430704B2367C4F8A3
:10570000985084F89C50A4F89E60A4F8A06084F897
:10571000A2604846ADF81C60FFF7FEFC4146C4F8A5
:10572000A4B0A4F8CA6084F8CC60484604F1D0065E
:1057300009F00BFC304607F027FF04F5E473184628
:10574000DFF888B10393FFF7E7FC04F5FA73C4F8B8
:10575000C8B1C4F8F05118460493FFF7DDFC04F516
:105760000873C4F8F4B1C4F81C5218460593FFF747
:10577000D3FC534BC4F84C32524BC4F820B2C4F89B
:105780004852C4F85432C4F858524FF0050B414601
:105790003846C4F85042ADF81CB009F00CF94FF48B
:1057A000A07300932A46F02329463846FFF7D8FA1B
:1057B0002A462946384609F0DCF859465046FE226A
:1057C000FFF7E6FA0B23ADF8183042460C2306A982
:1057D0005046ADF81C3009F0AEFA04F51373C4F866
:1057E000983040F2051248461121FFF7D1FA0F23F5
:1057F00041464846ADF81C304FF0800B09F0A5FB40
:10580000294630466922FFF7C3FA2A46F123294682
:105810000398CDF800B0FFF7A3FA0399304607F0DC
:1058200055FF2A46F12329460498CDF800B0FFF72A
:1058300097FA0499304607F049FF2A46F123294692
:105840000598CDF800B0FFF78BFA0599304607F0C0
:105850003DFF1423ADF818304246132306A9304605
:10586000ADF81C3007F090FF2A462946304607F075
:10587000BDFD3046322107F032FD3046322107F0BF
:10588000B3FD29463046251D07F0DAFE3946284685
:1058900007F0F0FB5146284607F0ECFB4946284646
:1058A00007F0E8FB2846314607F0E4FB204609B044
:1058B000BDE8F08F4067010808880108908801085A
:1058C0002867010881560008388901082C7D0108E5
:1058D00010B5044B044640F8D03B07F00BFD2046C2
:1058E00010BD00BF4067010810B50446FFF7F0FF88
:1058F00020464FF417710EF087FF204610BD704709
:1059000070477047704710B4C2688368406812F0EF
:10591000010F4FEA620218BF8458104418BFE358C1
:105920005DF8044B184743682BB183682BB9C068F6
:1059300000F00100704718467047012070478187CA
:105940007047808F70470368D3F88030184790F80D
:105950003800704710B54C2104460EF055FF204624
:1059600010BD10B5102104460EF04EFF204610BDAC
:1059700010B54FF4017104460EF046FF204610BDED
:1059800000F17002914210B504D10368BDE81040E7
:10599000DB6A184700F1A802914205D10AF03CFEEB
:1059A000BDE8104000F060BD00F5C473994205D118
:1059B0000AF032FEBDE8104000F066BD10BD0000E8
:1059C00038B504460D46FFF7A7FB064B23604FF69C
:1059D000FF732046E38484F82830294609F0B5FA9D
:1059E000204638BD388901082DE9F04F04468BB0B8
:1059F0000AAE274600254FF6FF7B0BF023FDAE4B8A
:105A000026F804BDE56347F8403B31463846FFF7CA
:105A1000D7FFAA4B236404F17003A4F86A50A4F8DA
:105A20006C501846029308F043FE04F1A803184690
:105A30004FF001090393DFF89CA2FFF76DFB04F11F
:105A4000DC03C4F8D05084F8D450C4F8A8A0A4F85B
:105A5000D6B0A4F8D8B084F8DAB084F8CC90184660
:105A60000493FFF759FB964BC4F8DC3004F58873B8
:105A700004F59E783146A4F802B1C4F80451A4F8A4
:105A8000085184F80AB184F80B5184F80C5184F859
:105A90000D5118460593ADF824B0FFF791FF40462D
:105AA000FFF73AFB874BC4F83C3104F5C473A4F804
:105AB00062B1C4F86451A4F8685184F86AB184F8FA
:105AC0006B5184F86C5184F86D51C4F8705184F8AE
:105AD0007451A4F87651A4F87851C4F8845118464A
:105AE0000693FFF719FBC4F888A104F5DE7AC4F821
:105AF000B05184F8B451A4F8B6B1A4F8B8B184F8A0
:105B0000BAB1314684F8AC915046ADF824B0FFF7F5
:105B100057FF6D4BC4F8F4316C4BC4F8FC31C4F83A
:105B200000524FF0030331463846C4F8F841ADF84F
:105B3000243008F040FF4FF4A07300932A46F0236E
:105B400029463846FFF70CF92A462946384608F018
:105B500010FF0298D1223821FFF71AF90723ADF878
:105B600020300823A4F8A43004F5FA7B84F895507B
:105B7000324608A90298ADF8243009F0DCF8039801
:105B8000C4F898B0F3221321FFF702F9324608A9AE
:105B90000398ADF82050ADF8249009F0CCF80498A3
:105BA000C4F8D0B010221C21FFF7F2F8E4229C21A7
:105BB00015200CF0A7FBA4F80851C4F804014946CD
:105BC000049808F04DFE40F2011205982021FFF7DD
:105BD000DFF8122331460598ADF8243009F0B5F905
:105BE000404651222A21FFF7D3F8E4229C211520B8
:105BF0000CF088FB04F5F473C4F86401A4F8685150
:105C000084F86A51079330460423ADF82430FFF737
:105C1000DFFA2F4A0346052107980CF065FB079B26
:105C2000C4F87031404608F0F1FD40464FF00301E2
:105C300008F016FE0698F322A021FFF7A9F83246D5
:105C400008A90698ADF82050ADF8249009F073F833
:105C50004FF480725046C4F8B0B1AF21FFF798F806
:105C6000251D102331465046ADF8243009F06DF95A
:105C70003946284607F0FEF90299284607F0FAF956
:105C80000399284607F0F6F90499284607F0F2F937
:105C90000599284607F0EEF94146284607F0EAF94B
:105CA0000699284607F0E6F92846514607F0E2F93A
:105CB00020460BB0BDE8F08F1C6801080888010879
:105CC00020870108746701080068010881590008ED
:105CD000106801089088010870B590F838300446C3
:105CE000002B3CD0408FA18F884202DA01306087C0
:105CF00070BDE38F5A18904215D8B4F84050B4F8EC
:105D00004220401A521B12B20021656C80B2A84793
:105D100094F84030184484F82E0020460BF076F8B2
:105D2000638F01336387A38FE18F628F0B449A42A5
:105D300015D9002384F83830E3870AF06DFC21463A
:105D40000AF0A0FCA06C50B10368DB68984730B142
:105D5000A06C036821469B68BDE87040184770BD81
:105D600008B5FFF7B9FF08BD70B590F8742100259C
:105D70000446C0F8845100F59E7622B90AF04CFC26
:105D800031460AF04FFC94F86A31A4F87C31FF23C5
:105D9000A4F87E313023A4F87A31074BC4F880315F
:105DA000012384F87431D4F87831A4F8765113B90A
:105DB0003046FFF791FF70BD3518010870477047F6
:105DC0004160704770477047012303727047704706
:105DD0007047704770477047704743681A6800F112
:105DE0002801926E184610471FB50A4B04468DE8ED
:105DF000180018230293406801230393036869463F
:105E0000DB6F98476068036804F128015B6E984770
:105E100004B010BD746901087047000010B5064A4F
:105E2000B2F90040054A8480B2F90010C180002216
:105E30000280428010BD00BF089F00200A9F002002
:105E400010B4C2688368406812F0010F4FEA620222
:105E500018BF8458104418BFE3585DF8044B184726
:105E600043682BB183682BB9C06800F0010070470C
:105E70001846704701207047704743681A6800F160
:105E80002801926E184610471FB50A4B04468DE84C
:105E9000180018230293406801230393036869469E
:105EA000DB6F98476068036804F128015B6E9847D0
:105EB00004B010BDC86801087047000010B5064A5C
:105EC000B2F90040054A8480B2F90010C180002276
:105ED0000280428010BD00BF089F00200A9F002062
:105EE00010B4C2688368406812F0010F4FEA620282
:105EF00018BF8458104418BFE3585DF8044B184786
:105F000043682BB183682BB9C06800F0010070476B
:105F10001846704701207047C2688368406812F0D5
:105F2000010F4FEA620218BF8158104418BFCB58C6
:105F3000184743682BB183682BB9C06800F0010093
:105F40007047184670470120704710B50C21044671
:105F50000EF05AFC204610BD10B54FF4A87104464F
:105F60000EF052FC204610BD10B5102104460EF074
:105F70004BFC204610BD10B5282104460EF044FC11
:105F8000204610BD10B5282104460EF03DFC2046E9
:105F900010BD10B5502104460EF036FC204610BD51
:105FA00010B5102104460EF02FFC204610BD10B590
:105FB000502104460EF028FC204610BD10B51021DB
:105FC00004460EF021FC204610BD70B516460C4666
:105FD00005460AF021FB0AF06CFB306810B103683B
:105FE000DB689847306810B103681B6898472868D9
:105FF00010B103685B699847206810B103685B685B
:106000009847286810B103681B689847206820B13A
:106010000368BDE870409B68184770BD70B50368A1
:106020000E46DB68144605469847336830461B68C1
:106030009847214628460BF083FB236820461B69BE
:1060400098470AF0E9FA0368BDE870409B6A184770
:1060500010B4034608461A7F032A12D8DFE802F07C
:106060000B0B02020268B3F92210546D0022234682
:106070005DF8044B184702680021546DB3F92220E3
:10608000F5E701221A725DF8044B704710B403461D
:1060900008461A7F032A12D8DFE802F00B0B02022F
:1060A0000268B3F92210546D002223465DF8044BB8
:1060B000184702680021546DB3F92220F5E7012248
:1060C0001A725DF8044B7047034B1A8803685242FA
:1060D0005B6D12B2002118470A9F002010B4027FA6
:1060E0000B46032A22D8DFE802F0151A020D1149E7
:1060F0001A68B1F90010546D0022184623465DF865
:10610000044B18470B4A11881A684942546D09B26A
:106110000022F2E718465DF8044BFFF7D5BF1A6876
:10612000546D054A0021B2F90020E6E75DF8044B02
:10613000704700BF089F00200A9F002010B4027F14
:106140000B46032A22D8DFE802F0151A020D114986
:106150001A68B1F90010546D0022184623465DF804
:10616000044B18470B4A11881A684942546D09B20A
:106170000022F2E718465DF8044BFFF7A5BF1A6846
:10618000546D054A0021B2F90020E6E75DF8044BA2
:10619000704700BF089F00200A9F0020F0B504460A
:1061A000807F637F0130C0B2984287B0A07730DC37
:1061B000B4F9202000210BF013FB82B212F001038E
:1061C0002DD04FF6FF710028D8BF0B4613446384CF
:1061D000B4F92220A38CA284D31AA27F9BB219B255
:1061E000012A618440D12D4A1278002A3CD0002235
:1061F000ADF80820ADF80A20ADF80C20ADF80E205F
:10620000227F274E274D032A12D8DFE802F03941BA
:106210000A34012323720023A37707B0F0BD608402
:10622000D6E732881344ADF80C302B88ADF80E3029
:106230001D4F386803689B6A98473288ADF8142070
:106240002A88ADF816203A6800239568ADF810301A
:10625000ADF812302A680193FF23009316690146B6
:1062600002AB04AA2846B0476068036804F10C0139
:10627000DB6F9847D1E73288ADF80810D31AD2E720
:106280003288ADF80C202A88ADF80A10D31ACDE771
:106290003288ADF80C202A881344C7E7129F0020EB
:1062A000089F00200A9F0020149F0020F0B504469C
:1062B000807F637F0130C0B2984287B0A07730DC26
:1062C000B4F9202000210BF08BFA82B212F0010306
:1062D0002DD04FF6FF710028D8BF0B4613446384BE
:1062E000B4F92220A38CA284D31AA27F9BB219B244
:1062F000012A618440D12D4A1278002A3CD0002224
:10630000ADF80820ADF80A20ADF80C20ADF80E204D
:10631000227F274E274D032A12D8DFE802F03941A9
:106320000A34012323720023A37707B0F0BD6084F1
:10633000D6E732881344ADF80C302B88ADF80E3018
:106340001D4F386803689B6A98473288ADF814205F
:106350002A88ADF816203A6800239568ADF8103009
:10636000ADF812302A680193FF23009316690146A5
:1063700002AB04AA2846B0476068036804F10C0128
:10638000DB6F9847D1E73288ADF80810D31AD2E70F
:106390003288ADF80C202A88ADF80A10D31ACDE760
:1063A0003288ADF80C202A881344C7E7129F0020DA
:1063B000089F00200A9F0020149F002070B504460B
:1063C0000D4616460AF08EF90C4BC4F848611C6065
:1063D0000B4B236000200B4BC4F83001C4F8340190
:1063E000C4F83C01C4F84001C4F84401C4F8383191
:1063F000C4F84C5100F03CFC204670BD709F00205A
:106400006C68010854680108064BC0F8403100234D
:10641000C0F8443100F59C73C0F83C01C0F8343139
:10642000704700BF8D650008064BC0F8403100235F
:10643000C0F8443100F59C73C0F83C01C0F8343119
:10644000704700BF05670008064BC0F840310023C5
:10645000C0F8443100F59C73C0F83C01C0F83431F9
:10646000704700BF79690008064BC0F8403100232F
:10647000C0F8443100F59C73C0F83C01C0F83431D9
:10648000704700BF756A0008064BC0F84031002312
:10649000C0F8443100F59C73C0F83C01C0F83431B9
:1064A000704700BF0168000803685B6A184703680B
:1064B0005B6A18472DE9F04780469068089F9A4626
:1064C00003681B6A894614469847B0F5017F05D2D8
:1064D000284B294AC22129480EF07EFF60680368D4
:1064E0001B6A98470F2803D8254B234AC321F2E79C
:1064F000E06803681B6A98470B2803D8214B1E4AA3
:10650000C421E8E7524649464046FFF75EFDE06891
:10651000036800215B6A9847054620B10023436069
:106520000372194B03600021A068FFF7BDFF064608
:1065300008B1FEF721FD60680021FFF7B8FF0446AF
:1065400010B13146FEF7FCFCCAF80050C9F8004013
:10655000C8F800605CB1231D3B603046A7602A4646
:10656000F4632146FFF75AFD2046BDE8F087234635
:10657000F2E700BF186A0108536C0108A66A010817
:106580000D6B0108B06B0108A868010807B5D0F8C9
:106590004C310093D0F84821044B00F59871044821
:1065A000FFF788FF03B05DF804FB00BF6C9F00207D
:1065B000689F00201A4B13B503600446194BC36053
:1065C00000221C2342600272206143610123836127
:1065D00084F84D30144BA362144B61771B88A2776B
:1065E0005942218412496284B1F9001000910220BD
:1065F0002077A28404F12800A285E28522866286A3
:10660000A286E28622876287E2632264626484F85B
:106610004C201BB21146FEF7A3FB204602B010BD72
:10662000F8690108746901088C690108089F002055
:106630000A9F00202DE9F04780469068089F9A46FF
:1066400003681B6A894614469847B0F5017F05D256
:10665000274B284AC22128480EF0BEFE6068036816
:106660001B6A98470F2803D8244B224AC321F2E71C
:10667000E06803681B6A98474F2803D8204B1D4ADF
:10668000C421E8E7524649464046FFF79EFCE068D1
:10669000036800215B6A9847064610B11421FFF792
:1066A00089FF0021A068FFF7FFFE054608B1FEF74D
:1066B00063FC60680021FFF7FAFE044610B129462A
:1066C000FEF73EFCCAF80060C9F80040C8F8005068
:1066D0005CB1231D3B602846A7603246EC6321462F
:1066E000FFF79CFC2046BDE8F0872346F2E700BF99
:1066F000186A0108576D0108A66A01080D6B0108A8
:10670000B06B010807B5D0F84C310093D0F84821A0
:10671000044B00F598710448FFF78CFF03B05DF857
:1067200004FB00BF6C9F0020689F00202DE9F0470C
:1067300080469068089F9A4603681B6A89461446FB
:106740009847B0F5177F05D2284B294AC22129481E
:106750000EF042FE606803681B6A98470F2803D852
:10676000254B234AC321F2E7E06803681B6A984778
:106770004F2803D8214B1E4AC421E8E75246494618
:106780004046FFF722FCE068036800215B6A9847F7
:10679000064610B11421FFF70DFFA0680368002121
:1067A0005B6A9847054608B1FEF76EFB60680368B0
:1067B00000215B6A9847044610B12946FEF796FB14
:1067C000CAF80060C9F80040C8F800505CB1231D49
:1067D0003B602846A7603246EC632146FFF71EFC6B
:1067E0002046BDE8F0872346F2E700BF186A01089B
:1067F000BD700108A66A01080D6B0108B06B0108A5
:1068000007B5D0F84C310093D0F84821044B00F57F
:1068100098710448FFF78AFF03B05DF804FB00BFDE
:106820006C9F0020689F00201A4B13B5036004463C
:10683000194BC36000221C23426002722061436135
:106840000123836184F84D30144B6177A3621449AE
:10685000144BB1F90010B3F90030A2770320207770
:10686000009104F128006284A284A285E285228638
:106870006286A286E28622876287E263226462647D
:1068800084F84C2023841146FEF76AFA204602B0B1
:1068900010BD00BF4C690108C8680108E068010824
:1068A0000A9F0020089F00202DE9F047804690684D
:1068B000089F9A4603681B6A894614469847B0F5B4
:1068C000017F05D2274B284AC22128480EF084FDBB
:1068D000606803681B6A98470F2803D8244B224A34
:1068E000C321F2E7E06803681B6A98474F2803D882
:1068F000204B1D4AC421E8E7524649464046FFF76F
:1069000064FBE068036800215B6A9847064610B1A3
:106910001421FFF789FF0021A068FFF7C5FD054698
:1069200008B1FEF729FB60680021FFF7C0FD0446AF
:1069300010B12946FEF704FBCAF80060C9F8004010
:10694000C8F800505CB1231D3B602846A760324662
:10695000EC632146FFF762FB2046BDE8F087234643
:10696000F2E700BF186A0108776E0108A66A0108FD
:106970000D6B0108B06B010807B5D0F84C310093DE
:10698000D0F84821044B00F598710448FFF78CFFBC
:1069900003B05DF804FB00BF6C9F0020689F0020DF
:1069A0002DE9F04780469068089F9A4603681B6A65
:1069B000894614469847B0F5017F05D2284B294AED
:1069C000C22129480EF008FD606803681B6A9847D9
:1069D0000F2803D8254B234AC321F2E7E068036858
:1069E0001B6A98474F2803D8214B1E4AC421E8E769
:1069F000524649464046FFF7E8FAE068036800213E
:106A00005B6A9847064610B11421FFF70DFFA06896
:106A1000036800215B6A9847054608B1FEF7E2F972
:106A20006068036800215B6A9847044610B12946F4
:106A3000FEF718FACAF80060C9F80040C8F800501C
:106A40005CB1231D3B602846A7603246EC632146BB
:106A5000FFF7E4FA2046BDE8F0872346F2E700BFDF
:106A6000186A0108976F0108A66A01080D6B0108F2
:106A7000B06B010807B5D0F84C310093D0F848212D
:106A8000044B00F598710448FFF78AFF03B05DF8E6
:106A900004FB00BF6C9F0020689F0020704700002F
:106AA00030B5154D2B78BFF35B8F13F0010489B01F
:106AB0001FD128460DF0AAFED8B13F2306930F4BF5
:106AC00005930F4B079408224FF0050E04930424FE
:106AD0000A2303928DE818400A490B4828230AF03C
:106AE00001FF28460DF09EFE084A094906480DF0B0
:106AF00086FE054809B030BD280B0020C8B3010848
:106B000034AA0108109501086C0B00200002002037
:106B10009D6A000830B5154D2C78BFF35B8F14F0DB
:106B2000010489B01ED128460DF070FED0B13F237C
:106B300006930F4B05930F4B049307210422032365
:106B40008DE80E0007941B220B4903941E230B486B
:106B50000AF0C8FE28460DF065FE094A09490748B3
:106B60000DF04DFE054809B030BD00BF200B0020E0
:106B700008A3010880950108CCB301082C0B002064
:106B8000000200209D6A000830B5154D2C78BFF337
:106B90005B8F14F0010489B01ED128460DF036FE3B
:106BA000D0B13F2306930F4B05930F4B049306225E
:106BB00004238DE80C000D49079413221B23039432
:106BC00002940B480AF08EFE28460DF02BFE094A6F
:106BD000094907480DF013FE054809B030BD00BF54
:106BE000240B0020ACB301082CA301080494010875
:106BF0004C0B0020000200209D6A000810B52021E7
:106C000004460DF001FE204610BD7047012906D054
:106C100003D3022905D000207047FFF7B5BFFFF767
:106C20003FBFFFF777BF10B5042104460DF0ECFD20
:106C3000204610BD00487047FC71010815207047C0
:106C40000048704748840D08072070470048704787
:106C50008C0B002010B5FFF797FF044C2060FFF766
:106C60001FFF6060FFF756FFA06010BD8C0B002077
:106C700038B50A4B0A4A18800A4B1A60FFF7E0FF42
:106C80000546FFF7E3FF0446FFF7DEFF064B1D60F6
:106C9000064B1C60064B188038BD00BF980B0020C7
:106CA00094830D089C0B0020749F00207C9F002083
:106CB000789F0020014B024A1A6070479C0B00200D
:106CC00094830D08032208B50021012001F0A6F8E5
:106CD000074A106020B100231A46194601F0C2F895
:106CE00001210022084601F099F8024B186008BD06
:106CF000A00B0020A40B0020034800234FF0FF321C
:106D00001946006801F01ABAA00B002003480023BE
:106D10001A461946006801F0A5B800BFA00B002074
:106D2000034800231A461946006801F007BA00BF5D
:106D3000A00B002007B502A9002341F8043D084B31
:106D4000186801F0A7F9019B3BB1064B4FF0805248
:106D50001A60BFF34F8FBFF36F8F03B05DF804FB72
:106D6000A00B002004ED00E007B50B4B186880B1C4
:106D700002AA002342F8043D084901F029F9019BC9
:106D80003BB1074B4FF080521A60BFF34F8FBFF3F8
:106D90006F8F03B05DF804FBA40B002024020020D9
:106DA00004ED00E070B5084D084C00231A46294652
:106DB000206801F0C3F92946206800234FF0FF3214
:106DC000BDE8704001F0BAB924020020A40B0020F5
:106DD000024B18680368DB68184700BF149F002047
:106DE00007B500F0B9F800F0FBFA032200238DE8A4
:106DF0000C00044904484FF4806201F0FBFA01F0F2
:106E0000D1FBFEE7A0730108D16D00087047704701
:106E1000704770470120704750207047502303FB94
:106E2000010008307047502303FB01000830704711
:106E3000012070474FF4177070474FF4177303FB2E
:106E40000100083070474FF4177303FB010008304E
:106E50007047012070471020704700EB0110083088
:106E6000704700EB0110083070470846FFF7CCBAB6
:106E700010B5034B0360044605F058FE204610BDD4
:106E80001874010810B50446FFF7F2FF2046582198
:106E90000DF0BAFC204610BD10B5034B036004464C
:106EA00005F044FE204610BDE473010810B5044609
:106EB000FFF7F2FF20464FF419710DF0A5FC2046B4
:106EC00010BD000010B5034B0360044605F02EFE14
:106ED000204610BDB073010810B50446FFF7F2FF5D
:106EE000204618210DF090FC204610BD10B5084B2F
:106EF0000360044600F52470FFF7BAFF04F12C008C
:106F0000FFF7CAFF04F11400FFF7DCFF204610BDB5
:106F10004C74010810B50446FFF7E8FF20464FF413
:106F20008A610DF071FC204610BD10B504210446A5
:106F30000DF06AFC204610BD08B5024B1B689B6A29
:106F4000984708BD4011002008B5024B1B68DB6A5A
:106F5000984708BD401100202DE9F04F9FB09C4C90
:106F60009C4E002503F0C4F90295236C43F0805336
:106F70002364236C03F080530293974B03951A68A4
:106F800042F440421A601B6803F4404303934FF4F9
:106F9000803312934FF4800302274FF0010B1893B4
:106FA0004FF4A87208234FF0070811A81993019312
:106FB000CDF844B01A9217971B97CDF8708004F063
:106FC00073FB0F220C924FF4A0594FF4805205210D
:106FD0000CA810920D970E95CDF83C9004F00AFD88
:106FE0007E4A7F4832601D22019BF26140F20D1201
:106FF0007262036040F24312C023B262036140F246
:10700000171204234FF0090AC6F818B0F2624FF0C5
:10701000030B40F2471283614FF400333263C6F82A
:1070200014A0C6F820B086F8365086F8345086F89A
:107030003550436204F0AAFD04957560B560F560B3
:107040003561636C674843F080636364636C03F08D
:10705000806304930595236B43F400032363236B40
:1070600003F4000305930695236B43F480532363D5
:10707000236B03F4805306930795236B43F00103BE
:107080002363236B03F0010307930895236B3B43B2
:107090002363236B3B4008930995236B43F0040360
:1070A0002363236B03F0040309930A95236B43F0D6
:1070B00008032363236B03F008030A930B95236BE8
:1070C00043F020032363236B03F020030B930C9501
:1070D000236B43F040032363236B129703F04003B9
:1070E0000C9341F65803119311A90E231593139590
:1070F000149703F071FC4FF4706311933A4B0193B2
:10710000184611A903F068FC4FF4986211A937489A
:10711000119203F061FC482211A935481192A4F59F
:10712000005403F059FC4FF4806211A931481192C8
:1071300003F052FC4FF40C6211A92046119203F0A7
:107140004BFC019BCDF844B0184611A9CDF854A0D2
:1071500003F042FC11A92046CDF8449003F03CFC1A
:10716000304604F0E3F9244A244B13601B68984727
:1071700002F0D6FF1195FFF7DFFE13951290FFF78F
:10718000E3FE4FF050431A93FF2316934FF4C0636E
:1071900018931490159717958DF874508DF87550B5
:1071A0008DF87650CDF86480FFF7C6FE1B90FFF790
:1071B000CBFE2A4611A91C90304604F031FA304625
:1071C00004F058FA00F0E0F91FB0BDE8F08F00BFFE
:1071D0000038024068100020007000400068014044
:1071E000101100200000024000040240000802408C
:1071F000000C024000140240401100203C0200201C
:107200002DE9F743614E3578BFF35B8F15F001052B
:107210008046894617461C4656D130460DF0F6FA90
:10722000002851D0A3B25A4CBDF82800C4F80480FD
:10723000012284F8452084F8462084F8542084F8FC
:107240005720544AC4F80890E7602561656125839A
:107250006583A583E58325846584A58484F8265009
:10726000A562A5856563A563E563256484F844503C
:1072700084F8555084F8565084F8585084F8595082
:1072800084F85A5084F85B5084F85C50256614608A
:10729000414A84F865501380404A1080404A157076
:1072A000404A83421380404AACBF00230123108030
:1072B00084F8303030463D4B23600DF0B3FA3C4A41
:1072C0003C4920460DF09BFA31483B4F06F0A6FEA4
:1072D000FFF7B0FC0446FFF7B1FC0D9B009301469D
:1072E0000C9B0B9A20460BF0FBF8344B344A1A6087
:1072F0000020FFF7BDFC33480BF05CF83B78BFF390
:107300005B8FDB0738D438460DF080FA002833D085
:107310002D4E2E4B336006F53A7806F1140006F137
:107320002C0506F524747060B560F460C6F8108012
:1073300005F0FEFB264B7361284605F0F9FB254B53
:10734000F362204605F0F4FB234BC6F89032324638
:1073500006F587614046FDF7ABFE06F58760FDF751
:1073600027FE4046FFF750F838460DF05BFA104A0A
:107370001A4930460DF043FA09F04EF90146044827
:1073800006F08EFD024803B0BDE8F083A80B002094
:10739000AC0B0020149F0020089F00200A9F0020B3
:1073A0000C9F00200E9F0020109F0020A875010850
:1073B000000200200F6E0008140C0020809F0020A7
:1073C000F01B002028020020180C00204C7401083B
:1073D000B0730108E473010818740108ED6E000829
:1073E000F0B585B000264FF4A0730396029601967F
:1073F0000093124A12491348F023FFF701FF124B82
:1074000001251D700368009504465F6F10222B460E
:107410004FF05041B84784F8586084F846600B4EEE
:1074200084F84550022384F85430304600F068F860
:10743000266184F85C5005B0F0BD00BF2C0200202E
:107440003002002044110020341C0020E41B0020E6
:1074500010B5682104460DF0D7F9204610BD10B5CF
:107460000C2104460DF0D0F9204610BD10B50421C2
:1074700004460DF0C9F9204610BD000038B5124C85
:10748000124D1349134822460DF0B9F9284600F071
:1074900063FA2246104928460DF0B1F922460F49F9
:1074A0000F480DF0ACF90F480F4900234360224606
:1074B00083600E4B03600DF0A2F922460C490D4883
:1074C000BDE838400DF09BB90002002044110020B7
:1074D0000B6C0008280200201D760008136E0008BF
:1074E0002C020020E41B0020116E000860740108CB
:1074F0000D6E000830020020406870474160704700
:10750000054A136843F080731360044A136843F01C
:1075100001031360704700BFFCED00E0001000E0C5
:10752000521A02EB5302B2FBF3F07047014B18689A
:10753000704700BF041000E010B5036804461B69E3
:1075400031B19847A26863689B1A1844606010BD07
:107550009847A06010BD0000044A0121115408B9E9
:1075600002F074BB0128FBD0704700BF351C00201F
:10757000044A0021115408B902F05ABB0128FBD07B
:10758000704700BF351C002008B5002002F014FB36
:10759000012002F011FB0020FFF7EAFF0120BDE807
:1075A0000840FFF7E5BF0000034B1B5C0BB1FFF782
:1075B000DFBFFFF7D1BF00BF351C002010B5FFF7BC
:1075C000BBFC0446FFF7C0FC81B2A0B2BDE810408E
:1075D00002F0E4BD37B568460D46144602F000FEE1
:1075E000BDF8000030B1BDF802302B60BDF80430AA
:1075F0002360012003B030BD03681B6C184703688B
:107600005B6A184770470000034B1B78002B40F261
:10761000EF1018BF00207047391C002010B5064B32
:1076200003600446054803F0C3F8054B4FF0806241
:10763000C3F88820204610BDA0740108F41B002068
:1076400000E100E010B50446FFF7E8FF20464FF4E4
:107650002A610DF0D9F8204610BD000010B5074C86
:10766000074B2360204602F0D4FF064B2361064BF4
:107670006361064B4FF080629A6010BDF41B0020DE
:1076800000B00240917600080576000800E100E0B5
:10769000024B1B68586803685B691847149F0020F9
:1076A0002DE9F3410D68202D0C4600F0A480402DFB
:1076B00000F0A1802A1F56425641802D00F09D8087
:1076C000A5F580735D425D415E4B1B689868036859
:1076D0001B6A98472368402B00F0A38000F28F803C
:1076E000042B00F09780202B00F09B8010280CBF0B
:1076F0004FF0020E4FF0010E0021B4F80CC0B4F8A8
:107700001280514BA8EB0C02DA601028A289D3F842
:1077100000C059600CBF022701279F60A8EB020838
:10772000DCF8002022F440321143CCF80010D3F8EA
:1077300000C0C3F82CE0DCF8341021F00701394315
:10774000CCF83410DCF8402022F47F5222F03F02C3
:1077500042EA0802CCF84020228AA189521A9A6291
:107760000EB9002D34D0227EFF2A1FBF02221A63D9
:10777000227E5A6304BF00221A6305B3102894F8CE
:1077800018E0626953D102F01F014FF01F0CC2F3E1
:10779000C420C1EB012191FBFCF141EA0E61C0EB79
:1077A0000020C2F3451290FBFCF041EA0041C2EB1D
:1077B00002223F2092FBF0F241EA02225A63A189A1
:1077C000628A2148DF61521A9A61002103F0B8F8F9
:1077D00001211D4803F0B4F8A389E28906B94DB32D
:1077E0000093A3680192616817481A4602F05FFF90
:1077F00002B0BDE8F081012662E7012564E7802B35
:1078000012D0B3F5807F7FF471AF4FF0090E4FF4C3
:10781000003172E710280CBF4FF0020E4FF0010E3E
:10782000F5E74FF0000EF2E74FF00A0EEFE742EAFD
:107830000E62C3E700926168A268034802F018FF75
:10784000D6E700BF149F0020F41B0020F7B5404B83
:107850001B68986803681B6A0D46984710286B6977
:10786000297E71D103F01F02C2EB02221F2092FB7E
:10787000F0F4C3F3C42244EA0164C2EB0222C3F36E
:10788000451392FBF0F244EA0244C3EB03233F2288
:1078900093FBF2F3022244EA03242B68A9892D48C2
:1078A000082B6B8A8260A3EB0101C160AF890CBF1A
:1078B0004FF400364FF44036DF1B0368466019680A
:1078C00021F4403131431960D0F800E0DEF8341083
:1078D00021F007011143CEF83410DEF8403023F4D4
:1078E0007F5323F03F033B43B6F5003FCEF84030D3
:1078F0001FD10123036309234463C362A9896B8AEF
:10790000C2615B1A8361002103F01AF8012111485A
:1079100003F016F8B6F5003FAB89EA890DD1A968E6
:10792000019200930A460B460A4802F0C0FE03B0DB
:10793000F0BD0023C2628362E8E700922146AA6894
:10794000044802F095FEF2E743EA01640122A4E74D
:10795000149F0020F41B002070B505462C460A4BEE
:107960000C30002668602E726E7244F8203B602254
:10797000214606F06FFE05F52A6366611C34A342BA
:10798000FBD1284670BD00BFA0740108012380F818
:10799000641080F865307047406803681B681847BA
:1079A00000207047436B0BB1084618477047000032
:1079B000014B986A704700BF84680140024B012266
:1079C000996243F8602C704784680140064B586CFC
:1079D000DB68C3F30A0382B201339A42A6BFC01A1E
:1079E00080B20020704700BF00680140034B902226
:1079F00083F85A2383F85823704700BF00E100E062
:107A00000849094ACB680948C3F30A03013B9BB202
:107A100013800A69C2F30A02013A02800B6403234D
:107A20004B637047006801403C1C00203A1C00205A
:107A3000064B4FF08072C3F888204FF08062C3F885
:107A400088204FF00072C3F88820704700E100E002
:107A5000054B4FF080729A604FF080629A604FF051
:107A600000729A60704700BF00E100E010B5044664
:107A700006F0C4FC23682046D3F88430BDE81040EB
:107A80001847000008B531B90A4B0B4A0B484FF4B0
:107A900043710DF0A1FC8163C263094903640032A4
:107AA00018BF01220A700033064A18BF0123137061
:107AB00008BD00BF017501089C76010839750108F1
:107AC000129F0020139F0020F8B5541EA6B21F2E4F
:107AD0009DF8185009D80124B44014F0803F144F89
:107AE000144E09D114F00B0F17D1134B134A14483D
:107AF0004FF439710DF070FC3F883488D2087C4314
:107B0000624381637BB11144C16375B11144016467
:107B10000C4A13700C4B1D70F8BD3C886243073251
:107B2000D2103488ECE7C363EFE70564F0E700BFE9
:107B3000089F00200A9F0020E4740108487601088D
:107B400039750108129F0020139F002030B590F86E
:107B5000642090F830309A420F4B1A780DD05AB901
:107B60000E4A0F490F4814880F4D0C800188118070
:107B70002980048001221A7030BD002AFCD00948F7
:107B8000074A01881180054A074D14882C8011800E
:107B900004800022EFE700BF0C9F0020089F002018
:107BA0000E9F00200A9F0020109F002010B5154B4B
:107BB0009A6BD20724D50122DA63134A196C128812
:107BC000124C914212D1124A12881A64226892F819
:107BD0005630013382F85630FFF7C6F8206806F0B9
:107BE0000DFC0020BDE81040FFF7B6BC1A64002071
:107BF000FFF7BEFC20680368BDE810409B6918478A
:107C000010BD00BF006801403C1C0020149F0020F4
:107C10003A1C002000F1080343604FF0FF32C360BC
:107C20000361002382600360704700230361704793
:107C300043684B609A688A609A68516099600861ED
:107C400003680133036070470A68531C30B50AD1DA
:107C500003695A684A6091608B60596008610368E3
:107C60000133036030BD00F108035C682568AA4257
:107C7000EFD32346F9E7426881680369916082681F
:107C8000416851605A68904204BF82685A6000227D
:107C90000261186801381860704770B51546026CAB
:107CA000866B044642B905689DB9406800F066FFDE
:107CB00065600136A66370BD6DB980680DF0FCFB90
:107CC000A368226C13446268A360934201D32368C3
:107CD000A3600020EDE7C0680DF0EEFB236CE268C6
:107CE00021685B421A448A42E2603EBF62689B1888
:107CF000E360022DEDD10EB1013EEAE73046D8E750
:107D0000034610B41A6C084662B1D9685C68114425
:107D1000A142D96024BF1968D960D9685DF8044BC5
:107D20000DF0CABB5DF8044B704770B5044601F016
:107D300019FA94F8455004F124066DB2002D14DCB4
:107D4000FF2384F8453001F02FFA01F00BFA94F884
:107D5000445004F110066DB2002D12DCFF2384F8AC
:107D60004430BDE8704001F01FBA636A002BE7D0D1
:107D7000304600F01BFE08B100F0A4FE013D6DB2DC
:107D8000DCE72369002BE9D0304600F00FFE08B194
:107D900000F098FE013D6DB2DEE7000038B50D46FB
:107DA000044640B94FF0500383F31188BFF36F8F3F
:107DB000BFF34F8FFEE701F0D5F9206CE36B22682B
:107DC000A2604343D1181B1A13446160E360002191
:107DD000FF23A16384F8443084F8453095B92369C2
:107DE00063B104F1100000F0E1FD38B10A4B4FF02F
:107DF00080521A60BFF34F8FBFF36F8F01F0D4F939
:107E0000012038BD04F11000FFF704FF04F1240045
:107E1000FFF700FFF2E700BF04ED00E0F8B50D4604
:107E20001746064640B94FF0500383F31188BFF35D
:107E30006F8FBFF34F8FFEE74843503001F0BAF821
:107E4000044648B155B92060E66325640121204607
:107E5000FFF7A4FF84F84C702046F8BD00F15003F2
:107E60000360F1E72DE9FF47894601921F4604466A
:107E700040B94FF0500383F31188BFF36F8FBFF306
:107E80004F8FFEE7002940F08880036C002B00F044
:107E900084804FF0500383F31188BFF36F8FBFF3DB
:107EA0004F8FFEE7019E002E00F082804FF05003BE
:107EB00083F31188BFF36F8FBFF34F8FFEE7019DF0
:107EC0001DB901F071F9002058E016B902A800F0C0
:107ED000AFFD01F069F900F0A5FB01F043F994F85A
:107EE0004430FF2B08BF84F8448094F84530FF2BC2
:107EF00008BF84F8458001F057F901A902A800F0F5
:107F0000A7FD002843D101F02DF9A66BE56B01F028
:107F10004BF9AE4235D1019904F1100000F00EFD8D
:107F20002046FFF702FF00F01DFC38B94FF08053E8
:107F3000CAF80030BFF34F8FBFF36F8F012601F0F7
:107F400011F9A26BE36B9A4201D3022FB7D13A46E3
:107F500049462046FFF7A1FE636A1BB104F12400E5
:107F600000F024FD38B1194B4FF080521A60BFF376
:107F70004F8FBFF36F8F01F017F9012004B0BDE8F8
:107F8000F0872046FFF7D1FE00F0ECFBD6E7204655
:107F9000FFF7CBFE00F0E6FB95E7022F02D1E36B83
:107FA000012B0AD100F094FD00283FF47BAF00269E
:107FB0004FF00008DFF814A0C1E74FF0500383F33F
:107FC0001188BFF36F8FBFF34F8FFEE704ED00E022
:107FD0002DE9F843884691461F46044640B94FF0C4
:107FE000500383F31188BFF36F8FBFF34F8FFEE70A
:107FF00009BB036CFBB14FF0500383F31188BFF34F
:108000006F8FBFF34F8FFEE704F1240000F0CEFC2A
:10801000002834D0B9F1000F31D00120C9F8000098
:1080200086F31188BDE8F88301356DB284F84550B8
:1080300025E00020F4E7022F02D1E36B012B20D1D1
:1080400001F098F9EFF311864FF0500383F3118894
:10805000BFF36F8FBFF34F8FA26BE36B9A4201D3D5
:10806000022FE6D194F845503A466DB2414620467B
:10807000FFF713FE6B1CD7D1636A002BC4D101201C
:10808000CEE74FF0500383F31188BFF36F8FBFF338
:108090004F8FFEE770B50D46044640B94FF05003D0
:1080A00083F31188BFF36F8FBFF34F8FFEE7036C2D
:1080B00043B14FF0500383F31188BFF36F8FBFF3C9
:1080C0004F8FFEE703680BB9436873BB01F052F9A9
:1080D000EFF311864FF0500383F31188BFF36F8FD6
:1080E000BFF34F8FA26BE36B9A4201D3002014E0E1
:1080F00094F8453001325BB2A2635A1C10D1636A16
:108100000BB9012009E004F1240000F04FFC002825
:10811000F7D0002DF5D00120286086F3118870BDBE
:1081200001335BB284F84530EBE74FF0500383F343
:108130001188BFF36F8FBFF34F8FFEE72DE9FF4725
:10814000884601929946044640B94FF0500383F3A4
:108150001188BFF36F8FBFF34F8FFEE7002940F008
:10816000A580036C002B00F0A1804FF0500383F337
:108170001188BFF36F8FBFF34F8FFEE7019E002E74
:1081800000F09A804FF0500383F31188BFF36F8F94
:10819000BFF34F8FFEE7636AE660002B6DD004F1FA
:1081A00024005FE0019D1DB900F0FEFF284667E056
:1081B00016B902A800F03CFC00F0F6FF00F032FA1D
:1081C00000F0D0FF94F84430FF2B08BF84F84470CF
:1081D00094F84530FF2B08BF84F8457000F0E4FFA9
:1081E00001A902A800F034FC002852D100F0BAFF27
:1081F000A56B00F0D9FF002D45D1236833B900F0FD
:10820000B1FF606800F074FC00F0CEFF019904F14A
:10821000240000F093FB2046FFF787FD00F0A2FA50
:1082200038B94FF08053CAF80030BFF34F8FBFF317
:108230006F8F012600F096FFA56B002DB2D041464E
:108240002046E668FFF75CFDB9F1000FA3D1236873
:10825000013DA56313B900F0E1FC6060236963B1DF
:1082600004F1100000F0A2FB38B1154B4FF0805222
:108270001A60BFF34F8FBFF36F8F00F095FF01209F
:1082800004B0BDE8F0872046FFF74FFD00F06AFA22
:10829000CFE72046FFF749FD00F064FA00F062FFE7
:1082A000A56B00F081FF002DC3D17FE700F010FC2B
:1082B00000283FF463AF00260027DFF804A0B9E7E9
:1082C00004ED00E030B5074A002352F8335002EBCA
:1082D000C3041DB942F83310606030BD0133082B70
:1082E000F3D130BDBC9F002070B504460D46164644
:1082F00000F038FF94F84430FF2B04BF002384F8CB
:10830000443094F84530FF2B04BF002384F84530F7
:1083100000F04AFFA36B2BB93246294604F1240032
:1083200000F026FB2046BDE87040FFF7FEBC0000D1
:10833000064A13681968064B19B94FF0FF321A60E4
:1083400070471268D268D2685268F8E7441C00206F
:10835000301D0020F8B51B4B1B4E1D6804463068CD
:1083600004300F46FFF787FC334640B93168174E9B
:10837000C96A32680120884022EA00023260621C29
:1083800007D137B1196812480431BDE8F840FFF74A
:108390004FBC2C441A68A542546007D90D4A106896
:1083A0001968BDE8F8400431FFF74EBC0A4A10686E
:1083B00019680431FFF748FC084B1A68944238BF2B
:1083C0001C60F8BD781D0020401C0020001D00200E
:1083D000501D0020481C0020441C0020301D00209F
:1083E0004FF0500383F31188BFF36F8FBFF34F8FAC
:1083F000FEE700002DE9F84F4FEA820A804650461A
:108400000D4699460B9E00F0D5FD0746002800F06A
:108410009F80602000F0CEFD0446002800F095808B
:1084200052460763A52138460DF051F8236BAAF197
:10843000040A9A442AF0070A6B1E04F134020F352D
:10844000597802F8011B13F8011F09B1AB42F7D1AB
:108450000A9D072D28BF07254FF0000B271DE56259
:10846000E564384684F843B0C4F850B0FFF7DDFB4C
:10847000C5F1080504F11800FFF7D7FBC4F858B0A0
:108480002461A5616462C4F854B084F85CB04A46C3
:108490004146504600F03EFE206006B1346000F0D8
:1084A00061FE324B324E1A68DFF8F08001321A60FA
:1084B0003568002D4FD134601B68012B1DD108EBAE
:1084C00005001435FFF7A6FBA02DF8D1DFF8D090FA
:1084D000284D4846FFF79EFB2846FFF79BFB2648A2
:1084E000FFF798FB2548FFF795FB2548FFF792FB20
:1084F000244BC3F80090244B1D60244A2449136880
:10850000086801331360E26A6364012505FA02F327
:10851000034314200B6000FB02803946FFF788FB01
:1085200000F042FE1B4B1B6863B13368DA6AE36AF2
:108530009A4207D2184B4FF080521A60BFF34F8F08
:10854000BFF36F8F2846BDE8F88F384600F08EFDE8
:108550004FF0FF35F6E70F4B1B68002BCDD133688A
:10856000DA6AE36A9A4298BF3460C6E7EC1C0020DE
:10857000401C0020181D0020381D0020641D002014
:10858000501D0020441C0020481C0020FC1C002022
:10859000001D00204C1D002004ED00E04C1C0020BC
:1085A000041D002013B5194B0193002400942346A9
:1085B000802217491748FFF71DFF012818D100F046
:1085C00083FB012814D14FF0500383F31188BFF3CC
:1085D0006F8FBFF34F8F104B4FF0FF321A600F4B6E
:1085E00018600F4B1C6002B0BDE8104000F04CBE9C
:1085F000013008D14FF0500383F31188BFF36F8F20
:10860000BFF34F8FFEE702B010BD00BF2C1D00204E
:10861000EA76010855880008301D00204C1D002016
:10862000781D0020024A136801331360704700BFB1
:10863000F81C0020014B1868704700BF781D00200F
:108640002DE9F84F3C4B1B68002B53D13B4B1C686A
:1086500001341C60BCB93A4B1A68126842B14FF041
:10866000500383F31188BFF36F8FBFF34F8FFEE783
:10867000344A1968106818601160334A136801336E
:108680001360FFF755FE314D314F2B689C424FF080
:10869000000B3ED3DFF8A880DFF8C490D8F80020A4
:1086A000126872BB4FF0FF322A6032E006F1040A12
:1086B0005046FFF7E0FAB16A19B106F11800FFF76A
:1086C000DAFAF06AD9F80030012202FA00F119430F
:1086D000204BC9F800104FF0140E51460EFB00302D
:1086E000FFF7A6FA3868F16AC26A914228BF4FF0D4
:1086F000010BD3E7184A1368013313604FF0000BE6
:1087000011E0D8F80020D268D66871688C42CDD2CA
:1087100029603A680F4BD16A14224A439A58022AB8
:1087200028BF4FF0010B0D4A1268002A18BF4FF006
:10873000010B5846BDE8F88FF81C0020781D00207A
:10874000441C0020481C0020341D0020301D002047
:10875000401C00204C1C0020F41C00207C1D00202C
:10876000001D00202DE9F843314C236843B94FF038
:10877000500383F31188BFF36F8FBFF34F8FFEE772
:1087800000F0F0FC2368013B236024682CB1002436
:1087900000F00AFD2046BDE8F883264B1B68002B3D
:1087A000F5D0DFF8A890244FDFF8A480D9F8003086
:1087B000E3B90CB1FFF7BCFD204D2C6844B1204E4D
:1087C0000127FFF73DFF00B13760013CF9D12C6074
:1087D0001B4B1B68002BDAD01A4B4FF080521A60EB
:1087E000BFF34F8FBFF36F8F0124D1E7D9F80C305F
:1087F000DC68261D04F11800FFF73DFA3046FFF74C
:108800003AFAE26A3968012505FA02F314200B43AB
:1088100000FB028031463B60FFF70AFA0A4BE26A2E
:108820001B68DB6A9A4224BF054B1D60BEE700BF90
:10883000F81C0020EC1C0020001D0020F41C00206F
:108840007C1D002004ED00E0401C0020381D0020AD
:108850004C1C002008B5174E174C236863B9174B02
:108860001B68012BF8D9164B4FF080521A60BFF3EA
:108870004F8FBFF36F8FEFE7FFF7D4FE3568FFF739
:1088800071FF002DE9D000F06DFCF368DD68281D54
:10889000FFF7F1F90B4A1368013B13602368013BB2
:1088A000236000F081FC286B00F0E0FB284600F01C
:1088B000DDFBD2E7641D0020F01C00204C1C0020D2
:1088C00004ED00E0EC1C002010B5174B1A68174BA4
:1088D00012B101221A6010BD1A60154B1B68B3FA61
:1088E00083F3DBB2C3F11F03142212495A438818E1
:1088F0008C5844B94FF0500383F31188BFF36F8F46
:10890000BFF34F8FFEE744680832646844600A444E
:10891000944204BF62684260142202FB03135B6846
:10892000DA68054BD6E700BFF81C00207C1D00204C
:10893000001D00204C1C0020401C002010B50C46DF
:1089400040B94FF0500383F31188BFF36F8FBFF32B
:108950004F8FFEE7054B19681831FFF775F9204670
:108960000121BDE81040FFF7F5BC00BF401C00200E
:1089700038B50D46144640B94FF0500383F31188C3
:10898000BFF36F8FBFF34F8FFEE7074B19681831A6
:10899000FFF74EF9002C21460CBF28464FF0FF3060
:1089A000BDE83840FFF7D6BC401C002038B5C3688E
:1089B000DC6844B94FF0500383F31188BFF36F8F25
:1089C000BFF34F8FFEE704F118052846FFF753F970
:1089D000114B1B68E3B9251D2846FFF74CF90F49D9
:1089E000E26A08680123934003430B600C4B142098
:1089F000294600FB0230FFF71BF90A4BE26A1B68AD
:108A0000DB6A9A4283BF084B01201860002038BD02
:108A100029460648EFE700BFF81C0020001D002093
:108A20004C1C0020401C00207C1D0020381D002014
:108A300008B508B9FFF7D4FC034B1B680360034B70
:108A40001B68436008BD00BF341D0020781D002056
:108A500038B50D46044640B94FF0500383F31188F2
:108A6000BFF36F8FBFF34F8FFEE741B94FF0500355
:108A700083F31188BFF36F8FBFF34F8FFEE700F0D2
:108A800071FB0E4B19682B685A1C10D00C4A2068D9
:108A900012689042626801D091420DD2881A8342D6
:108AA0000AD95B1A13442B602046FFF7C1FF00244C
:108AB00000F07AFB204638BD0124F9E7781D00203C
:108AC000341D0020014B01221A6070477C1D0020DC
:108AD000054B1B6833B1054B1B68002B0CBF0220F4
:108AE00000207047012070474C1D0020F81C00201A
:108AF0002DE9F0410446002838D01D4DC36A2A688C
:108B0000D26A934232D282691A4E002AA1BF2A68E1
:108B1000D26AC2F1080282611427426907FB03632B
:108B20009A4220D100F104084046FFF7A4F8124A07
:108B300048B9E06A4743F3592BB9136801218140D2
:108B400023EA010313602B681168D86AE0620123ED
:108B500083400B4313601423414603FB0060BDE8D0
:108B6000F041FFF765B82B68DB6AC362BDE8F081AE
:108B7000401C00204C1C0020001D0020F8B50446BD
:108B800008B90020F8BD224B1B68984208D04FF06E
:108B9000500383F31188BFF36F8FBFF34F8FFEE74E
:108BA000036D43B94FF0500383F31188BFF36F8F08
:108BB000BFF34F8FFEE7C16AC26C013B9142036570
:108BC000DFD0002BDDD1051D2846FFF754F8114EEC
:108BD000114A50B9E76A1421794373582BB91368C5
:108BE0000120B84023EA00031360E36CE362C3F1A1
:108BF0000801A1611168012404FA03F00843106020
:108C0000142000FB03602946FFF712F82046F8BD48
:108C1000401C00204C1C0020001D0020044B1A6842
:108C20001AB119680A6D01320A651868704700BFE9
:108C3000401C0020F8B50F4C00F094FA2568ADB93F
:108C40000D4F0E4E3846FEF7E5FF3046FEF7E2FFC9
:108C50000B4B1F600B4B2A460C210A201E60FFF7AE
:108C6000DDF8206010B10849FFF72CFBBDE8F840A3
:108C700000F09ABAB41D0020881D00209C1D002021
:108C8000801D0020841D0020EF760108914208B568
:108C9000416000610AD8D21A83699A420DD2084B0A
:108CA000011D1868FEF7D0FF002008BD9A4201D2CE
:108CB000994202D2011D034BF3E7012008BD00BF1A
:108CC000841D0020801D002007B5FFF7B3FF0D4B6A
:108CD0001B685BB10C4B0193022300934FF480722D
:108CE00000230A490A48FFF785FB40B94FF05003BB
:108CF00083F31188BFF36F8FBFF34F8FFEE703B08D
:108D00005DF804FBB41D0020B81D0020F4760108B6
:108D1000E98D000830B5154685B01A46034640B9BE
:108D20004FF0500383F31188BFF36F8FBFF34F8F62
:108D3000FEE70D4C206880B105290191029503934F
:108D40000DDCFFF7C5FE0023022808BF089A206843
:108D500018BF1A4601A9FFF785F805B030BD0023FA
:108D600001A9FFF735F9F8E7B41D00202DE9F3411B
:108D70001B4D4FF000082B681A6832B9194A116868
:108D80002960136002B0BDE8F081DB68DC681E6812
:108D9000271D3846FEF76FFF636A20469847E36950
:108DA000012BE8D1A36933449E4206D2636024615B
:108DB00039462868FEF748FFDDE70023CDF800803C
:108DC000324619462046FFF7A5FF0028D3D14FF0C1
:108DD000500383F31188BFF36F8FBFF34F8FFEE70C
:108DE000801D0020841D00202DE9F04F6C4DDFF820
:108DF000C08189B02F462B68D3F800B0BBF1000FBB
:108E000042D0DB68D3F80090FFF70CFCFFF712FCB0
:108E1000644B1A68904282461E4637D20393FFF78E
:108E2000A5FF039B0124C3F800A0002C7ED1BBF159
:108E3000000F60D0D14577D8FFF794FC3B68DB6822
:108E4000D3F80CB00BF10400FEF715FFDBF81C3073
:108E5000012B1DD1DBF818104B46524649445846A9
:108E6000FFF714FFA0B1009423464A462146584616
:108E7000FFF750FF60B94FF0500383F31188BFF341
:108E80006F8FBFF34F8FFEE7D946BDE70024CAE7D7
:108E9000DBF8243058469847DFF81091D9F80000E5
:108EA00000231A4605A9FFF749F90028A3D0059B1E
:108EB000002BF3DB079C636913B1201DFEF7DBFE7B
:108EC000FFF7B8FB33689842834601D2FFF74EFFA5
:108ED000059AC6F800B0092AE0D80123934013F49C
:108EE000047A4AD113F0C70F23D19B06D6D520466A
:108EF00000F0BCF8D2E72C4B1B681A68B2FA82F279
:108F000052092A4BA9EB0A011868FFF7EDF9FFF7A0
:108F100029FC0028C0D14FF08053C8F80030BFF3BF
:108F20004F8FBFF36F8FB7E72246EAE7FFF71AFCD0
:108F3000B2E7A169069B5A4619442046FFF7A6FEF0
:108F40000028ABD0636A20469847E369012BA5D17E
:108F5000A2690699CDF800A00A445346514620461E
:108F6000FFF7D8FE002899D14FF0500383F3118802
:108F7000BFF36F8FBFF34F8FFEE70699A16141B931
:108F80004FF0500383F31188BFF36F8FBFF34F8F00
:108F9000FEE75B465A4659442046FFF777FE7DE7D9
:108FA000801D0020B01D0020841D0020B41D002065
:108FB00004ED00E070B50446FFF734FB2648016875
:108FC00071B9264B264A23F0070313605160254AE6
:108FD00047F6F87582E8220083E824000123036045
:108FE0002CB1083463071CBF24F007040834621E48
:108FF00047F6F6739A4207D8194A136859688C42A3
:1090000004D818498B4207D100251EE019680029B1
:10901000F7D01A460B46F1E71968156811605968D0
:10902000091B102905F108050AD91A1951605C605D
:1090300056680B4908684468A6420AD810600A605E
:1090400009495B680A68D21A0A60FFF78BFB284659
:1090500070BD0146EEE700BFC49D0020C41D002086
:10906000C89D0020BC9D00203402002038B5044675
:10907000C8B1A0F10805FFF7D5FA54F8040C0A4B63
:109080001A68516888420CD844F8082C074A1D60B9
:1090900054F8043C11680B441360BDE83840FFF7F6
:1090A00061BB1346ECE738BDC89D002034020020A8
:1090B0000A4B1B68013308D04FF0500383F311882B
:1090C000BFF36F8FBFF34F8FFEE74FF0500383F373
:1090D0001188BFF36F8FBFF34F8FFEE73802002078
:1090E00006480068006880F3088862B661B6BFF37E
:1090F0004F8FBFF36F8F00DF00BF000008ED00E06F
:10910000DFF80C00016841F4700101607047000055
:1091100088ED00E04FF0807340F8043C074B40F8C6
:109120000C3C21F001016FF0020340F8081C40F8EC
:10913000202C40F8243C4438704700BFB190000810
:10914000074B19680868B0E8F04F80F30988BFF34F
:109150006F8F4FF0000080F311887047AFF30080ED
:10916000401C00204FF0500383F31188BFF36F8F32
:10917000BFF34F8F0A4A13680133012B13600DD1DF
:10918000084B1B6813F0FF0F08D04FF0500383F318
:109190001188BFF36F8FBFF34F8FFEE7704700BF9B
:1091A0003802002004ED00E0084A136843B94FF08C
:1091B000500383F31188BFF36F8FBFF34F8FFEE728
:1091C000013B13600BB983F311887047380200200C
:1091D000EFF30980BFF36F8F154B1A681EF0100F65
:1091E00008BF20ED108A20E9F04F10604DF8043DD3
:1091F0004FF0500080F31188BFF34F8FBFF36F8F94
:10920000FFF762FB4FF0000080F3118808BC19687B
:109210000868B0E8F04F1EF0100F08BFB0EC108ADD
:1092200080F30988BFF36F8F704700BFAFF30080F2
:10923000401C002008B54FF0500383F31188BFF3A2
:109240006F8FBFF34F8FFFF7FBF918B1034B4FF050
:1092500080521A60002383F3118808BD04ED00E0FA
:10926000064B4FF47A721B68B3FBF2F3044A013BDE
:109270001360044B07221A60704700BFB002002041
:1092800014E000E010E000E013B5314B314A1968FA
:10929000914208D14FF0500383F31188BFF36F8FD1
:1092A000BFF34F8FFEE71A682B4B9A4208D14FF05D
:1092B000500383F31188BFF36F8FBFF34F8FFEE727
:1092C000264B1A78D2B20192FF221A701B78244AD8
:1092D000DBB28DF803309DF8033003F050031370B8
:1092E000204B07221A6000219DF80300000602F1BE
:1092F000FF3423D401B11A601A68120202F4E0624A
:109300001A60019B154ADBB21370174B1A6842F4BE
:1093100070021A601A6842F070421A60FFF7A0FFEC
:10932000124B00221A60FFF7EBFE114A136843F05C
:1093300040431360FFF7D4FEFFF7BAFE9DF8032009
:109340005200D2B28DF8032001212246CCE700BFA3
:1093500000ED00E071C20F4170C20F4100E400E077
:10936000D09D0020D49D002020ED00E03802002098
:1093700034EF00E0EFF305830F2B0ED9104A9B5C0E
:10938000104A12789A4208D94FF0500383F311889B
:10939000BFF36F8FBFF34F8FFEE70B4B0B4A1B687A
:1093A000126803F4E063934208D94FF0500383F34B
:1093B0001188BFF36F8FBFF34F8FFEE7704700BF79
:1093C000F0E300E0D09D00200CED00E0D49D0020F3
:1093D00010B5014688B00022362000F0D3FF3620B9
:1093E00001F004F800230293174B1A6C42F01002AC
:1093F0001A641B6C03F01003029301A903A8029BDB
:1094000002F0A6FB069BC3B902F092FB0F4C104B77
:10941000236040F2E733E3600E4BB0FBF3F001381A
:109420000023606020462361A36003F003FA40B983
:10943000204603F0E5F808B010BD02F079FB4000CB
:10944000E4E70120F7E700BF00380240FC9F00205E
:109450000010004040420F0000F064BF014803F0DC
:10946000DFB800BFFC9F00207047FEE7FEE7FEE785
:10947000FEE77047024B1B780BB1FFF7DBBE70476E
:10948000341C0020014801F0CBB900BFF41B0020C0
:10949000054B9A6B9A6B920705D50222DA63034A51
:1094A000136801331360704700680140D89D0020A5
:1094B000F02070474FF4A0707047292000F04CBC9A
:1094C000282000F049BC08B500F0CEFBCA2000F00F
:1094D00043FCC32000F024FC082000F021FC5020B5
:1094E00000F01EFCCF2000F037FC002000F018FC3C
:1094F000C12000F015FC302000F012FCED2000F03F
:109500002BFC642000F00CFC032000F009FC12206E
:1095100000F006FC812000F003FCE82000F01CFCB9
:10952000852000F0FDFB002000F0FAFB782000F021
:10953000F7FBCB2000F010FC392000F0F1FB2C20D1
:1095400000F0EEFB002000F0EBFB342000F0E8FB25
:10955000022000F0E5FBF72000F0FEFB202000F0E9
:10956000DFFBEA2000F0F8FB002000F0D9FB002030
:1095700000F0D6FBB12000F0EFFB002000F0D0FBA4
:109580001B2000F0CDFBB62000F0E6FB0A2000F027
:10959000C7FBA22000F0C4FBC02000F0DDFB1020C0
:1095A00000F0BEFBC12000F0D7FB102000F0B8FB9C
:1095B000C52000F0D1FB452000F0B2FB152000F0E3
:1095C000AFFBC72000F0C8FB902000F0A9FB3620BD
:1095D00000F0C2FBC82000F0A3FBF22000F0BCFBAF
:1095E000002000F09DFBB02000F0B6FBC22000F090
:1095F00097FBB62000F0B0FB0A2000F091FBA720FB
:1096000000F08EFB272000F08BFB042000F088FB8D
:109610002A2000F0A1FB002000F082FB002000F0D7
:109620007FFB002000F07CFBEF2000F079FB2B207B
:1096300000F092FB002000F073FB002000F070FBB4
:10964000012000F06DFB3F2000F06AFBF62000F0E7
:1096500083FB012000F064FB002000F061FB06208A
:1096600000F05EFB2C2000F077FBC82000F0C6FB6A
:10967000262000F071FB012000F052FBE02000F0FA
:109680006BFB0F2000F04CFB292000F049FB24204D
:1096900000F046FB0C2000F043FB0E2000F040FBE6
:1096A000092000F03DFB4E2000F03AFB782000F04E
:1096B00037FB3C2000F034FB092000F031FB132085
:1096C00000F02EFB052000F02BFB172000F028FBFC
:1096D000112000F025FB002000F022FBE12000F02B
:1096E0003BFB002000F01CFB162000F019FB1B20A8
:1096F00000F016FB042000F013FB112000F010FB1B
:10970000072000F00DFB312000F00AFB332000F0B1
:1097100007FB422000F004FB052000F001FB0C20B9
:1097200000F0FEFA0A2000F0FBFA282000F0F8FA18
:109730002F2000F0F5FA0F2000F0F2FA112000F0CF
:109740000BFBC82000F05AFB292000F005FB2C2061
:10975000BDE8084000F000BB08B500F085FA032121
:10976000D32000F015FB80B208BD10B5C4B20222B0
:109770000321204600F070FB0A2000F0B9FB2046D0
:109780000022032100F068FB0220BDE8104000F039
:10979000AFBB38B50446E4B200F032FB00212046EE
:1097A00000F074FB01210546204600F06FFB40EA03
:1097B000052080B238BD10B5C4B24021204600F06B
:1097C00065FB030607D54C21204600F05FFB003007
:1097D00018BF012010BD204601224B2100F03CFBA8
:1097E000204600224B2100F037FB002010BD73B54E
:1097F0000423C4B20E461546D7210DEB03022046C2
:1098000000F060FB019B1BBA1A0DC3F30B233280DF
:1098100020462B8001224B2100F01EFB00224B2111
:10982000204600F019FB02B070BD000010B50B4AD5
:1098300013789842044610D05178884203D110BD65
:1098400059B9012301E0002BFAD1D45400F0D8FA21
:109850002046BDE81040FFF788BF10BDDC9D00200A
:1098600010B5C4B20921204600F010FB40F00102FF
:10987000D2B220460921BDE8104000F0EDBA10B583
:10988000C4B20921204600F001FB092100F0FE02CC
:109890002046BDE8104000F0DFBA38B5C5B20C462E
:1098A00028460A2100F0F2FA40EA0402D2B2284621
:1098B0000A21BDE8384000F0CFBA10B5044600F0E8
:1098C000A1FA20461F21FFF7E8FF2046BDE810401F
:1098D000FFF7C6BF38B5C5B20C4628460A2100F0CE
:1098E000D5FA20EA0402D2B228460A21BDE838405F
:1098F00000F0B2BA10B50446FFF7C1FF20461F21A1
:10990000BDE81040FFF7E6BF10B5C0B20C460B2112
:1099100000F0BCFA204010BD1F21FFF7F5BF0A463A
:10992000C0B20B2100F098BA1F21FFF7F8BF38B57D
