:020000040800F2
:100000000000032011EF0008A9B90008ABB90008EF
:10001000ADB90008AFB90008B1B900080000000090
:1000200000000000000000000000000081B6000891
:10003000B3B900080000000011B70008B5B9000806
:1000400061EF000861EF000861EF000861EF000850
:1000500061EF000861EF000861EF000861EF000840
:1000600061EF000861EF000861EF000861EF000830
:1000700061EF000861EF000861EF000861EF000820
:1000800061EF000861EF000861EF000861EF000810
:1000900061EF000861EF000861EF000861EF000800
:1000A00061EF000861EF000861EF000861EF0008F0
:1000B00061EF000861EF000861EF000861EF0008E0
:1000C00061EF000861EF000861EF000861EF0008D0
:1000D00061EF000861EF000861EF000861EF0008C0
:1000E00061EF000861EF000861EF000861EF0008B0
:1000F00061EF000861EF000861EF000861EF0008A0
:1001000061EF000861EF000861EF000861EF00088F
:1001100061EF000861EF00089DB9000861EF000879
:1001200061EF000861EF000861EF000861EF00086F
:1001300061EF000861EF000861EF000861EF00085F
:1001400061EF000861EF000861EF000861EF00084F
:1001500061EF000861EF000861EF000861EF00083F
:1001600061EF000861EF000861EF000861EF00082F
:1001700061EF000861EF000861EF00080000000077
:1001800061EF000861EF000861EF000861EF00080F
:1001900061EF000861EF000861EF000861EF0008FF
:0C01A000E1A00008D1B90008C5B90008B2
:1040000010B5054C237833B9044B13B10448AFF312
:1040100000800123237010BD040B0020000000006D
:10402000748B01080C4B43B10C480D4910B5AFF32C
:1040300000800C48036823B910BD0A48036833B9EF
:104040007047094B002BF7D0BDE810401847064BCE
:10405000002BF5D0184700BF00000000748B01084A
:10406000080B0020040B00200000000081F000413C
:1040700002E000BF83F0004330B54FEA41044FEA4D
:10408000430594EA050F08BF90EA020F1FBF54EAE8
:10409000000C55EA020C7FEA645C7FEA655C00F084
:1040A000E2804FEA5454D4EB5555B8BF6D420CDD55
:1040B0002C4480EA020281EA030382EA000083EAD8
:1040C000010180EA020281EA0303362D88BF30BD78
:1040D00011F0004F4FEA01314FF4801C4CEA1131CE
:1040E00002D0404261EB410113F0004F4FEA03332D
:1040F0004CEA133302D0524263EB430394EA050FB8
:1041000000F0A780A4F10104D5F1200E0DDB02FA26
:104110000EFC22FA05F2801841F1000103FA0EF2BA
:10412000801843FA05F359410EE0A5F120050EF180
:10413000200E012A03FA0EFC28BF4CF0020C43FAB1
:1041400005F3C01851EBE37101F0004507D54FF0BE
:10415000000EDCF1000C7EEB00006EEB0101B1F50E
:10416000801F1BD3B1F5001F0CD349085FEA300054
:104170004FEA3C0C04F101044FEA445212F5800F5F
:1041800080F09A80BCF1004F08BF5FEA500C50F1FC
:10419000000041EB045141EA050130BD5FEA4C0CDF
:1041A000404141EB010111F4801FA4F10104E9D168
:1041B00091F0000F04BF01460020B1FA81F308BF5F
:1041C0002033A3F10B03B3F120020CDA0C3208DD2B
:1041D00002F1140CC2F10C0201FA0CF021FA02F106
:1041E0000CE002F11402D8BFC2F1200C01FA02F176
:1041F00020FA0CFCDCBF41EA0C019040E41AA2BF9B
:1042000001EB0451294330BD6FEA04041F3C1CDA62
:104210000C340EDC04F11404C4F1200220FA04F082
:1042200001FA02F340EA030021FA04F345EA03012C
:1042300030BDC4F10C04C4F1200220FA02F001FAEE
:1042400004F340EA0300294630BD21FA04F0294670
:1042500030BD94F0000F83F4801306BF81F4801109
:104260000134013D4EE77FEA645C18BF7FEA655C7C
:1042700029D094EA050F08BF90EA020F05D054EA4E
:10428000000C04BF1946104630BD91EA030F1EBF53
:104290000021002030BD5FEA545C05D14000494157
:1042A00028BF41F0004130BD14F580043CBF01F54A
:1042B000801130BD01F0004545F0FE4141F4700130
:1042C0004FF0000030BD7FEA645C1ABF194610460B
:1042D0007FEA655C1CBF0B46024650EA013406BF0C
:1042E00052EA033591EA030F41F4002130BD00BFCB
:1042F00090F0000F04BF0021704730B54FF4806488
:1043000004F132044FF000054FF0000150E700BF08
:1043100090F0000F04BF0021704730B54FF4806467
:1043200004F1320410F0004548BF40424FF0000154
:104330003EE700BF42004FEAE2014FEA31014FEA97
:1043400002701FBF12F07F4393F07F4F81F06051E6
:10435000704792F0000F14BF93F07F4F704730B555
:104360004FF4607401F0004521F0004120E700BFE8
:1043700050EA010208BF704730B54FF000050AE06F
:1043800050EA010208BF704730B511F0004502D570
:10439000404261EB41014FF4806404F132045FEA72
:1043A000915C3FF4DCAE4FF003025FEADC0C18BF17
:1043B00003325FEADC0C18BF033202EBDC02C2F10D
:1043C000200300FA03FC20FA02F001FA03FE40EA9F
:1043D0000E0021FA02F11444C1E600BF70B54FF09F
:1043E000FF0C4CF4E06C1CEA11541DBF1CEA135581
:1043F00094EA0C0F95EA0C0F00F0DEF82C4481EAE9
:10440000030621EA4C5123EA4C5350EA013518BF08
:1044100052EA033541F4801143F4801338D0A0FBF5
:1044200002CE4FF00005E1FB02E506F00042E0FBA2
:1044300003E54FF00006E1FB03569CF0000F18BFA8
:104440004EF0010EA4F1FF04B6F5007F64F5407450
:1044500004D25FEA4E0E6D4146EB060642EAC621E3
:1044600041EA55514FEAC52040EA5E504FEACE2E50
:10447000B4F1FD0C88BFBCF5E06F1ED8BEF1004F53
:1044800008BF5FEA500E50F1000041EB045170BDCF
:1044900006F0004646EA010140EA020081EA030113
:1044A000B4EB5C04C2BFD4EB0C0541EA045170BD0F
:1044B00041F480114FF0000E013C00F3AB8014F189
:1044C000360FDEBF002001F0004170BDC4F10004D2
:1044D000203C35DA0C341BDC04F11404C4F1200553
:1044E00000FA05F320FA04F001FA05F240EA0200AE
:1044F00001F0004221F0004110EBD37021FA04F6E4
:1045000042EB06015EEA430E08BF20EAD37070BD9D
:10451000C4F10C04C4F1200500FA04F320FA05F0FC
:1045200001FA04F240EA020001F0004110EBD370FE
:1045300041F100015EEA430E08BF20EAD37070BD6E
:10454000C4F1200500FA05F24EEA020E20FA04F347
:1045500001FA05F243EA020321FA04F001F00041F6
:1045600021FA04F220EA020000EBD3705EEA430E67
:1045700008BF20EAD37070BD94F0000F0FD101F096
:104580000046400041EB010111F4801F08BF013CCF
:10459000F7D041EA060195F0000F18BF704703F00D
:1045A0000046520043EB030313F4801F08BF013D94
:1045B000F7D043EA0603704794EA0C0F0CEA135550
:1045C00018BF95EA0C0F0CD050EA410618BF52EA0A
:1045D0004306D1D181EA030101F000414FF0000010
:1045E00070BD50EA410606BF1046194652EA43061E
:1045F00019D094EA0C0F02D150EA013613D195EA92
:104600000C0F05D152EA03361CBF104619460AD1D9
:1046100081EA030101F0004141F0FE4141F47001E3
:104620004FF0000070BD41F0FE4141F4780170BDD3
:1046300070B54FF0FF0C4CF4E06C1CEA11541DBF38
:104640001CEA135594EA0C0F95EA0C0F00F0A7F83A
:10465000A4EB050481EA030E52EA03354FEA013167
:1046600000F088804FEA03334FF0805545EA13137A
:1046700043EA12634FEA022245EA111545EA106542
:104680004FEA00260EF000419D4208BF964244F1D9
:10469000FD0404F5407402D25B084FEA3202B61AF8
:1046A00065EB03055B084FEA32024FF480104FF4CC
:1046B000002CB6EB020E75EB030E22BFB61A754640
:1046C00040EA0C005B084FEA3202B6EB020E75EBD3
:1046D000030E22BFB61A754640EA5C005B084FEA3B
:1046E0003202B6EB020E75EB030E22BFB61A754608
:1046F00040EA9C005B084FEA3202B6EB020E75EB13
:10470000030E22BFB61A754640EADC0055EA060ED3
:1047100018D04FEA051545EA16754FEA06164FEA16
:10472000C30343EA52734FEAC2025FEA1C1CC0D1C2
:1047300011F4801F0BD141EA00014FF000004FF04F
:10474000004CB6E711F4801F04BF01430020B4F110
:10475000FD0C88BFBCF5E06F3FF6AFAEB5EB030CC8
:1047600004BFB6EB020C5FEA500C50F1000041EBC5
:10477000045170BD0EF0004E4EEA113114EB5C0492
:10478000C2BFD4EB0C0541EA045170BD41F4801165
:104790004FF0000E013C90E645EA060E8DE60CEA6D
:1047A000135594EA0C0F08BF95EA0C0F3FF43BAF8A
:1047B00094EA0C0F0AD150EA01347FF434AF95EA41
:1047C0000C0F7FF425AF104619462CE795EA0C0F25
:1047D00006D152EA03353FF4FDAE1046194622E7F2
:1047E00050EA410618BF52EA43067FF4C5AE50EACC
:1047F00041047FF40DAF52EA43057FF4EBAE12E7BC
:104800004FF0FF3C06E000BF4FF0010C02E000BF9C
:104810004FF0010C4DF804CD4FEA410C7FEA6C5C7F
:104820004FEA430C18BF7FEA6C5C1BD001B050EA22
:10483000410C0CBF52EA430C91EA030F02BF90EA0D
:10484000020F0020704710F1000F91EA030F58BFCC
:10485000994208BF90422CBFD8176FEAE37040F02E
:10486000010070474FEA410C7FEA6C5C02D150EACC
:10487000013C07D14FEA430C7FEA6C5CD6D152EA87
:10488000033CD3D05DF8040B704700BF844610464C
:1048900062468C461946634600E000BF01B5FFF74B
:1048A000B7FF002848BF10F1000F01BD4DF808ED1B
:1048B000FFF7F4FF0CBF012000205DF808FB00BFEC
:1048C0004DF808EDFFF7EAFF34BF012000205DF846
:1048D00008FB00BF4DF808EDFFF7E0FF94BF012093
:1048E00000205DF808FB00BF4DF808EDFFF7CEFF94
:1048F00094BF012000205DF808FB00BF4DF808EDD3
:10490000FFF7C4FF34BF012000205DF808FB00BFA3
:104910004FEA4102B2F1E04324BFB3F5001CDCF1E1
:10492000FE5C0DD901F0004C4FEAC0024CEA507019
:10493000B2F1004F40EB830008BF20F00100704748
:1049400011F0804F21D113F13872BCBF01F000404B
:10495000704741F480114FEA5252C2F11802C2F17D
:10496000200C10FA0CF320FA02F018BF40F00100FE
:104970004FEAC1234FEAD32303FA0CFC40EA0C00B0
:1049800023FA02F34FEA4303CCE77FEA625307D1ED
:1049900050EA01331EBF4FF0FE4040F44000704724
:1049A00001F0004040F0FE4040F40000704700BFBE
:1049B00053B94AB9002908BF00281CBF4FF0FF3186
:1049C0004FF0FF3000F07AB9ADF1080C6DE904CE7C
:1049D00000F006F8DDF804E0DDE9022304B07047DA
:1049E0002DE9F0478C460D460446089E002B51D118
:1049F0008A4217466DD9B2FA82FEBEF1000F0BD083
:104A0000CEF1200C01FA0EF520FA0CFC02FA0EF79A
:104A10004CEA050C00FA0EF44FEA174A250CBCFBD1
:104A2000FAF81FFA87F90AFB18CC45EA0C4508FB8F
:104A300009F3AB420AD9ED1908F1FF3280F0238166
:104A4000AB4240F22081A8F102083D44ED1AA4B225
:104A5000B5FBFAF00AFB105544EA054400FB09F9DE
:104A6000A14509D9E41900F1FF3380F00A81A1457D
:104A700040F2078102383C44A4EB090440EA0840B4
:104A80000021002E61D024FA0EF4002334607360FC
:104A9000BDE8F0878B4207D9002E54D0002186E86C
:104AA00021000846BDE8F087B3FA83F1002940F001
:104AB0008E80AB4202D3824200F2FA80841A65EB08
:104AC00003050120AC46002E3FD086E81010BDE85B
:104AD000F08712B90127B7FBF2F7B7FA87FEBEF1EC
:104AE000000F34D1EB1B3A0C1FFA87FC0121B3FBFA
:104AF000F2F8250C02FB183345EA03450CFB08F3DA
:104B0000AB4207D9ED1908F1FF3002D2AB4200F2F7
:104B1000D1808046ED1AA3B2B5FBF2F002FB10552E
:104B200043EA05440CFB00FCA44507D9E41900F155
:104B3000FF3302D2A44500F2B8801846A4EB0C045F
:104B400040EA08409DE731463046BDE8F087CEF1A7
:104B5000200405FA0EF307FA0EF720FA04F83A0CCF
:104B600025FA04F448EA0308B4FBF2F14FEA1845C9
:104B700002FB11441FFA87FC45EA044501FB0CF3D4
:104B8000AB4200FA0EF409D9ED1901F1FF3080F0C3
:104B90008A80AB4240F2878002393D44EB1A1FFA0B
:104BA00088F5B3FBF2F002FB103345EA034500FB46
:104BB0000CF3AB4207D9ED1900F1FF386FD2AB42CD
:104BC0006DD902383D44EB1A40EA01418FE7C1F14B
:104BD000200722FA07F88B4005FA01F448EA03039C
:104BE00020FA07FE4FEA134CFD404EEA040EB5FBD7
:104BF000FCF94FEA1E440CFB19551FFA83F844EAEE
:104C0000054509FB08F4AC4202FA01F200FA01FA88
:104C100008D9ED1809F1FF3043D2AC4241D9A9F1CE
:104C200002091D442D1B1FFA8EFEB5FBFCF00CFB88
:104C300010554EEA054400FB08F8A04507D9E418D2
:104C400000F1FF3529D2A04527D902381C4440EA9B
:104C50000940A4EB0804A0FB02894C45C6464D461A
:104C600015D312D056B1BAEB0E0364EB050404FA67
:104C700007F7CB401F43CC40376074600021BDE88C
:104C8000F0871846F8E69046E0E6C245EAD2B8EB6F
:104C9000020E69EB03050138E4E72846D7E74046F2
:104CA00091E78146BEE7014678E702383C4445E794
:104CB000084608E7A8F102083D442BE7704700BF0B
:104CC00001F0FF01102A2BDB10F0070F08D010F8BD
:104CD000013B013A8B422DD010F0070F42B3F6D1C1
:104CE000F0B441EA012141EA014122F007047FF0DA
:104CF00000070023F0E80256083C85EA010586EA31
:104D0000010685FA47F5A3FA87F586FA47F6A5FA6C
:104D100087F68EB9EED1F0BC01F0FF0102F0070278
:104D200032B110F8013B013A83EA010313B1F8D123
:104D30000020704701387047002D06BF3546033804
:104D4000073815F0010F07D1013015F4807F02BF3D
:104D5000013015F4C03F0130F0BC0138704700BF8E
:104D600070477047704703683121D3F88030184787
:104D700003683221D3F88030184703683321D3F811
:104D80008030184703683421D3F88030184703680F
:104D90003521D3F88030184703683621D3F88030A6
:104DA000184703683721D3F8803018470368382143
:104DB000D3F88030184703683921D3F8803018477A
:104DC00003684121D3F88030184703684221D3F8A3
:104DD0008030184703684321D3F8803018470368B0
:104DE0004421D3F88030184703684521D3F8803038
:104DF000184703684621D3F88030184703683021EC
:104E0000D3F880301847704780F82212704780F836
:104E1000181E704790F8180E704700F0B7BF0000DA
:104E200010B50B46044662BB484A052100F6C8503F
:104E30000FF030FE04F50A700EF0BEFB5823434A13
:104E4000052104F6D4500FF025FE04F518700EF07D
:104E5000B3FB58233D4A052104F55E600FF01AFEAE
:104E600004F526700EF0A8FB5823384A052104F6F5
:104E7000EC500FF00FFE04F53470BDE810400EF05A
:104E80009BBB012A13D1314A052100F6D4500FF003
:104E900001FE04F518700EF08FFB58232B4A0521F4
:104EA00004F6C8500FF0F6FD04F50A70CFE7022AA9
:104EB0001ED1264A052100F55E600FF0EBFD04F5DA
:104EC00026700EF079FB5823204A052104F6C850BD
:104ED0000FF0E0FD04F50A700EF06EFB58231B4A3C
:104EE000052104F6D4500FF0D5FD04F51870B9E78C
:104EF000032A29D1154A052100F6EC500FF0CAFD0E
:104F000004F534700EF058FB5823104A052104F6BE
:104F1000C8500FF0BFFD04F50A700EF04DFB58238A
:104F20000A4A052104F6D4500FF0B4FD04F51870B8
:104F30000EF042FB5823054A052104F55E600FF090
:104F4000A9FD04F5267098E710BD00BFD88B0108B5
:104F500010B5044601F0B6F9034B2360582384F8DA
:104F6000183E204610BD00BFE48B0108D4300AF083
:104F7000F7B810B50446084611461A460FF098FDDA
:104F8000014604F1D4000AF07BF810BD10B5044BC3
:104F9000044640F8D43B0AF07FF8204610BD00BF1D
:104FA0009491010810B50446FFF7F0FF204640F643
:104FB0001C6111F0FFFF204610BD7047704770471D
:104FC0007047704770477047A0F10400FBE7C36863
:104FD00081681A680969D26E18461047A0F104006A
:104FE000FFF7F5BF10B4C36881681A68146F0A69C7
:104FF000497D184623465DF8044B1847A0F104008C
:10500000FFF7F0BF7047A0F10400FFF7FBBF10B43B
:105010000346C0689968036891F824209C6F91F852
:10502000283091F82010A4465DF8044B6047A0F1A9
:105030000400FFF7ECBFC36881681A688968526F83
:1050400018461047A0F10400FFF7F5BF10B58468BB
:10505000C0680368DB6F984784F8310010BDA0F189
:105060000400FFF7F3BFC06803685821D3F880300D
:105070001847A0F10400FFF7F6BF10B51021044651
:1050800011F098FF204610BDA0F10400F5E708B527
:105090000DF098FEBDE8084003F056BAA0F10400F8
:1050A000FFF7F5BF10B500228260044AC16002F12B
:1050B000080440320460426010BD00BF688C0108E3
:1050C00003689B6C18470368DB6C184703681B6D0B
:1050D0001847704790F84004704790F841047047B3
:1050E00090F842047047B0F85233B0F858239A1A37
:1050F0005342534180F840347047B0F8BA32B0F8A8
:10510000C0229A1A5342534180F841347047B0F894
:105110002232B0F828229A1A5342534180F842347E
:10512000704780F84014704780F84114704780F849
:105130004214704702F075B800F571700BF078BD3D
:1051400000F549700BF074BD00F523700BF070BDD5
:1051500000F5FA700BF06CBD70B5B0F8F223B0F842
:10516000F83304469A4200F5497004F5237604F5B5
:10517000FA7518D101210BF05BFD012130460BF0CF
:1051800057FD012128460BF053FD236820469B6CF8
:10519000984723682046DB6C9847236820461B6DA0
:1051A000BDE87040184700210BF042FD0021304659
:1051B0000BF03EFD0021E5E710B5044602F08AF849
:1051C000064B2360002384F8403484F8413484F88B
:1051D000423484F84334204610BD00BFF08C0108EF
:1051E00010B5044B044640F8D03B0AF023FB2046A0
:1051F00010BD00BF5092010810B50446FFF7F0FF44
:10520000204640F2444111F0D5FE204610BD7047C3
:1052100070477047704770477047704770477047D6
:10522000A0F10400FBE710B50446C068A26803685B
:1052300092F82E105B6E9847E068A268036892F8B7
:105240002F109B6E9847E068A268036892F83010B0
:10525000DB6E9847E068A268036892F82E105B6DD9
:105260009847E068A268036892F82F109B6D9847F2
:10527000E068A268036892F83010DB6D9847A36875
:10528000596B19B9E06803681B6E9847A368596B9E
:10529000012905D1E0680368BDE810401B6E18477E
:1052A00010BD704710B58468C0680368DB6B984711
:1052B000003018BF012084F82E0010BDA0F10400BA
:1052C000FFF7F0BF10B58468C06803681B6C98478F
:1052D000003018BF012084F82F0010BDA0F1040099
:1052E000FFF7F0BF10B58468C06803685B6C98472F
:1052F000003018BF012084F8300010BDA0F1040078
:10530000FFF7F0BF10B50446C06803680021DB6DED
:105310009847E068036800219B6D9847E068036840
:1053200000215B6DBDE810401847A0F10400FFF7B5
:10533000E9BF10B50446C06803680121DB6D9847DA
:10534000E068036801219B6D9847E06803680121CC
:105350005B6DBDE810401847A0F10400FFF7E9BFFE
:1053600010B51021044611F025FE204610BDA0F115
:105370000400F5E710B500228260044AC16002F122
:10538000080434320460426010BD00BF608D010823
:105390007047A0F10400FBE7704710B510210446E8
:1053A00011F008FE204610BDA0F10400F5E7836867
:1053B000C068596800F034B8A0F10400FFF7F7BFE7
:1053C0008368C068596B00F03DB8A0F10400FFF796
:1053D000F7BF000010B500228260044AC16002F1EC
:1053E000080428320460426010BD00BFD48D01085B
:1053F00070477047704702F0C1B910B54FF414718F
:10540000044611F0D7FD204610BD000010B504463B
:1054100002F028FA014B2360204610BD488E010897
:1054200010B50B460446064A052100F508700FF03A
:1054300031FB04F59E70BDE810400EF0BDB800BF12
:105440003C8E010810B5044661B9492304F22A20B4
:10545000094A0A210FF01EFB04F5F470BDE8104064
:105460000EF0AAB8012901D14123EFE7022901D1A9
:105470004D23EBE710BD00BFD88B010810B54124C8
:10548000847631240022C47642245821026042608E
:105490008260C260026102750477026242628262C7
:1054A00080F82C2080F82D2080F82E2080F82F20E6
:1054B00080F830204263826380F83C2080F83D20F1
:1054C0003224224A41758175C1750176417644774F
:1054D00080F83110136B1E4943F04C0313630B68C3
:1054E00023F040630B600B6823F040730B60194B93
:1054F0001A6822F030021A601A6822F0C0021A609C
:105500001A6822F440221A60134A146824F0300406
:105510001460146824F440741460146824F4404443
:1055200014600C6824F440340C60116821F40061AC
:105530001160116841F4806111601A6822F04062C4
:105540001A601A6842F080621A6010BD003802408A
:105550000008024000180240000C024010B5C28A48
:10556000438B9A42044612D1028B838B9A420ED10E
:1055700090F82D30BBB996220362836242620068C4
:1055800003685B699847012384F82D3010BD96238A
:105590002362206800236362A36203685B69984703
:1055A000012384F82C3010BD00230362436296234C
:1055B0008362006803685B69184738B50025962345
:1055C0000446036245628562006803685B69984728
:1055D000206825610368DB6898475823A375E37545
:1055E0002376637684F82D50E56038BD70B5C368C6
:1055F0000133C360836B0133044683634FF400516E
:10560000A24807F077FD20B194F83C30002B00F061
:105610009C824FF400519D4807F06CFD08B984F856
:105620003C009B4D8021284607F064FD002835D0C2
:10563000984A536943F400535361636B9BB1A36B66
:10564000192B10DD00236363A3636A6922F0200233
:105650006A61206884F82E3084F82F3084F8303066
:1056600003689B6B9847626BA2B9A36B192B11DD82
:10567000012387496363A2634A6942F020024A61B9
:10568000206884F82E3084F82F3084F83030036896
:10569000DB6B9847206803681B6B98474FF4807159
:1056A0007A4807F027FD94F83D30834223D0794AA9
:1056B0007749536943F400535361002363634A6994
:1056C00022F020024A61206884F82E3084F82F30BE
:1056D00084F8303003689B6B98474FF480716B48B7
:1056E00007F008FD003018BF012084F83D00206855
:1056F00003681B6B98474FF48071644807F0FAFC0D
:1057000094F83D30834201BF624A536923F4005349
:105710005361E368192B08DD94F82C302BB1204637
:10572000FFF74BFF002384F82C301021584807F076
:10573000E1FC18B1E368192B00F3128220680368BA
:10574000DB699847206803685B6A984720680368AC
:105750009B6A984720680368DB6A984794F82E2074
:1057600094F82F30002A40F0FE81002B40F0FD819C
:1057700094F83030002B40F0F881206863630368B0
:105780001B6B984794F83130582B0AD094F82C3082
:105790002BB12046FFF711FF002384F82C300123A2
:1057A0002375E368192B40F3A481237D002B00F0BF
:1057B000A08194F82D30002B40F09B8104213548C6
:1057C00007F098FC88B90821324807F093FC60B9CB
:1057D0004FF400712F4807F08DFC30B904212C489C
:1057E00007F088FC002800F0C2810421294807F056
:1057F00081FC88B10821274807F07CFC60B94FF490
:105800000071244807F076FC30B90421204807F0E5
:1058100071FC002800F0AE8104211E4807F06AFCEC
:1058200088B908211B4807F065FC60B14FF400718E
:10583000184807F05FFC30B90421154807F05AFCFE
:10584000002800F09A810421124807F053FC88B127
:105850000821104807F04EFC60B14FF400710D486C
:1058600007F048FC30B90421094807F043FC002840
:1058700000F086810421074807F03CFCC8B90821E4
:10588000044807F037FCA0B906E000BF000802405A
:10589000000C0240001802404FF400719D4807F0D0
:1058A00029FC30B104219C4807F024FC002800F0BA
:1058B0006A810421974807F01DFC88B108219548AA
:1058C00007F018FC60B94FF40071924807F012FC21
:1058D00030B10421904807F00DFC002800F05681FB
:1058E00004218C4807F006FC88B90821894807F094
:1058F00001FC60B14FF40071864807F0FBFB30B14A
:105900000421854807F0F6FB002800F042810421BD
:10591000804807F0EFFB88B108217E4807F0EAFBDA
:1059200060B14FF400717B4807F0E4FB30B1042113
:10593000794807F0DFFB002800F02E81042175482C
:1059400007F0D8FB88B90821724807F0D3FB60B98B
:105950004FF400716F4807F0CDFB30B904216E4859
:1059600007F0C8FB002840F01A810421694807F0BD
:10597000C1FB88B10821674807F0BCFB60B94FF450
:105980000071644807F0B6FB30B90421624807F0A3
:10599000B1FB002840F0068104215E4807F0AAFB15
:1059A00088B908215B4807F0A5FB60B14FF400718E
:1059B000584807F09FFB30B90421574807F09AFB7D
:1059C000002840F0F2800421524807F093FB88B190
:1059D0000821504807F08EFB60B14FF400714D482C
:1059E00007F088FB30B904214B4807F083FB0028FF
:1059F00040F0DE800421474807F07CFB88B908218D
:105A0000444807F077FB60B94FF40071414807F054
:105A100071FB30B10421404807F06CFB002840F0D6
:105A2000CA8004213B4807F065FB88B1082139484A
:105A300007F060FB60B94FF40071364807F05AFB7D
:105A400030B10421344807F055FB002840F0B680FF
:105A50000421304807F04EFB88B908212D4807F093
:105A600049FB60B14FF400712A4807F043FB30B1A5
:105A70000421294807F03EFB002840F0A2800421C1
:105A8000244807F037FB88B10821224807F032FB91
:105A900060B14FF400711F4807F02CFB30B10421B6
:105AA0001D4807F027FB002840F08E8094F8313025
:105AB000582B07D063752068582384F83130036869
:105AC0001B6A9847206803681B699847236953BB82
:105AD000627DA2752068013323610368DB68984703
:105AE0002369042B20462DD1FFF738FD0023E36006
:105AF0002375E368192B6ADD94F82D30002B66D0EE
:105B00002046FFF75AFD20680368BDE870405B6BD4
:105B1000184700BF00180240000C024094F83030D3
:105B20001BB3012329E6012B02D1627DE275D1E787
:105B3000022B02D1627D2276CCE7032B04BF627D6B
:105B40006276C7E7FFF730FDD0E76368206801336E
:105B5000636003689B689847012384F83C3058E5EC
:105B600001232375EAE5002BD8D1022305E6302373
:105B700063753AE6312363754EE63223637562E658
:105B80003323637576E63423637592E635236375B4
:105B9000A6E636236375BAE637236375CEE6382367
:105BA0006375E2E639236375F6E6412363750AE718
:105BB000422363751EE74323637532E7442363750D
:105BC00046E7452363755AE7462363756EE770BD64
:105BD0007047704710B54FF4A871044611F0EAF908
:105BE000204610BD10B50446D0F84C01FFF7FEFC6E
:105BF0002046BDE810400CF0A9BF10B50446D0F80F
:105C0000340158B10368DB68984738B1D4F83401DF
:105C100003689B6898470023C4F8343110BD000026
:105C200010B5044602F01AFC014B2360204610BD5B
:105C3000808E01087047A0F10400FBE7704710B5A3
:105C40001021044611F0B6F9204610BDA0F1040061
:105C5000F5E7000010B500228260044AC16002F13D
:105C6000080420320460426010BD00BFB48E0108F9
:105C70007047704703F057B810B54FF48A71044667
:105C800011F098F9204610BD10B5044603F084F8D1
:105C9000014B2360204610BD1C8F010870B51E46C5
:105CA0000368BDF910505B6B044698472368314682
:105CB00020469A6B9047236829462046DB6BBDE857
:105CC0007040184781807047C180704770B5036885
:105CD0000446DB6A154698472368294620461B6B15
:105CE000BDE8704018470181704741817047704797
:105CF0007047704770477047C38810B4D21A8388C2
:105D00005DF8044BC91A036812B25B6D09B21847FB
:105D10004FF6FF738381038443841368C36110606B
:105D20007047122070477047704790F825201AB1CD
:105D300090F8242002B118607047012070470022BB
:105D4000028042808280C280704770B5036804463A
:105D5000DB6A154698472368294620465B6EBDE8F6
:105D6000704018470D2070470E20704770477047ED
:105D7000704770477047704770477047704770476B
:105D8000704770477047704770477047704700F51D
:105D900042729142034602D103689B6E184700F598
:105DA0006072914202D10368DB6AF7E700F57E7208
:105DB000914202D103681B6BF0E700F58E629142BD
:105DC00002D103685B6BE9E700F59D62914202D165
:105DD00003689B6BE2E700F5AC62914202D1036875
:105DE000DB6BDBE700F5BB62914202D103681B6C01
:105DF000D4E700F5CA62914202D103685B6CCDE73B
:105E000000F5D962914202D103689B6CC6E700F5A8
:105E1000E862914203D10268D26C1846104700F53F
:105E2000F762914202D10268126DF6E700F5036253
:105E3000914202D10268526DEFE700F6A80291424A
:105E400002D10268926DE8E700F51262914202D138
:105E50000268D26DE1E700F69812914202D1026821
:105E6000126EDAE700F52162914202D10268526EA9
:105E7000D3E77047704790F82C304BB100F16C02BB
:105E80001268C2653BB100F174031B68036670477A
:105E900000F16802F4E700F17003F6E7704770471D
:105EA000704710B4C2688368406812F0010F4FEA6F
:105EB000620218BF8458104418BFE3585DF8044BC1
:105EC000184743682BB183682BB9C06800F0010004
:105ED0007047184670470120704710B4C268836845
:105EE000406812F0010F4FEA620218BF8458104454
:105EF00018BFE3585DF8044B184743682BB183681B
:105F00002BB9C06800F001007047184670470120A7
:105F1000704790F82D3080F85A30704710B538210E
:105F2000044611F047F8204610BD10B5782104460C
:105F300011F040F8204610BD10B51021044611F0B4
:105F400039F8204610BD10B51021044611F032F882
:105F5000204610BD70B50B7990F82C5004460E46C3
:105F600083B985B13379012B1DD1206BD8B103687A
:105F7000DB689847B8B1206B036821469B68BDE891
:105F8000704018477DB1B3FA83F35B0984F82C3075
:105F900023682046D3F888309847236820465B69F9
:105FA0009847002DDED170BD00F5CA70884208B553
:105FB00005D10CF007FFBDE8084002F085BA08BD26
:105FC000094A026000228280C2800281428182816D
:105FD000C2810282428242618261C26180F82420D1
:105FE000012280F82520704738B9010838B50446E9
:105FF0000D46FFF7E5FF094B23604FF6FF73E3847F
:1060000084F82830204629460BF075FB044B2360AA
:1060100000236385A385204638BD00BFE8B601088C
:106020004CB5010808B5094B1B682BB9084B094A48
:10603000CF21094811F0A6FD084B02881B889A421F
:1060400003DB074B034AD021F3E708BD8CAB0020EC
:106050008F90010800920108D190010890AB0020B8
:106060003891010810B50446FFF7DCFF044B228885
:106070001B6813F81220034B1B6853F8220010BD55
:106080008CAB002094AB002073B5036804461E6BF4
:10609000C38C02A80D4620F8043DFFF7E3FF036818
:1060A000DB6A9847291A09B22046B04702B070BD92
:1060B00010B50446FFF7B6FF024B22881B6853F861
:1060C000220010BDC40B002010B5C28C4FF6FF7328
:1060D0009A42044609D02630FFF7EAFF626B014678
:1060E0002046BDE810400BF01DBA002010BD000096
:1060F0002DE9F04FC68C4FF6FF739E428FB00446D9
:106100000F464BD000F126052846FFF7ABFF80462F
:10611000002843D02846FFF785FF224B94F82EA095
:106120001B68B4F82C9094F830B003EB4603284673
:106130005E78C6F301020592FFF774FFA36A0B9322
:10614000194B94F82F001B6894F83110059A8DF8BC
:106150003300C6F381068DF8296007AE8DF8341040
:106160008DF832A02146ADF8309030468DF82820C9
:10617000CDF824808DF82AB0D3F808800DF0C6FA47
:106180002846FFF795FF636B029309AB01900093DC
:1061900096E806003B4640460BF0DCFB0FB0BDE83E
:1061A000F08F00BF8CAB00202CAB00202DE9F0411C
:1061B000C78C4FF6FF739F4204461BD000F12605A3
:1061C0002846FFF74FFF06462846FFF72BFF2846D5
:1061D000FFF76EFF094B1B6803EB47030246597834
:1061E0003368DD69636B3046AC46C1F38101BDE8BD
:1061F000F04160470020BDE8F08100BF8CAB00207B
:1062000010B50446FFF7DCFE084B23604FF6FF7223
:106210000023E284A362A38584F82E2084F82F3023
:1062200084F8303084F83130204610BD64B4010861
:1062300010B50446FFF7E4FF024B236000236363BD
:10624000204610BD508F0108F8B504462646FFF7DA
:10625000B7FE0123002584F82430FF27114BA562E7
:1062600084F82C5084F82D70256346F8343B304672
:10627000FFF7A6FE0C4B63632A462946304684F896
:106280005A70E565256684F86450A566E56625675D
:106290006567FFF71BFD2046314609F08BF9204664
:1062A000F8BD00BFCC8F01087CB6010810B40367AD
:1062B000019B436703688166C266D3F888305DF846
:1062C000044B18472DE9F04F0446B1B030AE0DF045
:1062D0008FFC224600254FF6FF78D94B26F8048D17
:1062E000E56342F8403B314610460492FFF77EFEDC
:1062F00004F17003314618460593ADF8BC80FFF7F2
:1063000075FE04F1A00318460B93FFF779FF04F123
:10631000D4031846039308F0D3FE04F5CA73184655
:106320000C93FFF74DFE012384F8B831C54BC4F838
:10633000943104F5E473C4F8BC5184F8C051A4F856
:10634000C281A4F8C48184F8C68118460693ADF8CA
:10635000BC80FFF735FEBC4BC4F8C8313146A4F809
:10636000EE8184F8F08106980BF0C5F904F5FA7314
:1063700018460D93FFF744FF04F50A731846079378
:10638000FFF756FF04F5187318460893FFF750FF00
:1063900004F5267318460993FFF74AFF04F5347392
:1063A00018460A93FFF744FF04F5427318460E930C
:1063B000FFF74AFF04F5607318460F93FFF744FF99
:1063C00004F57E7318461093FFF73EFF04F58E63C5
:1063D00018461193FFF738FF04F59D631846129392
:1063E000FFF732FF04F5AC6318461393FFF72CFF59
:1063F00004F5BB6318461493FFF726FF04F5CA6340
:1064000018461593FFF720FF04F5D9631846169335
:10641000FFF71AFF04F5E86318461793FFF714FF18
:1064200004F5F76318461893FFF70EFF04F50363AE
:1064300018461993FFF708FF04F6A80318461A93A5
:10644000FFF702FF04F5126318461B93FFF7FCFEEB
:1064500004F6981318461C93FFF7F6FE04F5216323
:1064600018461D93FFF7F0FE04F6882318461E9386
:10647000FFF7C6FE04F6BC2318461F93FFF7C0FEC5
:1064800004F52F6318462093FFF7BAFE04F6243371
:1064900018462193FFF7B4FE04F6583318462293AA
:1064A000FFF7AEFE04F68C3318462393FFF7A8FEE1
:1064B00004F53C6318462493FFF7A2FE04F6F43378
:1064C00018462593FFF79CFE04F6284318462693AA
:1064D000FFF796FE04F65C4318462793FFF790FEFD
:1064E00004F5496318462893FFF78AFE04F6C4436F
:1064F00018462993FFF784FE04F6F84318462A93BA
:10650000FFF77EFE04F62C5318462B93FFF778FE18
:1065100004F5566318462C93FFF772FE04F6945365
:1065200018462D93FFF76CFE484BC4F8F83D484BD6
:10653000C4F8003E474BC4F8083E474BC4F8045E1D
:106540004FF00608C4F8103EC4F8145E31460498B3
:10655000C4F8FC4DC4F80C4EADF8BC800AF05FFDE9
:106560004FF4A07300932A46F02329460498FFF7BE
:1065700095FB2A46294604980AF02FFD4FF004099E
:1065800031460598ADF8BC900AF049FD6B230093A5
:106590000598DF236FF001020921FFF77FFB2A46F0
:1065A000294605980AF019FD0B980C222121FF2796
:1065B000FFF78CFBFE22114638460EF079FAA4F85C
:1065C000CC50C4F8C80029460B980AF07DFC03980B
:1065D0004D221E21FFF77AFB022210230093114661
:1065E0000398B42308F0A4FD4A462B46009529469B
:1065F0000398DFF8689008F09DFE2946039808F09C
:10660000F7FD022331460398ADF8BC3008F087FE51
:106610008D22562140460EF04BFA0146039808F0B1
:106620002FFD2946039808F09BFD0C986FF005029A
:10663000BB21FFF74BFB4FF00C0A32462EA90FE0AF
:1066400094910108D4B50108E8B6010864900108E6
:10665000A95F00087C9001088F5D00088C900108FC
:106660000C98ADF8B8A0ADF8BCA00AF098FE04F6FE
:10667000F853C4F8BC3184F8C6516FF00102069893
:10668000C921FFF723FB112331460698ADF8BC3032
:106690000BF031F80D9893222121FFF717FB3A46B2
:1066A000394638460EF004FAA4F82052C4F81C0209
:1066B00084F822520D984FF005010AF005FC079866
:1066C00067222821FFF702FB3A46394638460EF08A
:1066D000EFF9A4F85452C4F8500207233046ADF83D
:1066E000BC30FFF7E5FC04F6C85B03464A4641466A
:1066F00058460EF0CFF9C4F85CB207980AF0BAFB1E
:10670000414607980AF0E0FB089867225A21FFF7F4
:10671000DDFA3A46394638460EF0CAF9A4F88C52EA
:10672000C4F8880209233046ADF8BC30FFF7C0FC3E
:1067300004F6D45B03464A46414658460EF0AAF991
:10674000C4F894B208980AF095FB08984FF0080135
:106750000AF0BAFB099867228921FFF7B7FA3A468F
:10676000394638460EF0A4F9A4F8C452C4F8C00261
:106770000B233046ADF8BC30FFF79AFC04F55E6B96
:1067800003464A46414658460EF084F9C4F8CCB256
:1067900009980AF06FFB09984FF00A010AF094FB80
:1067A0000A986722B921FFF791FA3A4639463846E6
:1067B0000EF07EF9A4F8FC52C4F8F8020D2330461E
:1067C000ADF8BC30FFF774FC04F6EC5703464A46BC
:1067D000414638460EF05EF9C4F804730A98232641
:1067E0000AF048FB51460A980AF06EFB33462A46E7
:1067F000294604F54F700096FFF750FA84F86C5361
:106800009922662128460EF053F9CC220746992199
:1068100028460EF04DF966228046332128460EF0B8
:1068200047F999228146662133200EF041F94B4603
:106830000090424639460E9804F60867FFF736FD89
:1068400033460E98009640F21D124F21FFF726FAAC
:1068500033462A46294604F56D70C4F8387300960D
:10686000FFF71CFA84F8E4539922662128460EF0BB
:106870001FF9CC228046992128460EF019F966228C
:106880008146332128460EF013F99922824666216B
:1068900033200EF00DF9534600904A4641460F98BA
:1068A000FFF704FD33460F98009687221B21FFF760
:1068B000F5F933462A46294604F22C40C4F8B07351
:1068C0000096FFF7EBF984F85C549922662128467C
:1068D0000EF0EEF8CC228046992128460EF0E8F81A
:1068E00066228146332128460EF0E2F8992282463C
:1068F000662133200EF0DCF8534600904A464146AC
:106900001098FFF7D3FC33461098009687224F214A
:10691000FFF7C4F933462A46294604F2A440C4F8D6
:1069200028740096FFF7BAF984F8D45499226621A6
:1069300028460EF0BDF8CC228046992128460EF05C
:10694000B7F866228146332128460EF0B1F8992225
:106950008246662133200EF0ABF8534600904A463B
:1069600041461198FFF7A2FC334611980096872202
:106970008221FFF793F933462A46294604F21C5038
:10698000C4F8A0740096FFF789F984F84C55992251
:10699000662128460EF08CF8CC22804699212846A4
:1069A0000EF086F866228146332128460EF080F8E4
:1069B00099228246662133200EF07AF853460090E1
:1069C0004A4641461298FFF771FC334612980096EA
:1069D000B9221B21FFF762F933462A46294604F201
:1069E0009450C4F818750096FFF758F984F8C45508
:1069F0009922662128460EF05BF8CC228046992128
:106A000028460EF055F866228146332128460EF0BE
:106A10004FF899228246662133200EF049F85346FA
:106A200000904A4641461398FFF740FC33461398BE
:106A30000096B8224F21FFF731F933462A462946FE
:106A400004F20C60C4F890750096FFF727F984F8FB
:106A50003C569922662128460EF02AF8CC22804620
:106A6000992128460EF024F86622814633212846D3
:106A70000EF01EF899228246662133200EF018F897
:106A8000534600904A4641461498FFF70FFC3346A0
:106A900014980096B9228221FFF700F933462A465E
:106AA000294604F28460C4F808760096FFF7F6F8E9
:106AB00084F8B4569922662128460DF0F9FFCC22BD
:106AC0008046992128460DF0F3FF66228146332146
:106AD00028460DF0EDFF99228246662133200DF005
:106AE000E7FF534600904A4641461598FFF7DEFB04
:106AF000334615980096EB221B21FFF7CFF833465B
:106B00002A46294604F2FC60C4F880760096FFF716
:106B1000C5F884F82C579922662128460DF0C8FF45
:106B2000CC228046992128460DF0C2FF662281467C
:106B3000332128460DF0BCFF99228246662133207E
:106B40000DF0B6FF534600904A4641461698FFF7AF
:106B5000ADFB334616980096EB224F21FFF79EF8C7
:106B600033462A46294604F27470C4F8F876009633
:106B7000FFF794F884F8A4579922662128460DF06F
:106B800097FFCC228046992128460DF091FF66227E
:106B90008146332128460DF08BFF992282466621DB
:106BA00033200DF085FF534600904A464146179822
:106BB000FFF77CFB4FF02208334617980096EB2234
:106BC0008221FFF76BF83346CDF800802A4629462C
:106BD00004F2EC70C4F87077FFF760F884F81C5882
:106BE0009922662128460DF063FFCC228146992127
:106BF00028460DF05DFF66228246332128460DF0BF
:106C000057FF99228346662133200DF051FF5B46E2
:106C10000090524649461898FFF748FBCDF800808F
:106C20003346189840F21D121B21FFF737F8334600
:106C30002A46294604F66400C4F8E8770096FFF770
:106C40002DF884F894589922662128460DF030FFDB
:106C5000CC228046992128460DF02AFF66228146E3
:106C6000332128460DF024FF9922824666213320E5
:106C70000DF01EFF534600904A4641461998FFF713
:106C800015FB33461998009640F21D128221FFF73A
:106C900005F833462A46294604F6DC00C4F8607835
:106CA0000096FEF7FBFF84F80C59992266212846CE
:106CB0000DF0FEFECC228046992128460DF0F8FE0C
:106CC00066228146332128460DF0F2FE9922824643
:106CD000662133200DF0ECFE534600904A464146B3
:106CE0001A98FFF7E3FA33461A98009640F21D12FD
:106CF000B221FEF7D3FF33462A46294604F6541044
:106D0000C4F8D8780096FEF7C9FF84F88459992210
:106D1000662128460DF0CCFECC22804699212846DB
:106D20000DF0C6FE66228146332128460DF0C0FED6
:106D300099228246662133200DF0BAFE5346009018
:106D40004A4641461B98FFF7B1FA33461B98009616
:106D5000EB22B221FEF7A2FF33462A46294604F66B
:106D6000CC10C4F850790096FEF798FF84F8FC59CF
:106D70009922662128460DF09BFECC22804699215F
:106D800028460DF095FE66228146332128460DF0F7
:106D90008FFE99228246662133200DF089FE5346EC
:106DA00000904A4641461C98FFF780FA33461C98EB
:106DB0000096B922B221FEF771FF33462A462946D2
:106DC00004F64420C4F8C8790096FEF767FF84F8FB
:106DD000745A9922662128460DF06AFECC2280461C
:106DE000992128460DF064FE66228146332128460B
:106DF0000DF05EFE99228246662133200DF058FE8A
:106E0000534600904A4641461D98FFF74FFA3346D5
:106E10001D9800968722B221FEF740FF1E98C4F805
:106E2000407A8B222521FEF751FF2A462946FF2072
:106E30000DF03EFEA4F8B45AC4F8B00A4FF01101A8
:106E40001E980AF041F81F988B225921FEF73EFF49
:106E50002A462946FF200DF02BFEA4F8E85AC4F874
:106E6000E40A4FF012011F980AF02EF820988B22A6
:106E70008C21FEF72BFF2A462946FF200DF018FE35
:106E8000A4F81C5BC4F8180B4FF0130120980AF00B
:106E90001BF82198BC222521FEF718FF2A46294617
:106EA000FF200DF005FEA4F8505BC4F84C0B4FF02A
:106EB000140121980AF008F82298BA225A21FEF704
:106EC00005FF2A462946FF200DF0F2FDA4F8845B59
:106ED000C4F8800B4FF01501229809F0F5FF2398B4
:106EE000EE222521FEF7F2FE2A462946FF200DF06C
:106EF000DFFDA4F8B85BC4F8B40B4FF0160123987B
:106F000009F0E2FF2498EE225A21FEF7DFFE2A461E
:106F10002946FF200DF0CCFDA4F8EC5BC4F8E80B8B
:106F20004FF01701249809F0CFFF2598BB228C2140
:106F3000FEF7CCFE2A462946FF200DF0B9FDA4F845
:106F4000205CC4F81C0C4FF01801259809F0BCFF18
:106F50002698BC22BD21FEF7B9FE2A462946FF200D
:106F60000DF0A6FDA4F8545CC4F8500C4FF01901C4
:106F7000269809F0A9FF27988B22BD21FEF7A6FECF
:106F80002A462946FF200DF093FDA4F8885CC4F83A
:106F9000840C4FF01A01279809F096FF2898ED22EB
:106FA0008D21FEF793FE2A462946FF200DF080FD35
:106FB000A4F8BC5CC4F8B80C4FF01B01289809F089
:106FC00083FF2998EE22BB21FEF780FE2A46294640
:106FD000FF200DF06DFDA4F8F05CC4F8EC0C4FF050
:106FE0001C01299809F070FF31462A984FF48F72DE
:106FF000FEF76CFE2A462946FF200DF059FDA4F845
:10700000245DC4F8200D4FF01D012A9809F05CFFA3
:107010002B9840F21F12BB21FEF758FE2A46294644
:10702000FF200DF045FDA4F8585DC4F8540D4FF055
:107030001E012B9809F048FF2C984FF490728D2177
:10704000FEF744FE2A462946FF200DF031FDA4F844
:107050008C5DC4F8880D4FF01F012C9809F034FFA7
:107060002D984FF490725A21FEF730FE2A46294699
:10707000FF200DF01DFDA4F8C05DC4F8BC0D251D5A
:107080002D984FF0200109F01FFF0499284608F0C1
:1070900091FA0599284608F08DFA0B99284608F0D0
:1070A00089FA0399284608F085FA0C99284608F0D1
:1070B00081FA0699284608F07DFA0D99284608F0CD
:1070C00079FA0799284608F075FA0899284608F0D1
:1070D00071FA0999284608F06DFA0A99284608F0CD
:1070E00069FA0E99284608F065FA0F99284608F0C3
:1070F00061FA1099284608F05DFA1199284608F0BF
:1071000059FA1299284608F055FA1399284608F0BA
:1071100051FA1499284608F04DFA1599284608F0B6
:1071200049FA1699284608F045FA1799284608F0B2
:1071300041FA1899284608F03DFA1999284608F0AE
:1071400039FA1A99284608F035FA1B99284608F0AA
:1071500031FA1C99284608F02DFA1D99284608F0A6
:1071600029FA1E99284608F025FA1F99284608F0A2
:1071700021FA2099284608F01DFA2199284608F09E
:1071800019FA2299284608F015FA2399284608F09A
:1071900011FA2499284608F00DFA2599284608F096
:1071A00009FA2699284608F005FA2799284608F092
:1071B00001FA2899284608F0FDF92999284608F08F
:1071C000F9F92A99284608F0F5F92B99284608F08C
:1071D000F1F92C99284608F0EDF928462D9908F088
:1071E000E9F9204631B0BDE8F08F00BF10B5044B7F
:1071F000044640F8D43B07F04FFF204610BD00BFC7
:107200009491010810B50446FFF7F0FF204640F6C0
:1072100018610FF0CFFE204610BD704770477047D1
:1072200070477047704710B4C2688368406812F0B6
:10723000010F4FEA620218BF8458104418BFE35888
:107240005DF8044B184743682BB183682BB9C068BD
:1072500000F001007047184670470120704710B5D4
:10726000102104460FF0A6FE204610BD00F170026A
:10727000914210B505D10BF0A5FDBDE8104001F01D
:1072800033B900F5FA72914204D103689B6BBDE8F3
:107290001040184700F52372914202D103685B6BDE
:1072A000F5E700F54972914202D10368DB6AEEE727
:1072B00000F56472914205D10BF084FDBDE81040E9
:1072C00001F042B900F57172914202D103681B6B63
:1072D000DDE710BD2DE9F04F044693B0A24600252E
:1072E00012AE0CF085FCDE4BE5634FF6FF784AF8F2
:1072F000403B26F8048DDB4FDFF87893DFF878B356
:107300005046FEF75DFE31462764A4F8668084F897
:10731000688050460AF0EFF9D34B236404F1700300
:10732000A4F86A50A4F86C5018460793FEF748FE7C
:107330004FF0010384F8943004F1A4031846C4F814
:10734000985084F89C50C4F87090A4F89E80A4F8DB
:10735000A08084F8A2800393ADF84480FEF730FE4D
:107360003146C4F8A470A4F8CA8004F1D00784F8A8
:10737000CC8003980AF0BFF9384608F0A5FB04F565
:10738000E47318460493FEF71BFE04F5FA73C4F881
:10739000C8B1C4F8F0511846089309F029FC04F567
:1073A0000B7318460993FEF72BFF04F51873184664
:1073B0000593FEF705FE04F52373C4F860B2C4F824
:1073C000885218460A9309F013FC04F531731846E5
:1073D0000B93FEF715FF04F53E7318460693FEF770
:1073E000EFFD04F54973C4F8F8B2C4F82053184609
:1073F0000C9309F0FDFB04F5577318460D93FEF747
:10740000FFFE04F5647318460E93FEF7D9FD4FF0A6
:10741000010384F8B43304F5717304F57F7BC4F879
:10742000B85384F8BC53C4F89093A4F8BE83A4F86E
:10743000C08384F8C28318460F9309F0D9FB5846DD
:10744000FEF7DEFE894BC4F83034894BC4F838347B
:10745000C4F83C544FF0050831465046C4F8344453
:10746000ADF8448009F0DBFD4FF4A07300932A4689
:10747000F02329465046FEF711FC2A46294650467D
:1074800009F0ABFD41460798FE22FEF71FFC0D23D5
:1074900004F58668ADF8403032464FF00E0310A96F
:1074A0000798ADF8443009F07AFF40F205120398CE
:1074B000C4F898801121FEF709FC4FF00F03314604
:1074C0000398ADF844300AF016F92946384656229A
:1074D000FEF7FCFB942300932A46F12329460498E7
:1074E000FEF7DCFB4FF0090908986E227121FEF7C8
:1074F000EDFB4FF00803324610A90898A4F8289233
:10750000ADF84030ADF8449009F049FF089904986F
:10751000C4F81C8208F04EF8099829223221FEF79F
:10752000D5FB2A46294628460DF0C2FAA4F858523F
:10753000C4F854024FF01001099809F0C5FC0999EC
:10754000049808F037F80499384608F05FFB942354
:1075500000932A46F12329460598FEF79FFB0A98D7
:107560006E227121FEF7B2FB4FF00803324610A9DC
:107570000A98A4F8C092ADF84030ADF8449009F0F4
:107580000EFF0A990598C4F8B48208F013F80B9816
:1075900029223221FEF79AFB2A46294628460DF079
:1075A00087FAA4F8F052C4F8EC024FF00F010B98E0
:1075B00009F08AFC0B99059807F0FCFF05993846FD
:1075C00008F024FB942300932A46F12329460698C9
:1075D000FEF764FB0C986E226F21FEF777FB4FF0ED
:1075E0000803324610A90C98A4F85893ADF840301F
:1075F000ADF8449009F0D3FE0C990698C4F84C837A
:1076000007F0D8FF0D9829223221FEF75FFB2A46AA
:10761000294628460DF04CFAA4F88853C4F8840390
:107620004FF00E010D9809F04FFC0D99069807F0E8
:10763000C1FF0699384608F0E9FA1423ADF8403046
:107640003246132310A93846ADF8443008F03CFB0D
:107650002A462946384608F069F938460EE000BF48
:1076600050920108E8B601084CB5010838920108AB
:107670006D720008D4B50108FCA90108322108F098
:10768000CEF83846322108F04FF93846022108F08A
:1076900077FA2A4629460E98FEF718FB4FF00103A9
:1076A000324610A90E98ADF84430ADF8405009F0BC
:1076B00076FE84F8C2530F98C4F8B883252243217C
:1076C000FEF704FB0A23ADF840300B23A4F8F8338F
:1076D000324610A90F98ADF8443009F060FE5846C4
:1076E000C4F8EC8302221A21FEF7F0FA2A46294652
:1076F00028460DF0DDF9A4F82854C4F82404251D0B
:1077000058464FF0240109F0DFFB5146284607F0A8
:1077100051FF0799284607F04DFF0399284607F0C7
:1077200049FF3946284607F045FF0E99284607F0DD
:1077300041FF0F99284607F03DFF2846594607F0BC
:1077400039FF204613B0BDE8F08F00BF10B5044BE1
:10775000044640F8D03B08F06DF8204610BD00BF4D
:107760005092010810B50446FFF7F0FF20464FF491
:1077700088610FF01FFC204610BD704770477047AE
:10778000704710B4C2688368406812F0010F4FEA76
:10779000620218BF8458104418BFE3585DF8044BC8
:1077A000184743682BB183682BB9C06800F001000B
:1077B0007047184670470120704781877047808F57
:1077C00070470368D3F88030184790F83800704746
:1077D00010B54C2104460FF0EDFB204610BD10B54E
:1077E000102104460FF0E6FB204610BD10B54FF403
:1077F000147104460FF0DEFB204610BD00F170024C
:10780000914210B504D10368BDE81040DB6A184707
:1078100000F1A802914205D10BF0D4FABDE8104066
:1078200000F072BE00F5C473994205D10BF0CAFA9C
:10783000BDE8104000F078BE10BD000038B5044629
:107840000D46FEF7BDFB064B23604FF6FF73204647
:10785000E38484F82830294609F04DFF204638BDDE
:10786000E8B601082DE9F04F04468DB00CAE27466E
:1078700000250CF0BDF94FF6FF78BA4B26F8048DC1
:10788000E56347F8403B31463846FFF7D7FFB64B34
:10789000236404F17003A4F86A50A4F86C501846ED
:1078A000039309F0A5F904F1A80318464FF0010964
:1078B0000493DFF8CCA2FEF783FB04F1DC03C4F8E9
:1078C000D05084F8D450C4F8A8A0A4F8D680A4F866
:1078D000D88084F8DA8084F8CC9018460593FEF7B7
:1078E0008FFC04F5887304F59E7B31461846069399
:1078F000ADF82C80FFF7A2FF5846FEF781FC9B4BAA
:10790000C4F83C3104F5C4731846C4F8705184F8C7
:107910007451A4F87651A4F87851C4F884510793AF
:10792000FEF74EFBC4F888A104F5DE7A3146C4F8B0
:10793000B05184F8B451A4F8B681A4F8B88184F8A1
:10794000BA81ADF82C8084F8AC9104F5F4785046F7
:10795000FFF774FF4046FEF753FC854BC4F8E8314F
:10796000844BC4F84032844BC4F81C52C4F84832EB
:10797000C4F84C524FF0030331463846C4F8444231
:10798000ADF82C3009F04BFB4FF4A07300932A465E
:10799000F02329463846FEF781F92A46294638461B
:1079A00009F01BFB0398D1223821FEF78FF9082339
:1079B000ADF82830092384F89550A4F8A430324655
:1079C0000AA90398ADF82C3009F0E9FC04F510730E
:1079D000C4F8983004980893F3221321FEF776F93F
:1079E00032460AA90498ADF82850ADF82C9009F059
:1079F000D6FC089BC4F8D0302A4605981921FEF71A
:107A000065F9E4229C2115200DF052F8A4F80851E4
:107A1000C4F804014946059809F056FA40F20112EB
:107A200006982021FEF752F9122331460698ADF848
:107A30002C3009F060FE58463E222A21FEF746F916
:107A4000E4229C2115200DF033F804F50873C4F8E6
:107A50006401A4F8685184F86A51099330460423FC
:107A6000ADF82C30FEF724FB444A03460521099863
:107A70000DF010F8099BC4F87031584609F0FAF976
:107A800058464FF0030109F01FFA0798F322A0218E
:107A9000FEF71CF932460AA90798ADF82850ADF850
:107AA0002C9009F07CFC089BC4F8B0314FF4807234
:107AB0005046AF21FEF70AF9102331465046ADF883
:107AC0002C3009F018FE4046CB223A21FEF7FEF892
:107AD0002A46294628460CF0EBFFA4F81452C4F8B5
:107AE000100223233046ADF82C30FEF7E1FA04F201
:107AF0002A250346214A0A2128460CF0CBFFC4F868
:107B00001C524046251D09F0B5F940464FF02201B0
:107B100009F0DAF93946284607F04CFD0399284662
:107B200007F048FD0499284607F044FD05992846CA
:107B300007F040FD0699284607F03CFD59462846C7
:107B400007F038FD0799284607F034FD51462846CE
:107B500007F030FD2846414607F02CFD20460DB0C9
:107B6000BDE8F08F389301084CB5010894920108E4
:107B7000508F010820930108FD7700088C900108C0
:107B8000D4B5010870B590F838300446002B3CD0CD
:107B9000408FA18F884202DA0130608770BDE38F89
:107BA0005A18904215D8B4F84050B4F84220401A00
:107BB000521B12B20021656C80B2A84794F8403085
:107BC000184484F82E0020460BF0F6FC638F013336
:107BD0006387A38FE18F628F0B449A4215D90023EC
:107BE00084F83830E3870BF0EDF821460BF020F9EC
:107BF000A06C50B10368DB68984730B1A06C036893
:107C000021469B68BDE87040184770BD08B5FFF776
:107C1000B9FF08BD70B590F8742100250446C0F87E
:107C2000845100F59E7622B90BF0CCF831460BF06A
:107C3000CFF894F86A31A4F87C31FF23A4F87E31A0
:107C40003023A4F87A31074BC4F88031012384F83B
:107C50007431D4F87831A4F8765113B93046FFF76F
:107C600091FF70BDE13F0108704770474160704768
:107C70007047704701230372704770477047704721
:107C8000704770477047704743681A6800F12801D1
:107C9000926E1846104700001FB50A4B04468DE847
:107CA0001800182302934068012303930368694670
:107CB000DB6F98476068036804F128015B6E9847A2
:107CC00004B010BDD09401087047000010B5064AFA
:107CD000B2F90040054A8480B2F90010C180002248
:107CE0000280428010BD00BF20AB002022AB0020EC
:107CF00010B4C2688368406812F0010F4FEA620254
:107D000018BF8458104418BFE3585DF8044B184757
:107D100043682BB183682BB9C06800F0010070473D
:107D2000184670470120704710B4C26883684068E5
:107D300012F0010F4FEA620218BF8458104418BFB6
:107D4000E3585DF8044B184743682BB183682BB99F
:107D5000C06800F001007047184670470120704766
:107D6000704743681A6800F12801926E1846104760
:107D70001FB50A4B04468DE818001823029340688B
:107D80000123039303686946DB6F984760680368C3
:107D900004F128015B6E984704B010BDE49301081C
:107DA0007047000010B5064AB2F90040054A8480C9
:107DB000B2F90010C18000220280428010BD00BFD5
:107DC00020AB002022AB002010B4C268836840685A
:107DD00012F0010F4FEA620218BF8458104418BF16
:107DE000E3585DF8044B184743682BB183682BB9FF
:107DF000C06800F0010070471846704701207047C6
:107E0000C2688368406812F0010F4FEA620218BF2F
:107E10008158104418BFCB58184743682BB183686A
:107E20002BB9C06800F00100704718467047012068
:107E3000704710B50C2104460FF0BCF8204610BD69
:107E400010B54FF4A87104460FF0B4F8204610BDE9
:107E500010B5102104460FF0ADF8204610BD10B546
:107E6000282104460FF0A6F8204610BD10B52821A1
:107E700004460FF09FF8204610BD10B5502104466F
:107E80000FF098F8204610BD10B5102104460FF0F1
:107E900091F8204610BD10B5102104460FF08AF865
:107EA000204610BD10B5502104460FF083F820463F
:107EB00010BD10B5102104460FF07CF8204610BD0F
:107EC00070B516460C4605460AF07CFF0AF0C7FF5F
:107ED000306810B10368DB689847306810B10368F8
:107EE0001B689847286810B103685B699847206849
:107EF00010B103685B689847286810B103681B6875
:107F00009847206820B10368BDE870409B68184717
:107F100070BD70B503680E46DB6814460546984789
:107F2000336830461B689847214628460BF0DEFF31
:107F3000236820461B6998470AF044FF0368BDE8A0
:107F400070409B6A184710B4034608461A7F032AFC
:107F500012D8DFE802F00B0B02020268B3F922101C
:107F6000546D002223465DF8044B18470268002137
:107F7000546DB3F92220F5E701221A725DF8044B23
:107F8000704710B4034608461A7F032A12D8DFE868
:107F900002F00B0B02020268B3F92210546D0022AA
:107FA00023465DF8044B184702680021546DB3F96D
:107FB0002220F5E701221A725DF8044B704710B4D5
:107FC00003460846DA6B8A4218D093F85020032AF9
:107FD00012D8DFE802F00B0B02020268B3F9561068
:107FE000546D002223465DF8044B184702680021B7
:107FF000546DB3F95620F5E701221A725DF8044B6F
:1080000070470000054B1B7833B143681A6800F1D4
:108010000C01926E18461047704700BF2BAB002032
:10802000034B1A88036852425B6D12B20021184755
:1080300022AB002010B490F850200B46032A22D81F
:10804000DFE802F0151A020D10491A68B1F90010A4
:10805000546D0022184623465DF8044B18470B4A1E
:1080600011881A684942546D09B20022F2E7184695
:108070005DF8044BFFF7D4BF1A68546D044A002121
:10808000B2F90020E6E75DF8044B704720AB002012
:1080900022AB002010B4027F0B46032A22D8DFE86F
:1080A00002F0151A020D11491A68B1F90010546D49
:1080B0000022184623465DF8044B18470B4A1188E6
:1080C0001A684942546D09B20022F2E718465DF879
:1080D000044BFFF7A5BF1A68546D054A0021B2F999
:1080E0000020E6E75DF8044B704700BF20AB00209E
:1080F00022AB002010B4027F0B46032A22D8DFE80F
:1081000002F0151A020D11491A68B1F90010546DE8
:108110000022184623465DF8044B18470B4A118885
:108120001A684942546D09B20022F2E718465DF818
:10813000044BFFF775BF1A68546D054A0021B2F968
:108140000020E6E75DF8044B704700BF20AB00203D
:1081500022AB0020F0B50446807F637F0130C0B2BF
:10816000984287B0A07730DCB4F9202000210BF0D2
:108170000DFF82B212F001032DD04FF6FF710028DF
:10818000D8BF0B4613446384B4F92220A38CA28485
:10819000D31AA27F9BB219B2012A618440D12D4A21
:1081A0001278002A3CD00022ADF80820ADF80A2051
:1081B000ADF80C20ADF80E20227F274E274D032A64
:1081C00012D8DFE802F039410A3401232372002378
:1081D000A37707B0F0BD6084D6E732881344ADF8CA
:1081E0000C302B88ADF80E301D4F386803689B6A41
:1081F00098473288ADF814202A88ADF816203A68DE
:1082000000239568ADF81030ADF812302A6801935C
:10821000FF2300931669014602AB04AA2846B04723
:108220006068036804F10C01DB6F9847D1E732887E
:10823000ADF80810D31AD2E73288ADF80C202A889E
:10824000ADF80A10D31ACDE73288ADF80C202A8891
:108250001344C7E72AAB002020AB002022AB00204C
:108260002CAB0020F0B50446807F637F0130C0B2A4
:10827000984287B0A07730DCB4F9202000210BF0C1
:1082800085FE82B212F001032DD04FF6FF71002857
:10829000D8BF0B4613446384B4F92220A38CA28474
:1082A000D31AA27F9BB219B2012A618440D12D4A10
:1082B0001278002A3CD00022ADF80820ADF80A2040
:1082C000ADF80C20ADF80E20227F274E274D032A53
:1082D00012D8DFE802F039410A3401232372002367
:1082E000A37707B0F0BD6084D6E732881344ADF8B9
:1082F0000C302B88ADF80E301D4F386803689B6A30
:1083000098473288ADF814202A88ADF816203A68CC
:1083100000239568ADF81030ADF812302A6801934B
:10832000FF2300931669014602AB04AA2846B04712
:108330006068036804F10C01DB6F9847D1E732886D
:10834000ADF80810D31AD2E73288ADF80C202A888D
:10835000ADF80A10D31ACDE73288ADF80C202A8880
:108360001344C7E72AAB002020AB002022AB00203B
:108370002CAB002010B5294B1B78044613B9012300
:10838000037210BD90F8520094F851300130C0B221
:10839000984284F8520018DCB4F9542000210BF004
:1083A000F5FD82B212F0010315D04FF6FF710028DF
:1083B000D8BF0B461344A4F8563094F85030032B22
:1083C00029D8DFE803F01F1F0B0B012323720023C2
:1083D00084F8523010BDA4F85600EEE7B4F85610F9
:1083E000238AC91A09B2A4F85610002204F10C001D
:1083F0000BF014F96068036804F14001DB6FBDE81D
:1084000010401847B4F85620638AD21A12B2A4F862
:1084100056200021EAE701232372EBE72BAB002073
:108420001FB50C4B1B7804468BB10B4B40688DE895
:108430001800182302930123039303686946DB6F36
:1084400098476068036804F10C015B6E984704B0BC
:1084500010BD00BF2BAB00209094010870B50446FE
:108460000D4616460AF014FD0C4BC4F848611C601A
:108470000B4B236000200B4BC4F83001C4F83401CF
:10848000C4F83C01C4F84001C4F84401C4F83831D0
:10849000C4F84C5100F086FE204670BD88AB002029
:1084A0008893010870930108064BC0F840310023FF
:1084B000C0F8443100F59C73C0F83C01C0F8343179
:1084C000704700BF4D860008064BC0F840310023BE
:1084D000C0F8443100F59C73C0F83C01C0F8343159
:1084E000704700BFC5870008064BC0F84031002325
:1084F000C0F8443100F59C73C0F83C01C0F8343139
:10850000704700BF398A0008064BC0F8403100238D
:10851000C0F8443100F59C73C0F83C01C0F8343118
:10852000704700BF358B0008064BC0F84031002370
:10853000C0F8443100F59C73C0F83C01C0F83431F8
:10854000704700BFC1880008064BC0F840310023C7
:10855000C0F8443100F59C73C0F83C01C0F83431D8
:10856000704700BFFD8C000803685B6A184703680A
:108570005B6A18472DE9F04780469068089F9A4645
:1085800003681B6A894614469847B0F5147F05D2E4
:10859000284B294AC22129480FF0F4FA6068036881
:1085A0001B6A98470F2803D8254B234AC321F2E7BB
:1085B000E06803681B6A98470B2803D8214B1E4AC2
:1085C000C421E8E7524649464046FFF779FCE06897
:1085D000036800215B6A9847054620B10023436089
:1085E0000372194B03600021A068FFF7BDFF064628
:1085F00008B1FCF70BFF60680021FFF7B8FF0446E5
:1086000010B13146FCF7E6FECAF80050C9F8004048
:10861000C8F800605CB1231D3B603046A7602A4665
:10862000F4632146FFF775FC2046BDE8F08723463A
:10863000F2E700BF74950108AF97010802960108A0
:10864000699601080C970108C493010807B5D0F892
:108650004C310093D0F84821044B00F59871044840
:10866000FFF788FF03B05DF804FB00BF84AB002078
:1086700080AB00201A4B13B503600446194BC3604E
:1086800000221C2342600272206143610123836146
:1086900084F84D30144BA362144B61771B88A2778A
:1086A0005942218412496284B1F9001000910220DC
:1086B0002077A28404F12800A285E28522866286C2
:1086C000A286E28622876287E2632264626484F87B
:1086D0004C201BB21146FDF7E1FA204602B010BD56
:1086E00068940108E4930108FC93010820AB002082
:1086F00022AB00202DE9F04780469068089F9A46FB
:1087000003681B6A894614469847B0F5147F05D262
:10871000274B284AC22128480FF034FA60680368C2
:108720001B6A98470F2803D8244B224AC321F2E73B
:10873000E06803681B6A98474F2803D8204B1D4AFE
:10874000C421E8E7524649464046FFF7B9FBE068D6
:10875000036800215B6A9847064610B11421FFF7B1
:1087600089FF0021A068FFF7FFFE054608B1FCF76E
:108770004DFE60680021FFF7FAFE044610B129465D
:10878000FCF728FECAF80060C9F80040C8F800509D
:108790005CB1231D3B602846A7603246EC6321464E
:1087A000FFF7B7FB2046BDE8F0872346F2E700BF9E
:1087B00074950108B39801080296010869960108AA
:1087C0000C97010807B5D0F84C310093D0F8482138
:1087D000044B00F598710448FFF78CFF03B05DF877
:1087E00004FB00BF84AB002080AB00202DE9F047E4
:1087F00080469068089F9A4603681B6A894614461B
:10880000984740F24343984205D8284B284AC22152
:1088100028480FF0B7F9606803681B6A98470F286B
:1088200003D8254B224AC321F2E7E06803681B6A9C
:1088300098474F2803D8214B1D4AC421E8E75246E8
:1088400049464046FFF73CFBE068036800215B6A4D
:108850009847064610B11421FFF70CFFA068036883
:1088600000215B6A9847054608B1FCF7A5FC6068E3
:10887000036800215B6A9847044610B12946FCF75B
:1088800079FDCAF80060C9F80040C8F800505CB132
:10889000231D3B602846A7603246EC632146FFF764
:1088A00038FB2046BDE8F0872346F2E774950108BF
:1088B000419D010802960108699601080C9701087C
:1088C00007B5D0F84C310093D0F84821044B00F59F
:1088D00098710448FFF78AFF03B05DF804FB00BFFE
:1088E00084AB002080AB00201A4B13B50360044614
:1088F000194BC36000221C23426002722061436155
:108900000123836184F84D30144B6177A3621449CD
:10891000144BB1F90010B3F90030A277032020778F
:10892000009104F128006284A284A285E285228657
:108930006286A286E28622876287E263226462649C
:1089400084F84C2023841146FDF7A8F9204602B094
:1089500010BD00BF54950108D0940108E8940108A7
:1089600022AB002020AB00202DE9F0478046906824
:10897000089F9A4603681B6A894614469847B0F5D3
:10898000147F05D2274B284AC22128480FF0FAF855
:10899000606803681B6A98470F2803D8244B224A53
:1089A000C321F2E7E06803681B6A98474F2803D8A1
:1089B000204B1D4AC421E8E7524649464046FFF78E
:1089C0007FFAE068036800215B6A9847064610B1A9
:1089D0001421FFF789FF0021A068FFF7C5FD0546B8
:1089E00008B1FCF713FD60680021FFF7C0FD0446E5
:1089F00010B12946FCF7EEFCCAF80060C9F8004047
:108A0000C8F800505CB1231D3B602846A760324681
:108A1000EC632146FFF77DFA2046BDE8F087234648
:108A2000F2E700BF74950108D39901080296010886
:108A3000699601080C97010807B5D0F84C310093EE
:108A4000D0F84821044B00F598710448FFF78CFFDB
:108A500003B05DF804FB00BF84AB002080AB0020B6
:108A60002DE9F04780469068089F9A4603681B6A84
:108A700089461446984740F61B63984205D8284B10
:108A8000284AC22128480FF07DF8606803681B6AF5
:108A900098470F2803D8254B224AC321F2E7E06804
:108AA00003681B6A98474F2803D8214B1D4AC421ED
:108AB000E8E7524649464046FFF702FAE068036895
:108AC00000215B6A9847064610B11421FFF70CFF9E
:108AD000A068036800215B6A9847054608B1FCF767
:108AE00037FA6068036800215B6A9847044610B152
:108AF0002946FCF7D7FACAF80060C9F80040C8F860
:108B000000505CB1231D3B602846A7603246EC63F1
:108B10002146FFF7FEF92046BDE8F0872346F2E73D
:108B200074950108F39A01080296010869960108F4
:108B30000C97010807B5D0F84C310093D0F84821C4
:108B4000044B00F598710448FFF78AFF03B05DF805
:108B500004FB00BF84AB002080AB002010B5044BA9
:108B6000044640F80C3B08F073F8204610BD00BFE7
:108B7000A894010810B50446FFF7F0FF20465821DD
:108B80000EF018FA204610BD2DE9F04F814690688E
:108B90009B46036885B01B6A8A4615469847B0F520
:108BA0008A7F05D24B4B4C4AC2214C480EF0EAFF5B
:108BB000686803681B6A98470F2803D8484B464AE1
:108BC000C321F2E7E86803681B6A9847572803D86F
:108BD000444B414AC421E8E75A4651464846FFF70C
:108BE0006FF9E868036800215B6A9847044600282B
:108BF0003FD0064600223C4B4260027246F80C3BD6
:108C00003046039208F08EF8384B23641C23A3648B
:108C10000123E364022384F85030142384F8513094
:108C2000334B039A1B78E663646484F85220A4F8FB
:108C30005620F3B12F4FDFF8C080B7F90010B8F914
:108C40000030009130461146FDF728F8304608F014
:108C500001F894F85030032B37D8DFE803F03234B2
:108C60000206B8F800305B4201E0B8F80030A4F822
:108C70005430A868036800215B6A9847064608B12B
:108C8000FDF702F86868036800215B6A98470546AB
:108C900010B13146FCF7DEFFCBF80040CAF80050B7
:108CA000C9F80060A5B12B1D0E9A30461360294605
:108CB000AA60F5632246FFF72CF9284605B0BDE807
:108CC000F08F3B88D3E73B88CDE701232372D0E7C1
:108CD0002B46E9E774950108199C010802960108E2
:108CE000699601080C970108A8940108909401085E
:108CF0002BAB002022AB002020AB002007B5D0F822
:108D00004C310093D0F84821044B00F59871044889
:108D1000FFF73AFF03B05DF804FB00BF84AB00200F
:108D200080AB002070477047704710B4C2688368FA
:108D3000406812F0010F4FEA620218BF84581044D5
:108D400018BFE3585DF8044B184743682BB183689C
:108D50002BB9C06800F00100704718467047012029
:108D6000704710B5102104460EF024F9204610BDBE
:108D700010B54FF48A7104460EF01CF9204610BD60
:108D8000A430884208B505D10AF01CF8BDE80840B7
:108D9000FFF78ABB08BD00002DE9F04F044687B0FD
:108DA000264600250AF024FF614BE56306AF46F82E
:108DB000403B4FF6FF7B27F804BD3046FDF700F936
:108DC0005C4A226439463046A4F866B084F868B03C
:108DD000039204F1700A08F08EFC57492164A4F84C
:108DE0006A50A4F86C505046FDF7EAF804F1A40963
:108DF00052492167C4F89850A4F89C5084F89F50B9
:108E000084F8A05084F8A150A4F896B084F89EB0DD
:108E10004846FDF7D5F804F1D8084FF0010348495A
:108E200084F8C830C4F8CC5084F8D050C4F8A410EA
:108E3000A4F8D2B0A4F8D4B084F8D6B04046ADF8C7
:108E400014B0FDF7BDF8039AC4F8D820394640465F
:108E5000A4F8FEB084F800B108F04DFC394BC4F81A
:108E60000431394BC4F80C31C4F81051072339468A
:108E70003046C4F80841ADF8143008F0D0F84FF48B
:108E8000A07300932A46F02329463046FCF706FFDC
:108E90002A462946304608F0A0F8504628221421D8
:108EA000FCF714FF2A46294628460BF001FEA4F8D9
:108EB0009C50C4F898004FF02101504608F004F887
:108EC00048466FF00402BC21FCF700FF4FF001039D
:108ED0003A4604A94846ADF81050ADF8143008F0F1
:108EE0005EFA04F582732A46C4F8CC3084F8D65072
:108EF0004046D021FCF7EAFE251D112339464046A5
:108F0000ADF8143008F0F7FB3146284606F052FB66
:108F10005146284606F04EFB4946284606F04AFBD5
:108F20002846414606F046FB204607B0BDE8F08FD4
:108F30008C9E0108E8B601084CB5010864B401082C
:108F4000D4B50108749E0108818D000870470000A7
:108F500030B5154D2B78BFF35B8F13F0010489B04A
:108F60001FD128460EF028F8D8B13F2306930F4BA7
:108F700005930F4B079408224FF0050E0493042429
:108F80000A2303928DE818400A490B4828230BF066
:108F90007FF828460EF01CF8084A094906480EF0EA
:108FA00004F8054809B030BD280B0020A4030208CE
:108FB000ECF901080CC50108700B0020000200202C
:108FC0004D8F000830B5154D2C78BFF35B8F14F032
:108FD000010489B01ED128460DF0EEFFD0B13F2329
:108FE00006930F4B05930F4B049307210422032391
:108FF0008DE80E00079428220B4903941E230B488A
:109000000BF046F828460DF0E3FF094A09490748E6
:109010000DF0CBFF054809B030BD00BF200B00208C
:109020008CDB01087CC50108A8030208300B002076
:10903000000200204D8F000830B5154D2C78BFF38D
:109040005B8F14F0010489B01ED128460DF0B4FFE7
:10905000D0B13F2306930F4B05930F4B0493062289
:1090600004238DE80C000D49079423221B2303944D
:1090700002940B480BF00CF828460DF0A9FF094AA2
:10908000094907480DF091FF054809B030BD00BF00
:10909000240B002068030208A8EA010820C3010885
:1090A000500B0020000200204D8F000830B5154DF8
:1090B0002B78BFF35B8F13F0010489B01FD12846D2
:1090C0000DF07AFFD8B13F2306930F4B05930F4B5A
:1090D0000493022303930293052204238DE80C00DA
:1090E0000B4907941A2219230A480AF0D1FF28468F
:1090F0000DF06EFF084A094906480DF056FF054875
:1091000009B030BD2C0B00206403020814DC0108F8
:10911000B4C10108900B0020000200204D8F000810
:1091200010B5202104460DF045FF204610BD7047C4
:1091300003290BD8DFE801F002040608FFF77CBF23
:10914000FFF706BFFFF73EBFFFF7B0BF0020704735
:1091500010B5042104460DF02DFF204610BD00007F
:1091600000487047CC9E01081520704700487047A2
:109170008C830B082520704700487047B00B0020F7
:1091800010B5FFF759FF064C2060FFF7E1FE606065
:10919000FFF718FFA060FFF789FFE06010BD00BF78
:1091A000B00B002038B50A4B0A4A18800A4B1A60E7
:1091B000FFF7DCFF0546FFF7DFFF0446FFF7DAFFA6
:1091C000064B1D60064B1C60064B188038BD00BF67
:1091D000C00B0020BC800B08C40B00208CAB00200F
:1091E00094AB002090AB0020014B024A1A607047FC
:1091F000C40B0020BC800B08032208B5002101200D
:1092000001F0A6F8074A106020B100231A4619465B
:1092100001F0C2F801210022084601F099F8024B42
:10922000186008BDC80B0020CC0B002003480023A9
:109230004FF0FF321946006801F01ABAC80B00203F
:10924000034800231A461946006801F0A5B800BF7C
:10925000C80B0020034800231A461946006801F095
:1092600007BA00BFC80B002007B502A9002341F8C8
:10927000043D084B186801F0A7F9019B3BB1064B70
:109280004FF080521A60BFF34F8FBFF36F8F03B060
:109290005DF804FBC80B002004ED00E007B50B4BA4
:1092A000186880B102AA002342F8043D084901F081
:1092B00029F9019B3BB1074B4FF080521A60BFF375
:1092C0004F8FBFF36F8F03B05DF804FBCC0B002012
:1092D0002402002004ED00E070B5084D084C002386
:1092E0001A462946206801F0C3F929462068002360
:1092F0004FF0FF32BDE8704001F0BAB924020020FF
:10930000CC0B0020024B18680368DB68184700BFCD
:109310002CAB002007B500F0B9F800F0FBFA0322EF
:1093200000238DE80C00044904484FF4806201F0EA
:10933000FBFA01F0D1FBFEE770A0010805930008DD
:10934000704770477047704701207047582070473A
:10935000582303FB010008307047582303FB01002A
:10936000083070470120704740F61C60704740F697
:109370001C6303FB01000830704740F61C6303FBCD
:10938000010008307047012070471020704700EB43
:1093900001100830704700EB011008307047084694
:1093A000FFF782B810B5034B0360044605F05EFE7C
:1093B000204610BDE8A0010810B50446FFF7F2FFF3
:1093C000204660210DF0F6FD204610BD10B5034B80
:1093D0000360044605F04AFE204610BDB4A0010813
:1093E00010B50446FFF7F2FF204640F624610DF069
:1093F000E1FD204610BD000010B5034B036004469C
:1094000005F034FE204610BD80A0010810B50446CA
:10941000FFF7F2FF204618210DF0CCFD204610BDCD
:1094200010B5084B0360044600F56560FFF7BAFF0E
:1094300004F12C00FFF7CAFF04F11400FFF7DCFF72
:10944000204610BD1CA1010810B50446FFF7E8FF37
:1094500020464FF482510DF0ADFD204610BD10B5F1
:10946000042104460DF0A6FD204610BD08B5024BB0
:109470001B689B6A984708BD581D002008B5024B21
:109480001B68DB6A984708BD581D00202DE9F04F86
:109490009FB09C4C9C4E002503F0CAF90295236CAA
:1094A00043F080532364236C03F080530293974B63
:1094B00003951A6842F440421A601B6803F4404363
:1094C00003934FF4803312934FF4800302274FF03D
:1094D000010B18934FF4A87208234FF0070811A846
:1094E00019930193CDF844B01A9217971B97CDF8B2
:1094F000708004F079FB0F220C924FF4A0594FF4C6
:10950000805205210CA810920D970E95CDF83C9035
:1095100004F010FD7E4A7F4832601D22019BF261FB
:1095200040F20D127262036040F24312C023B26235
:10953000036140F2171204234FF0090AC6F818B06D
:10954000F2624FF0030B40F2471283614FF4003395
:109550003263C6F814A0C6F820B086F8365086F8F4
:10956000345086F83550436204F0B0FD04957560C0
:10957000B560F5603561636C674843F08063636490
:10958000636C03F0806304930595236B43F400033D
:109590002363236B03F4000305930695236B43F4C5
:1095A00080532363236B03F4805306930795236B47
:1095B00043F001032363236B03F001030793089532
:1095C000236B3B432363236B3B4008930995236B39
:1095D00043F004032363236B03F0040309930A9508
:1095E000236B43F008032363236B03F008030A9300
:1095F0000B95236B43F020032363236B03F02003BD
:109600000B930C95236B43F040032363236B12975A
:1096100003F040030C9341F65803119311A90E2354
:1096200015931395149703F077FC4FF4706311931F
:109630003A4B0193184611A903F06EFC4FF498625F
:1096400011A93748119203F067FC482211A9354847
:109650001192A4F5005403F05FFC4FF4806211A94D
:109660003148119203F058FC4FF40C6211A92046C6
:10967000119203F051FC019BCDF844B0184611A99A
:10968000CDF854A003F048FC11A92046CDF8449031
:1096900003F042FC304604F0E9F9244A244B1360FD
:1096A0001B68984702F0DCFF1195FFF7DFFE13956A
:1096B0001290FFF7E3FE4FF050431A93FF231693E7
:1096C0004FF4C06318931490159717958DF8745044
:1096D0008DF875508DF87650CDF86480FFF7C6FE92
:1096E0001B90FFF7CBFE2A4611A91C90304604F0D0
:1096F00037FA304604F05EFA00F0E0F91FB0BDE83A
:10970000F08F00BF00380240801C00200070004035
:1097100000680140281D00200000024000040240B3
:1097200000080240000C024000140240581D0020B6
:109730003C0200202DE9F743614E3578BFF35B8F83
:1097400015F001058046894617461C4656D130461D
:109750000DF032FC002851D0A3B25A4CBDF82800BD
:10976000C4F80480012284F8452084F8462084F857
:10977000542084F85720544AC4F80890E7602561C3
:10978000656125836583A583E58325846584A58438
:1097900084F82650A562A5856563A563E563256405
:1097A00084F8445084F8555084F8565084F8585042
:1097B00084F8595084F85A5084F85B5084F85C500F
:1097C00025661460414A84F865501380404A108031
:1097D000404A1570404A83421380404AACBF002380
:1097E0000123108084F8303030463D4B23600DF06B
:1097F000EFFB3C4A3C4920460DF0D7FB31483B4F3C
:1098000006F0ACFEFFF7ACFC0446FFF7ADFC0D9B89
:10981000009301460C9B0B9A20460BF037FA344B11
:10982000344A1A600020FFF7BDFC33480BF098F96A
:109830003B78BFF35B8FDB0738D438460DF0BCFBB9
:10984000002833D02D4E2E4B336006F56B6806F1A1
:10985000140006F12C0506F565647060B560F460CF
:10986000C6F8108005F004FC264B7361284605F00D
:10987000FFFB254BF362204605F0FAFB234BC6F8AD
:10988000503E324606F580514046FCF7C9F906F5D0
:109890008050FBF7F3FD4046FEF706FE38460DF01C
:1098A00097FB104A1A4930460DF07FFB09F08AFAFF
:1098B0000146044806F094FD024803B0BDE8F08379
:1098C000D00B0020D40B00202CAB002020AB0020BC
:1098D00022AB002024AB002026AB002028AB0020C8
:1098E00078A2010800020020439300083C0C0020ED
:1098F00098AB00200828002028020020400C0020FF
:109900001CA1010880A00108B4A00108E8A001087A
:1099100021940008F0B585B000264FF4A07303969B
:10992000029601960093124A12491348F023FFF75A
